:020000040800F2
:10000000086501201D04000875850008B561000819
:10001000E17800081335000889EC000800000000B2
:100020000000000000000000000000004BD00008AD
:10003000BD40000800000000A5030008E5D9000845
:100040003704000837040008370400081DAC000816
:100050003704000837040008370400083704000894
:100060003704000837040008054800083704000872
:100070003704000837040008370400083704000874
:100080003704000837040008370400083704000864
:100090003704000837040008370400081D4800082A
:1000A0003704000837040008370400083704000844
:1000B00037040008E5DA00083704000837040008B0
:1000C0003704000837040008370400083704000824
:1000D0003704000885E3000899E30008ADE3000851
:1000E0003704000837040008370400083704000804
:1000F00037040008370400083704000837040008F4
:100100003704000855BA000837040008370400080F
:1001100037040008370400083704000837040008D3
:10012000DD3D0008370400083704000837040008E4
:10013000370400084142000837040008370400086B
:1001400037040008370400083704000837040008A3
:10015000370400083704000837040008D1E300081A
:100160003704000837040008370400083704000883
:100170003704000837040008370400083704000873
:10018000370400083704000800F002F800F0B8F85F
:100190000AA090E8000C82448344AAF10107DA45E2
:1001A00001D100F0ADF8AFF2090EBAE80F0013F07C
:1001B000010F18BFFB1A43F00103184774550400E0
:1001C000945504000A444FF0000C10F8013B13F062
:1001D000070408BF10F8014B1D1108BF10F8015BA0
:1001E000641E05D010F8016B641E01F8016BF9D193
:1001F00013F0080F1EBF10F8014BAD1C0C1B09D1EA
:100200006D1E58BF01F801CBFAD505E014F8016B5B
:1002100001F8016B6D1EF9D59142D6D370470000ED
:100220000023002400250026103A28BF78C1FBD8FF
:10023000520728BF30C148BF0B6070476E2900F0DD
:10024000A386702901F00380662919F05C81652975
:1002500019F05981672919F05681612919F05581E2
:1002600003681B0A28BF41F08001692900F08682DB
:10027000642900F08382752900F080826F2900F0E4
:100280009087782900F0CF87E92900F02B87E429AF
:1002900000F02887F52900F02587EF2900F08D87E9
:1002A000F82900F0CE870368DB0928BF41F0800100
:1002B000632900F0AC86732900F0B186E32901F0D0
:1002C0008184F32901F08684002070471FB519F05E
:1002D00010F99DE8030000F0ABFD00F072FB00F0A8
:1002E00087FD04000020002118F0CAFA401C60605D
:1002F0000020002118F0DAFAE0601FBD10B510BD33
:1003000001F000FD1146FFF7E1FF15F03BF801F0A9
:10031000DFFD03B4FFF7F2FF03BC0FF020FE000087
:100320000B49D1F800C04A685CF8043B10681844D7
:1003300042F8040B8C4528BFA1F1DC0C8A4228BF8F
:10034000A1F1DC02C1F800C04A6020F00040704713
:1003500074440120EFF3108072B6704780F3108868
:100360007047264C4FF6FF7525604FF0000484F36C
:100370000988234C4FF001052570224C4FF0805521
:10038000256062B6FEE730B41E4C4FF08055256004
:1003900030BC704730B41B4C4FF08055256030BCEA
:1003A000704700BF72B6EFF3098050B11EF0100F16
:1003B00008BF20ED108A203880E8F00F1249096844
:1003C000086000B5114880475DF804EB10481149FA
:1003D0000A7802700C4810490A680260106890E8B8
:1003E000F00F20301EF0100F08BFB0EC108A80F321
:1003F00009884EF0040E62B6704700BF22ED00E09F
:10040000BB02002004ED00E0D40200209197000818
:10041000B8020020B9020020DC0200200948804711
:1004200009480047FEE7FEE7FEE7FEE7FEE7FEE7D6
:10043000FEE7FEE7FEE7FEE704480549054A064BEE
:10044000704700004DDA00088901000808450120C6
:10045000086501200855012008550120704700005B
:1004600010B500F0C5FC001D10BD00BF15840100D3
:1004700070B5064600F0B8FC056806F10B0020F0E8
:100480000704B4429CBF002070BD2B466A68BAB115
:100490001068A04210D304F1080188423CBF5068A4
:1004A000586007D35168101941601168091B016039
:1004B00058601460101D70BD13465268002AE7D1C1
:1004C0002146284600F0A0FC0028DED170BD70B5A2
:1004D0000446051F00F088FC0068002C14BF446827
:1004E00070BD002C18BFAC423CBF20466468F8D3F6
:1004F00001680A18AA4218BF456003D12A68054658
:100500001144016028684119A1421CBF6C6070BD94
:100510006168696021680844286070BD53EA020C74
:1005200000F069802DE9F04B4FF00006002B1FBF53
:10053000B3FA83F503FA05F424FA05F65E4012BF18
:100540001643B2FA82F502FA05F4C5F120051EBF82
:1005500022FA05FC44EA0C04203556EA044C4FEA22
:10056000144418BF641C4FF000084FF0000990427B
:1005700071EB030C39D3002919BFB1FA81F701FAE5
:1005800007F6B0FA80F700FA07F6C7F120071EBF9A
:1005900020FA07FC46EA0C062037B6FBF4FCA7EB72
:1005A0000507103F07F01F0BCBF120060CFA0BFBE1
:1005B0002CFA06F644BFB3460026202FA4BF5E46A1
:1005C0004FF0000B5BEA060C08BF4FF0010B19EB74
:1005D0000B09ABFB027C48EB0608C01B06FB02CCF8
:1005E0000BFB03CC71EB0C01C1E70B460246414605
:1005F0004846BDE8F08B13B54FF000004FF0000106
:10060000AFF30080BDE81C40704710B54C1084EA81
:10061000530404D54042C1F1000138BF491E1B42BA
:1006200004D55242C3F1000338BF5B1EFFF776FFCB
:1006300014F0804F04D04042C1F1000138BF491E80
:1006400014F0004F04D05242C3F1000338BF5B1EC8
:1006500010BD00001CB50C46064B7B44694600905B
:10066000204600F0AAFC04460020694600F0B8FCD1
:1006700020461CBD830900000FB41CB5084B06AA18
:100680007B4469460090059800F097FC04460020E2
:10069000694600F0A5FC20461CBC5DF814FB000078
:1006A0005D0900000FB47CB50C0009AA009001D0D0
:1006B0002044401E084B7B4469460190089800F096
:1006C0007CFC05461CB10020694600F089FC2846E8
:1006D0007CBC5DF814FB00003109000070B50446D5
:1006E00085690068C10601D5302600E02026C007D4
:1006F00007D070BDD4E9012130469047206A401CE4
:1007000020626D1EF6D570BD70B50446856900780F
:10071000C00707D170BDD4E9012120209047206A8D
:10072000401C20626D1EF6D570BD70B50C460546A6
:10073000012A05D02878800600D5EA69002302E066
:10074000012305E05B1C934202D2E05C0028F9D152
:10075000A869E618C01AA861286A184428622846C1
:10076000FFF7BCFF04E0D5E9012114F8010B904725
:10077000B442F8D32846FFF7C7FF70BD2DE9F0411A
:100780000646002410687529314616A510D000F0E1
:1007900090FB002802DA404213A507E031688A077F
:1007A00001D512A502E0490704D511A5012401E0F5
:1007B00000F088FB00210A2206F1240709E0B0FBC3
:1007C000F2FCB0FBF2F302FB1C0030307854184608
:1007D000491C0028F3D123462A463046BDE8F041A3
:1007E00000F079BB000000002D0000002B0000008D
:1007F000200000002DE9F05F894604464FF0000A12
:10080000DFF874B1FB44C0F820A02046E1688847B7
:10081000002874D0252806D0D4E901219047206A09
:10082000401C2062F1E700265F462046E1688847C9
:100830002028054607DB312D05D2781910F8200C49
:1008400008B10643F1E7B00701D526F00406C4F865
:100850001CA00027C4F818A02A2D09D028460FF0A4
:1008600077FB38B304EB8708303DC8F8185019E01F
:1008700059F8041B204604EB87029161E168884720
:10088000012F054618D1E069002820DA26F020065D
:100890001DE0D8F8180000EB800005EB4000303870
:1008A000C8F818002046E168884705460FF050FB5D
:1008B0000028EED1012F0AD02E2D08D12046E16864
:1008C00088477F1C0546022F46F02006C4DBA0693E
:1008D000002803DA404246F00106A061F00701D08B
:1008E00026F010066C2D0BD0682D09D04C2D39D078
:1008F0006A2D35D0742D35D07A2D33D016E038E0FE
:10090000E1682F4620468847B842054609D16C2F3A
:1009100026D04FF48060E1680643204688470546AC
:1009200004E06C2F1AD04FF4807006430DB3A5F18C
:100930004100192802D8203546F400664A46294667
:10094000204626604E46FFF779FC80B101280BD087
:10095000F61D26F0070000F1080956E74020E4E7FD
:100960008020D8E70020D6E706F104094DE72846A5
:1009700052E7206ABDE8F09F144D040070B50646AA
:1009800000F03AFA0468054630460A22002100F0D9
:1009900069FC2C6070BD00000B4910B5A1F17C0210
:1009A0000A4CC2E93712372106E000EB104342F847
:1009B0002130074B00FB03400B1EA1F10101F4DCC9
:1009C00010BD0120E8E7000014440120E119D666BB
:1009D000CD0D0100014A00F07DBC00002004002084
:1009E00000F078BC401ECAB210F8011F8A4202D043
:1009F0000029F9D10020704740EA010310B59B0798
:100A00000FD1042A0DD310C808C9121F9C42F8D078
:100A100020BA19BA884201D9012010BD4FF0FF3029
:100A200010BD1AB1D30703D0521C07E0002010BD3F
:100A300010F8013B11F8014B1B1B07D110F8013BCB
:100A400011F8014B1B1B01D1921EF1D1184610BDAC
:100A500040EA0103024630B59B0710D14FF0013444
:100A600000E008C208C91D1B9D4315EAC41FF8D049
:100A700013F0FF0102F8011B0DD01B0AF8E711F873
:100A8000013B002B02F8013B05D011F8013B002B84
:100A900002F8013BF3D130BD10B5431C02E010F861
:100AA000011B71B18107FAD14FF0013202C88C1AD3
:100AB0008C4314EAC211F9D0C01A0A0603D0C01E32
:100AC00010BDC01A10BD0A0401D0801E10BD09025D
:100AD000FCD0401E10BD40EA010370B59B072ED12B
:100AE0004FF00136042A2AD308C810C99D1B9D4324
:100AF000121F15EAC61517D0D8B2E1B2401A50EA53
:100B0000056110D198B2A1B2401A50EA05410AD14C
:100B100023F07F4024F07F41401A50EA052102D1A2
:100B2000180EA0EB146070BDA342DBD018BA21BA36
:100B3000884201D9012070BD4FF0FF3070BD0AB965
:100B4000002070BD10F8013B11F8014B63B1A342C6
:100B50000AD1521E08D010F8013B11F8014B1BB10D
:100B6000A34201D1521EEDD1181B70BD032A40F2E1
:100B7000308010F0030C00F0158011F8013BBCF13F
:100B8000020F624498BF11F801CB00F8013B38BF57
:100B900011F8013BA2F1040298BF00F801CB38BF65
:100BA00000F8013B11F0030300F02580083AC0F083
:100BB000088051F8043B083A51F804CBA0E808102B
:100BC000F5E7121D5CBF51F8043B40F8043BAFF35E
:100BD0000080D20724BF11F8013B11F801CB48BFB8
:100BE00011F8012B24BF00F8013B00F801CB48BFEE
:100BF00000F8012B704710B5203AC0F00B80B1E827
:100C00001850203AA0E81850B1E81850A0E8185041
:100C1000BFF4F5AF5FEA027C24BFB1E81850A0E84A
:100C2000185044BF18C918C0BDE810405FEA827C64
:100C300024BF51F8043B40F8043B08BF7047D2077B
:100C400028BF31F8023B48BF11F8012B28BF20F81C
:100C5000023B48BF00F8012B704702F0FF0343EA54
:100C6000032242EA024200F002B84FF000020429D7
:100C7000C0F0128010F0030C00F01B80CCF1040CCB
:100C8000BCF1020F18BF00F8012BA8BF20F8022BFF
:100C9000A1EB0C0100F00DB85FEAC17C24BF00F8A5
:100CA000012B00F8012B48BF00F8012B70474FF0D3
:100CB000000200B5134694469646203922BFA0E8AC
:100CC0000C50A0E80C50B1F12001BFF4F7AF0907B8
:100CD00028BFA0E80C5048BF0CC05DF804EB8900A9
:100CE00028BF40F8042B08BF704748BF20F8022BEC
:100CF00011F0804F18BF00F8012B704710B5044663
:100D000010F0030F08BF11F0030F40F015804FF0F3
:100D1000013E121FC0F20E8051F8043BA3EB0E0CF3
:100D20002CEA030C1CEACE1C08BF40F8043BF0D0B0
:100D3000A1F1040102F10402521E08DB11F8013B8B
:100D4000002B00F8013BF7D11146FFF78EFF20463C
:100D500010BD00004FF0013C50F8042B51F8043B4B
:100D60009A4221D1A2EB0C03934313EACC1317D17F
:100D700050F8042B51F8043B9A4215D1A2EB0C0316
:100D8000934313EACC130BD150F8042B51F8043BD6
:100D90009A4209D1A2EB0C03934313EACC13DBD0A4
:100DA0004FF00000704700BFD01A01BAB1FA81F1CC
:100DB00001F0180122FA01F0CB40C1F12001DBB2B1
:100DC000C0B2C01A2CFA01F3D11A914311EAC3112F
:100DD000E6D17047014900F09FBA00007C44012031
:100DE000704770477047704700487047B044012013
:100DF00000487047C844012000487047A8440120BB
:100E0000704770477047704738B504460A4600205F
:100E10006946AFF30080002808BF38BD024600993C
:100E2000204600F0D9FA012038BD012000F045BF6E
:100E3000F8B5AFF30080054600200C46102000BF37
:100E40000646A819A0420DD9324669460020AFF3E4
:100E50000080070008BF00F030FF0098A04218BFD4
:100E60000546C419FFF7C0FF05600746F01D20F0D6
:100E700007004619284600F00AF8B44208BFF8BD3A
:100E8000A21B31463868BDE8F84000F0A5BA002141
:100E90000160C0E9011070471020704710B5FFF7DE
:100EA000ABFF006810BD10B50446FFF7A5FF046056
:100EB00010BD09684A0501D540B27047C905FCD587
:100EC00000B2704709684A0501D5C0B27047C9052C
:100ED000FCD580B270472DE9F0470D469946924601
:100EE000044600F124080168880604D5E06921F071
:100EF0001001216000E00120A84201DD471B00E055
:100F00000027A1697A1902EB0900081AA06120786C
:100F1000C00602D42046FFF7E1FB002608E0D4E932
:100F200001211AF806009047206A401C761C2062B6
:100F30004E45F4DB2078C0060AD52046FFF7CEFBED
:100F400006E0D4E9012130209047206A401C20624D
:100F5000381EA7F10107F4DC07E0D4E9012118F8F5
:100F600005009047206A401C2062281EA5F101055B
:100F7000F3DC2046FFF7C8FB2078000602D50220EC
:100F8000BDE8F0870120FBE711680268006A53059D
:100F900001D508700AE0D30501D5088006E01306E4
:100FA00003D5C217C1E9000200E0086001207047C4
:100FB00001694A1C02610878704700B58FB0CDE91D
:100FC00001310021059105497944CDE9031011460D
:100FD0006846FFF70FFC0FB000BD0000E5FFFFFF04
:100FE0000A6802F8010B0A607047D1E900239A42AF
:100FF00002D2531C0B601070704710B5436913B1D7
:10100000AFF3008001E0FFF790FB012010BD1278E4
:1010100000F124010A7000224A700122EDE71168F4
:101020004FF0FF32E9E700002DE9FF5F15468A46E1
:101030000446DFF8AC80F8440027D8E900103E46AB
:10104000CDE9001010E03AF816106A4602A800F048
:1010500014FE411C07D02178890603D5E2693918AE
:1010600091420DD80744761C2078800602D5E069AD
:10107000B84205DDAE42E6DB3AF816000028E2D1C0
:10108000A069C01BA0612046FFF728FBD8E900102B
:10109000CDE90010002017E03AF818106A4602A8BF
:1010A00000F0EBFDB0F1FF3F81460BD000250DF1C4
:1010B000080B05E0D4E901211BF8050090476D1CE1
:1010C0004D45F7D308F10100B0428046E4DB206AC9
:1010D000384420622046FFF717FBBDE8FF9F000061
:1010E0007E4504002DE9F0418046D21D22F0070222
:1010F0000025D2E90002F52915A614D0011E72F1CF
:10110000000106DA0023D0EB030063EB020211A614
:1011100008E0D8F800108B0701D50FA602E04907B8
:1011200001D50EA601251146002408F1240704E08C
:1011300000F06CF930323A55641C50EA0102F7D1E4
:101140002B46324621464046BDE8F041FFF7C3BE7C
:10115000000000002D0000002B0000002000000017
:1011600030B4002100F1240408E002F00705D208A1
:10117000303542EA4372DB086554491C52EA0305E4
:10118000F3D10468002310A2250707D5A40600D4D4
:1011900021B1C46901230DA2641EC46130BCFFF7F4
:1011A0009ABE10B5044621461068FFF78BFE024632
:1011B0002046BDE810400023D2E7D21D22F00701EF
:1011C000D1E90023CCE7000000000000300000005F
:1011D000F0B40D460188090502D5214C7C4402E09B
:1011E0001F4C7C440E34002100F1240608E002F07C
:1011F0000F071209E75D42EA03721B097754491C85
:1012000052EA0307F3D102780023120704D5702DA8
:1012100006D009B1022311342246F0BCFFF75BBEB1
:1012200001231034F8E770B504460D4621461068D6
:10123000FFF748FE024629462046BDE870400023DD
:10124000C6E7D21D22F00703D3E90023C0E70368F5
:10125000126843F0200303600823C3610023B7E74B
:10126000E04304002DE9F04791460F4680460446CE
:10127000002614F8015B2DB1FFF7F2F80068405D1D
:10128000C007F6D12B2D02D02D2D18D0641E4A4652
:101290003946204600F0A2FC27B13968A14201D1AD
:1012A000C7F800804FF0020471050BD540420028BA
:1012B00003DDFFF7A1FD0460A007BDE8F08746F459
:1012C0008066E4E70028F8DAFFF796FD04606FF027
:1012D0000040F2E72DE9F04115460E46040002D128
:1012E0002C6804B90BA4204600F0FEFC04442078CE
:1012F00070B127463146384600F0E6FC04442078B9
:1013000010B1002004F8010B38462C60BDE8F081D4
:101310000027F9E70000000070B50C4601680020C6
:101320004A1C3ED03C22B1FBF2F302FB1313B1FB8B
:10133000F2F12360B1FBF2F302FB1313B1FBF2F104
:1013400018226360B1FBF2F302FB1313B1FBF2F15D
:1013500046F2E0320A440721A360B2FBF1F301FB3D
:10136000132140F2B553B2FBF3F5A161B2FBF3F1E7
:1013700003FB15228900B2F5B77F08D39B10521EDC
:10138000B2FBF3F52944B2FBF3F503FB15220F4B37
:10139000E261616189077B440CD03B2A0AD3521C6D
:1013A00008E02C212046FFF782FC0120E0600AE0E3
:1013B000521A401C195C9142FAD9521CC4E903200C
:1013C0004FF0FF302062204670BD00007C420400D8
:1013D00000487047A8440120034640688C46002816
:1013E00018BF88423CBF03464068F8D318681844C9
:1013F000884207D00CF1030020F00700001D411ABD
:10140000521A0146081D0A60FFF761B830B5B0F105
:101410000A024FEA900E71F100034EEA817EB0EBB2
:101420000E0061EB91014FEA101E4EEA017E10EBB7
:101430000E0041EB11114FEA102E4EEA016E10EB37
:101440000E0041EB11214FEA104E4EEA014E10EB17
:101450000E0041EB1141401841F100014FEAD0006C
:1014600040EA41704FEAD10110EB80054FEA810458
:1014700044EA907444EB01046D1944EB0404521BDC
:10148000A3414FF0000348BF0A3200D530BD401CD5
:1014900041F1000130BD70472DE9FF4F0C461E465B
:1014A0004FF0FF378BB0D2E90001DDF860800A9081
:1014B0008A46C1F30A5505B93D46002108464FF05A
:1014C0000000BAF1000F00F4400005DA00EB8000E4
:1014D0004FF4400101EA50004FEA9059B9F1010F71
:1014E00000DDB9460A9850EA4A000ED044F6105082
:1014F000A5F2FF3545432F14B8F1000F1ED07542F9
:10150000291E1EDDC9F100021CE0B8F1010F4FF0E9
:10151000000001D0302103E0F24305E02154401CDB
:10152000B042FBDB30460022002121540B99C1F868
:101530000880C1E900200FB0BDE8F08FBD1B6D1C15
:10154000DEE74A4600DA694206A800F04FFC06AB27
:1015500093E8070003AB83E8070050460A9900F0C0
:1015600006FD8DE80700A0F500501F380090039895
:10157000002D0ADD42F21F014A460844002303A958
:101580000390684600F06FFF09E0A0F500504A465E
:101590001F38002303A90390684600F079FF8DE807
:1015A00007000004000C03D04FF0FF30410800E0BA
:1015B0001046B8F1000F03D00022009215461EE03D
:1015C000751E05D4FFF722FF303262556D1EF9D526
:1015D000B3460122084302D000227F1C04E0207899
:1015E000302801D100227F1E002A099784D01DE0F7
:1015F000112D07DAFFF70AFF303262556D1C50EAF1
:101600000102F5D1084302D00098C8B10EE00021D4
:10161000681E05E0235C625C63542254401E491C32
:101620008142F7DBAB46A81B401E0990002004F85E
:101630000B000B98099AC0F80880C0E9002B7AE7E4
:1016400011264FF0000857E72DE9F04F8846044671
:10165000D21D22F0070191B0D1E90001CDE90A01C4
:101660000DF063FD02460B98C00F01D02D2007E05E
:101670002068810701D52B2002E0202101EAC0006B
:10168000032A099001D0072A05DB0346414620467C
:1016900000F05EFB0BE12078800601D5E06900E0F8
:1016A0000620B8F1650F814606D0B8F1660F18D054
:1016B000B8F1670F70D131E00020B9F1110F00903F
:1016C00001DB112301E009F101030AAA01A90CA819
:1016D000FFF7E2FEDDE90C70002609F10105834603
:1016E00047E001204B4600904FF000470AAA01A9AD
:1016F0000CA8FFF7D1FEDDE90DB00C995D46002680
:1017000010B909F101000D18B9EB050003D4C0F1BF
:10171000FF3609F10105A5EB09002BE0B9F1010F36
:1017200001DA4FF001090020B9F1110F009048468D
:1017300001DD112300E003460AAA01A90CA8FFF766
:10174000ABFEDDE90C704D4600268346207800078D
:101750000AD4AB4500DA5D4601A8012D04DD41192C
:1017600011F8011C302907D04F4502DA17F1040F98
:1017700004DA012082460FE06D1EEEE7002F02DC46
:10178000ED1B3E4403E0781CA84200DD7D1CB81B25
:1017900000F1010A4FF000472078000703D4AA4562
:1017A00001DB4FF0FF3A0021B7F1004F0DF1430884
:1017B0008DF8431024D002202B23002F01DA7F4222
:1017C0002D230A21021EA0F1010000DC5FB197FB6E
:1017D000F1FC97FBF1F201FB1C7C17460CF1300C7D
:1017E00008F801CDEEE7A8F1010003702188090592
:1017F00001D5452100E06521A0F1010800F8011C98
:1018000009980FA9A1EB0807FF1D00B1012041199C
:1018100001EBEA70A1693844081A401EA0612078E3
:10182000C00602D42046FEF759FF099828B1D4E932
:1018300001219047206A401C20622078C00622D5F2
:101840002046FEF74BFF1EE0002E04DBB34502DD11
:1018500001A8805D00E03020D4E901219047206A92
:10186000401C2062761CAAF101005FEA000A0AD13E
:10187000FFF7BEFAC0680168405CD4E901219047D7
:10188000206A401C2062281EA5F10105DCDC07E06F
:10189000D4E9012118F8010B9047206A401C20620E
:1018A000381EA7F10107F3DC2046FEF72DFF0320C9
:1018B00011B041E62DE9F04F04460D46D21D22F04D
:1018C000070089B0D0E90097484639460DF02DFC55
:1018D0000246F80F01D02D2307E02068810701D5CB
:1018E0002B2302E0202101EAC0038DF820300BB148
:1018F000012000E00020032A824601D0072A04DBF1
:101900002946204600F024FA3FE12078800601D4E1
:101910000D2500E0E569C7F30A560D2D49DA0021CF
:101920004FEA175B08464FF00000002F00F440001C
:1019300007DA00EB80004FF4400100EBD07001EAC1
:1019400060008115012901DD4FF0FF3100224FEACF
:10195000850CBCF1180F06D31346ACF118004FF0FC
:101960008052C24003E04FF4801323FA0CF30CF1D1
:101970000C0CBCF1200F04D3ACF1200C09FA0CF0D4
:1019800001E007FA0CF000294FF0004801DD18B91A
:101990000FE00ED140450CD319EB02095F4121B98C
:1019A000404502D19F4329EA0209BBEB175F00D0F3
:1019B000761C2088000502D57B48784402E07A48EE
:1019C0007844193808AA302302F80A30037C0AF157
:1019D0000101002E0AF1020A53546A4602DC4FF05C
:1019E000300101E04FF031014FF001088DF8001097
:1019F00002D0A6F2FF3603E059EA470100D06B4E51
:101A0000002D02DC2178090704D54FF002082E21B1
:101A10008DF80110C44600210BE0C7F303433F01DA
:101A2000C35C491C6D1E02F80830052908F1010845
:101A300001DA002DF1DC00210CE000EB1973491CE8
:101A40001B786D1E082902F808304FEA091908F1C1
:101A5000010801DA002DF0DC21688B0602D516E0C2
:101A6000A8F10108E04505DD02EB080313F8013C8D
:101A7000302BF5D0B8F1000F09DD02EB080313F8A5
:101A8000013C2E2B03D1090701D4A8F10108002D38
:101A900005DD3E2102F808106D1E08F10108407CAA
:101AA000002E02F8080008F1010804DA2D20764221
:101AB00002F8080002E02B2002F808000A214FF487
:101AC0007A70864208F101080BDB96FBF0F33033A5
:101AD00002F8083096FBF0F308F1010800FB1366EA
:101AE00001E0642E0CDB642096FBF0F3303302F847
:101AF000083096FBF0F308F1010800FB136601E0E3
:101B00000A2E06DB96FBF1F0303002F8080008F1EF
:101B1000010896FBF1F001FB1060303002F808007C
:101B2000A16908F1010808EB050202EB0A00081A96
:101B3000A0612078C00602D42046FEF7CFFD216ABE
:101B400008AE01EB0A00206204E0D4E9012116F896
:101B5000010B9047BAF1010AF7D22078C00602D5EE
:101B60002046FEF7BBFD6E4609E016F8010B3E2845
:101B70000FD0D4E901219047206A401C2062B8F1BF
:101B80000108F2D22046FEF7BFFD09B00320BDE8F0
:101B9000F08F206A2844206203E0D4E9012130203C
:101BA00090476D1EEBD3F8E7453C040002FCFFFFB5
:101BB00010B5436913B1AFF3008001E0FFF734FAC9
:101BC000012010BD128800F1240182840022C28409
:101BD0000122EDE711684FF0FF32E9E72DE9F05FF0
:101BE000824615468B4600270AF10104B946007863
:101BF000302801D09DB113E014F8010B012778289B
:101C000003D0582801D045B10AE00DB1102D07D1FD
:101C1000002714F8010B102502E0082500E00A2532
:101C20000026B0460EE005FB080005FB06F1012783
:101C30001FFA80F801EB1046B6F5803F00D3B94695
:101C400014F8010B294600F0C3F80028EBDABBF1C9
:101C5000000F05D00FB1641E00E05446CBF80040E1
:101C6000B9F1000F06D0FFF7C7F802210160C81EC6
:101C7000BDE8F09F48EA0640FAE770B516460C4604
:101C80000546FEF7EDFB036893F80101012806D035
:101C9000FF2C0FD8185D68B101202C7070BDD3F8EF
:101CA00007013246214603F2071303442846BDE8E4
:101CB000704018474FF0FF3070BD10B500F016F9B6
:101CC000BDE8104000F00DB930B503461D781DB1D8
:101CD0000A4603E0AC4201D1181A30BD12F8014B9C
:101CE000002CF7D15B1CF1E730B503461D783DB100
:101CF0000A4612F8014B1CB1AC42FAD15B1CF5E765
:101D0000181A30BD7546FFF763FBAE4605006946FD
:101D1000534620F00700854618B020B5FEF78CFB2F
:101D2000BDE820404FF000064FF000074FF00008DC
:101D30004FF0000B21F00701AC46ACE8C009ACE85D
:101D4000C009ACE8C009ACE8C0098D467047000086
:101D50002DE9F0411F46044603260168072A01F4D5
:101D6000006004DB08B116A505E016A503E008B184
:101D700015A500E015A521F010002060A069C01E87
:101D8000A0610FB1401EA0612046FEF7A7FC4FB135
:101D9000D4E9012138469047206A401C2062C01CCB
:101DA000206206E0206AFAE7D4E9012115F8010B68
:101DB0009047761EF8D22046FEF7A6FCBDE8F081DB
:101DC0004E414E006E616E00494E4600696E6600DF
:101DD0003A2800D2303820F02002412A01D3A2F163
:101DE0003700884201D34FF0FF3070472DE9F047AC
:101DF000814616468AB0354878440DC88DE80D00F6
:101E000032487844801C03AC0DC884E80D0041F6CC
:101E10009B300844372190FBF1F290FBF1F5A5F1DE
:101E2000800501FB12041B3C02D56442012000E046
:101E30000020DFF898A080460027FA44AAF1BE0AE5
:101E40000EE0E0070AD03246684607EB470101235F
:101E50000AEB810100F01CFB8DE8070064107F1C79
:101E6000002CEED1194F7F44AE3F19E0E80715D0A2
:101E700007EB04100DF1180A90E80E008AE80E0036
:101E8000C068F04201D1981908903246012306A992
:101E900003A800F0FDFA03AB83E807006D10641C93
:101EA000002DE3D14FF0010332466946B8F1000F2F
:101EB00003A802D000F0D7FA01E000F0E9FAC9E97E
:101EC0000001C9F808200AB0BDE8F087A438040072
:101ED00010B50446AFF300802046BDE81040FEF781
:101EE00018BA002801D00EF03AB8704710B5012892
:101EF00005D0002103A000F021F8012010BD09A1A8
:101F0000F8E7000053494752544D454D3A204F756C
:101F100074206F662068656170206D656D6F7279E1
:101F2000000000003A2048656170206D656D6F7299
:101F30007920636F727275707465640070B50546C0
:101F40000C460A2000E06D1C0EF00AF835B1287826
:101F50000028F8D102E0641C0EF002F814B12078D9
:101F60000028F8D1BDE870400A200DF0F9BF5FEA03
:101F7000400C08BF91F0000F4FEA8C234FEAC122BA
:101F800043EA51514FEA1C5018BF00F5F0404FEAA8
:101F9000300018BF41F000415FEA6C5C00F029801E
:101FA000BCF1FF3F08BF40F080407047130C06BFF4
:101FB00012044FF0100C4FF0000C130E04BF12026D
:101FC0000CF1080C130F04BF12010CF1040C930F59
:101FD00004BF92000CF1020CD30F04BF52000CF1AD
:101FE000010C11464FF00002A0F11F00A0EB0C0005
:101FF000704711F0004F08BF704731F000413FF4C7
:10200000D5AF0B0C06BF09044FF0100C4FF0000CBD
:102010000B0E04BF09020CF1080C0B0F04BF0901E1
:102020000CF1040C8B0F04BF89000CF1020CCB0FD8
:1020300004BF49000CF1010CCCF12003A0EB0C0013
:1020400022FA03F302FA0CF241EA030100F1010063
:10205000704720F07F4C80EA030023F07F47ACEB11
:10206000070303F57C5300F0004003F1FF032DE963
:1020700080494FEA154B09B44FEA144325EA0B4E49
:1020800024EA03480FF2042606EB132749083E789A
:102090005FEA320203FB0667C7F5000707FB06F697
:1020A0004FEA54374FEAD64606F1020607FB066CA4
:1020B000CCF1005C4FEA1C472CEA074C07FB06F406
:1020C0000CFB06F504EB15464FEA961634BF0020CC
:1020D0004FF000404FEAD13706FB07FC4FEA1C4C9B
:1020E0000CFB0BF7D21B03FB0CF761EB07010CFB9E
:1020F0000EF7B0EB074072EB17420CFB08F734BF4A
:10210000A2EB0742B2EB074261EB17414FEA0C44E6
:102110004FEA910706FB07FC4FEA1C4C0CFB0BF740
:10212000B0EBC74072EB573203FB0CF734BFA2EBA6
:10213000C742B2EBC74261EB57310CFB0EF7B0EB75
:10214000C70072EB57720CFB08F734BFA2EBC70253
:10215000B2EBC70261EB5771039F4FEA816141EA1D
:10216000921104EBCC044FEAD1374FEA826206FBAE
:1021700007FC42EA90124FEA80604FEA1C4C0CFBCD
:102180000BF7D21B03FB0CF761EB07010CFB0EF7FF
:10219000B0EB074072EB17420CFB08F734BFA2EB21
:1021A0000742B2EB074261EB17414FEA8C554FEA09
:1021B000910704EB9C2406FB07FC4FEA1C4C0CFB2C
:1021C0000BF7B0EBC74072EB573203FB0CF734BF91
:1021D000A2EBC742B2EBC74261EB57310CFB0EF7E3
:1021E000B0EBC70072EB57720CFB08F734BFA2EBE1
:1021F000C702B2EBC70261EB577115EB4C254FEAF2
:10220000816141EA92114FEA82624FEAD13742EA94
:10221000901206FB07FC44F100044FEA80604FEA8D
:102220001C4C0CFB0BF7D21B03FB0CF761EB0701FB
:102230000CFB0EF7B0EB074072EB17420CFB08F7F4
:1022400034BFA2EB0742B2EB074261EB174115EB3B
:102250001C154FEA813141EA92414FEA823242EA4B
:1022600090424FEA80304FEA0C7644F1000448EA8D
:1022700003434EEA0B484FF0000EB2EB080C71EB33
:10228000030724BF624639464EEB0E0E4FF0000B9B
:102290000018524149414BEB0B0BB2EB080C71EBB0
:1022A00003077BF1000B24BF624639464EEB0E0E4E
:1022B0004FF0000B0018524149414BEB0B0BB2EBB6
:1022C000080C71EB03077BF1000B24BF6246394613
:1022D0004EEB0E0E51EA020718BF46F0010616EB50
:1022E0000E7655F1000254F1000103D5BDE88901D5
:1022F000BDE80088BDE88901BDE80048B619524133
:1023000041EB0101A3F10103704780807F7E7D7C5A
:102310007B7A7978777676757473727171706F6E77
:102320006E6D6C6C6B6A6A69686867666665646422
:10233000636362616160605F5F5E5E5D5D5C5C5BAC
:102340005B5A5A595958585757565655555554541B
:10235000535352525251515050504F4F4F4E4E4D79
:102360004D4D4C4C4C4B4B4B4A4A4A4949494848C5
:102370004847474747464646454545444444444305
:1023800043434342424242414141002B9C4630D4A8
:1023900077002BD01CB54FEA370703B44FF010007D
:1023A0004FF01001BAF1000F06D0BCF1000FDCBFF6
:1023B00040F0080040F008014FF000000FBCBDE8FD
:1023C00010400BF1010BBBF1010F08BF5FEA1707CB
:1023D00022BF12F1010211F101014FF0004143F15E
:1023E000000300F0004043EA00007047F9D35708AB
:1023F000D0E746EA064613F1400F4FEA16461FDDC6
:1024000013F1200FDFBF16430A46002120335B4241
:10241000BED0C3F1200746EA064602FA07F74FEAA4
:10242000164646EA0706C3F1200722FA03F201FA2C
:1024300007F721FA03F14FF0000342EA0702A7E78A
:1024400046EA020646EA06464FEA164646EA01060C
:10245000BCBF46EA0646360C4FF000034FF00002C0
:102460004FF0000194E72DE9804C9A46934670B4F2
:1024700091E8380007C831EA400C48BF34EA430C01
:1024800003D5FFF7E6FDFFF780FFF0BCBDE8008C49
:102490002DE9804C9A46934670B491E8380007C8FD
:1024A00010F0804F08BF13F0804F03D100F005F803
:1024B000FFF76BFFF0BCBDE8008C20F07F4780EA9F
:1024C000030023F07F4C07EB0C03A3F57C5300F0D3
:1024D0000040A3F1FE0392F0000F00F0B38095F0EE
:1024E000000F00F077802DE901494FEA11404FEAD3
:1024F000144621EA004800FB06FC24EA064708FBD4
:1025000006F607FB08F800FB07F718EB06484CEB4C
:10251000164C4FEA124B18EB07484FEA15464CEBA6
:10252000174022EA0B4E0BFB06FC25EA06470EFB82
:1025300006F607FB0EFE0BFB07F71EEB064E4CEBF9
:10254000164C4FF000061EEB074E4CEB174B18EBEA
:102550000B0840F1000018EB0E0B58EB000840F19F
:1025600000008F1A4FF000013CBFC943661B14BF27
:10257000B5EB040C00213CBFC943F61B4FEA1744DE
:102580004EEA8E0E27EA04454FEA1C4704FB076219
:102590002CEA074C05FB07F70CFB05F604FB0CFCCB
:1025A00016EB074642EB174216EB0C4642EB1C4279
:1025B0001BEB060658EB0202414146EA9E0601D596
:1025C000BDE80189B619524141EB0101A3F10103B4
:1025D000BDE801894FEA14454FEA114724EA054650
:1025E00021EA074C05FB07F406FB07F70CFB06F195
:1025F00005FB0CFC11EB074144EB17444FEA124773
:1026000011EB0C4144EB1C4422EA074C05FB07F29A
:1026100006FB07F70CFB06F605FB0CFC16EB074662
:1026200042EB174216EB0C4642EB1C456A1854F17C
:10263000000148BF7047B619524141EB0101A3F1B7
:102640000103704795F0000F37D04FEA11424FEA6F
:10265000144721EA024624EA074C02FB07F106FB75
:1026600007F70CFB06F402FB0CFC14EB074441EBF0
:1026700017414FEA154714EB0C4441EB1C4125EA86
:10268000074C02FB07F506FB07F70CFB06F602FBFF
:102690000CFC16EB074645EB174516EB0C4645EBD5
:1026A0001C42121951F1000148BF7047B61952413E
:1026B00041EB0101A3F1010370474FEA14454FEAD2
:1026C000114724EA054621EA074C05FB07F106FB02
:1026D00007F70CFB06F24FF0000605FB0CFC12EBB3
:1026E000074241EB174112EB0C4251EB1C4148BF32
:1026F0007047921841EB0101A3F1010370470000FC
:102700007FB5002015F02AFE039003A804F046F8D8
:1027100001680091416801913B4D0089ADF80800C6
:10272000A88B012460B19DF80420C0B204FA02F124
:10273000EA6F114201D0012100E0002107F0A4FE60
:10274000E88B68B19DF80420C0B204FA02F1D5F814
:102750008020114201D0012100E0002107F094FE09
:10276000288C68B19DF80420C0B204FA02F1D5F8B3
:102770008420114201D0012100E0002107F084FEF5
:10278000A88B03F08DFC214E042839D0A88B03F0D0
:1027900087FC052834D0A88B03F082FC06282FD0B4
:1027A000E88B03F07DFC04282AD0E88B03F078FC4A
:1027B000052825D0E88B03F073FC062820D0288C50
:1027C00003F06EFC04281BD0288C03F069FC05285C
:1027D00016D0288C03F064FC062811D0A88B03F0D7
:1027E0005FFC02280ED0E88B03F05AFC022809D0C7
:1027F000288C03F055FC022804D0002070817FBD96
:102800000320FBE774817FBDB859002034630020AA
:102810002DE9F047002015F0A1FD4C4C4C4F4D4DDB
:10282000217902263A464FF001084FF0000921B104
:10283000012912D0022955D13FE003F03FFCD8B363
:10284000D0E9001280683960C7E90120000F02D08A
:1028500084F8048046E0267144E05168411AB5F8D6
:10286000FC00C0EB0010B1EB800F3BD93A48018867
:1028700089060BD50088400608D595F8300001215F
:1028800007F002FE95F83200012107E095F83000CC
:10289000002107F0F9FD95F83200002107F0F4FD62
:1028A00003F00CFC40B181680A0F1BD1D0E9002075
:1028B0003A60C7E90101CEE714E05168411AB5F862
:1028C000FC00C0EB0010B1EB800F0BD995F8300085
:1028D000002107F0D9FD95F83200002107F0D4FD62
:1028E00084F80490288E03F0DBFB1C4C042826D0CF
:1028F000288E03F0D5FB052821D0288E03F0D0FBCD
:1029000006281CD0288E03F0CBFB042817D0288E75
:1029100003F0C6FB052812D0288E03F0C1FB062861
:102920000DD0288E03F0BCFB02280BD0688E03F07C
:10293000B7FB022806D0A4F80890BDE8F087032072
:102940002081FAE7A4F80880F7E7000004000020DF
:10295000A4480020B85900205A0100203463002008
:1029600011498A8EC98E824202D081420BD1114612
:102970000E4A13885B0702D413881B0705D5C9B21A
:10298000C0B200220EE00020704713889B0703D5D9
:10299000C9B2C0B2022205E01288D207EFD0C9B294
:1029A000C0B2012207F00EBCB85900205A01002025
:1029B0002DE9F041002015F0D1FC294E0127294DC9
:1029C000717903244FF0000859B101290CD0032973
:1029D0001BD086F80580A88E03F062FB224E68BBF0
:1029E00028E070627771F6E7716A421AB5F81C1137
:1029F000C1EB0111B2EB810F01D974710FE0A88E08
:102A00000121FFF7ADFFE98E10E0716A421AB5F8B7
:102A10001C11C1EB0111B2EB810F02D97771706209
:102A2000D9E7E88E0121FFF79BFFA98E8842D2D11A
:102A30007471D0E7A88E03F033FB10B13480BDE889
:102A4000F081A88E03F02CFB022807D0E88E03F05B
:102A500027FB022802D0A6F80080F0E73780EEE7D7
:102A600004000020B859002034630020094A138D67
:102A7000528D834202D0824206D11A460029D1B239
:102A8000C0B203D0012202E000207047002207F00C
:102A900099BB0000B85900202DE9F047002015F03F
:102AA0005DFC04465648012703268178554D4FF0BA
:102AB0000009052971D2DFE801F0030B223A570023
:102AC0008461C4618770288D0121FFF7CFFF66E024
:102AD00080468069211AB5F8BC00C0EB0010B1EB4C
:102AE000800F288D06D90021FFF7C0FF0221C8F80A
:102AF00018402DE00121FFF7B9FF698D2FE08169B2
:102B0000621AB5F8BE10C1EB0111B2EB810F46D9C4
:102B10008461C169621AB5F8C010C1EB0111B2EB52
:102B2000810F02D98670C46139E0877037E0804632
:102B30008069211AB5F8BC00C0EB0010B1EB800F22
:102B4000688D08D90021FFF791FF0421C8F81840CB
:102B500088F8021023E00121FFF788FF298D8842C1
:102B60001DD188F802601AE08169621AB5F8BE10BA
:102B7000C1EB0111B2EB810F11D9C169621AB5F82D
:102B8000C010C1EB0111B2EB810F02D98770C46193
:102B900000E08670846102E0FFE780F80290288DF3
:102BA00003F07EFA184C042826D0288D03F078FA1A
:102BB000052821D0288D03F073FA06281CD0688DD3
:102BC00003F06EFA042817D0688D03F069FA05281F
:102BD00012D0688D03F064FA06280DD0288D03F01A
:102BE0005FFA02280AD0688D03F05AFA022805D04D
:102BF000A4F80490BDE8F087A680FBE7A780F9E77A
:102C000004000020B85900203463002005480088E3
:102C100001060548C08CC0B201D5012100E00021A9
:102C200007F032BC5A010020B8590020114A30B4D4
:102C3000538C928C834202D0824209D11A460E4BA9
:102C40001C88240708D539B1D1B2C0B202220EE0E7
:102C500030BC4FF0FF3070471B885B0704D519B1BB
:102C6000D1B2C0B2012202E0D1B2C0B2002230BC67
:102C700007F0A8BAB85900205A0100202DE9FE43F8
:102C8000002015F06BFB704D0446012728786F4E2D
:102C90004FF003084FF00009052873D2DFE800F079
:102CA000030B263D58002C616C612F70708C012144
:102CB000FFF7BCFF68E02869211AB6F89C00C0EB5A
:102CC0000010B1EB800F07D996F82200002107F021
:102CD000DBFB02202C6130E0708C0121FFF7A6FFA6
:102CE000B18C884250D185F800804DE02869211AC6
:102CF000B6F89E00C0EB0010B1EB800F44D92C61F8
:102D00006869211AB6F8A000C0EB0010B1EB800F83
:102D10001CD985F800806C6136E02869211AB6F864
:102D20009C00C0EB0010B1EB800F08D996F824008E
:102D3000002107F0A9FB04202C61287024E0B08C4E
:102D40000121FFF773FF718C88421DD12F701BE0AA
:102D50002869211AB6F89E00C0EB0010B1EB800F75
:102D600012D96869211AB6F8A000C0EB0010B1EBC7
:102D7000800F03D92F706C6102E003E085F80080BA
:102D80002C6101E085F80090708C03F089F902282D
:102D90004CD0B08C03F084F9022847D00020697829
:102DA000884241D0708C03F07BF9022840D0B08C6F
:102DB00003F076F902283BD000206870708C03F095
:102DC0006FF9234C042835D0708C03F069F905287D
:102DD00030D0708C03F064F906282BD0B08C03F04F
:102DE0005FF9042826D0B08C03F05AF9052821D0C9
:102DF000B08C03F055F906281CD0708C03F050F904
:102E000002281AD0B08C03F04BF9022815D0A4F890
:102E10000290029820F070400290002015F09EFA77
:102E20000190684600F00AFBBDE8FE830120B6E78A
:102E30000120C2E7A4F80280EBE76780029820F047
:102E4000704000F18050E7E704000020B8590020EE
:102E5000346300200B4A938DD28D834202D082428C
:102E600009D11A46084B1B88DB0606D529B1D1B219
:102E7000C0B2012204E000207047D1B2C0B20022EB
:102E800007F0A0B9B85900205A0100202DE9F041FF
:102E9000002015F063FA354E0327354DF1780124F3
:102EA0004FF0000891B3012933D0032945D086F8AB
:102EB0000380A88D03F0F4F82E4E042852D0A88D7C
:102EC00003F0EEF805284DD0A88D03F0E9F80628A8
:102ED00048D0E88D03F0E4F8042843D0E88D03F0EF
:102EE000DFF805283ED0E88D03F0DAF8062839D05F
:102EF000A88D03F0D5F8022836D0E88D03F0D0F87D
:102F0000022831D0A6F80680BDE8F081FFE73062E4
:102F100026E0316A421AB5F8DC10C1EB0111B2EBC0
:102F2000810F01D9F77012E0A88D0121FFF792FF00
:102F3000E98D8842BDD1F770BBE7316A421AB5F816
:102F4000DC10C1EB0111B2EB810F02D9F4703062D9
:102F5000AFE7E88D0121FFF77DFFA98D8842A8D159
:102F6000F470A6E7F780CFE7F480CDE704000020F7
:102F7000B85900203463002000F020B8002981688F
:102F800002D041F0010101E021F0010181607047B0
:102F9000084B10B5D3F8042307490A40D0E90014C0
:102FA0002143D0E90240044321431143C3F80413F1
:102FB00010BD000000200140E030FCFF70B58CB077
:102FC0000121072007F0D8FA4FF4E06601213046CE
:102FD00007F00EFB7820002406908DF81F40032593
:102FE0008DF81C5006A9494802F0BAFA8DF81F4026
:102FF00006958DF81C5006A9454802F0B1FA092043
:1030000006908DF81F408DF81C5006A9414802F02B
:10301000A7FA0121280207F0F7FA0021304607F04D
:10302000F3FA162008904FF470600B904FF4804034
:103030000A902804099008A8FFF7AAFF012000942D
:103040000294039404948DF80400334C8DF8050029
:103050008DF814506946204600F07CF807230122C1
:103060000321204600F0ACF8072302220421204669
:1030700000F0A6F8072303220521204600F0A0F85F
:10308000264D6946284600F065F8072301220621EF
:10309000284600F095F8072302220821284600F070
:1030A0008FF8072303220921284600F089F81C4ED7
:1030B0006946304600F04EF8072301220A213046C7
:1030C00000F07EF8072302220D21304600F078F848
:1030D000072303220D21304600F072F8012000F092
:1030E0005FF80121204600F01DF801212046FFF77E
:1030F00045FF01212846FFF741FF01213046FFF738
:103100003DFF204600F096F80CB070BD0000024074
:10311000000402400008024000200140002101405C
:10312000002201400029816802D041F4807101E051
:1031300021F480718160704740F6E441484300EE1D
:10314000100A9FED031AF8EE400A80EE810A7047DC
:1031500000F07F4530B542680F4B0C791A400B6880
:1031600042EA04221343436082680C4B4D791A40B3
:10317000D1E9034323438C6844EA450423431343C2
:103180008360C26A097D22F47002491EC9B242EA14
:103190000151C16230BD0000FFFEFFFCFDF7FFC022
:1031A00006490028D1F8040302D040F4005001E0A1
:1031B00020F40050C1F804037047000000200140D3
:1031C00070B5072609290AD9C568A1F10A0404EBDC
:1031D0004404A640B543A3401D43C56007E005690C
:1031E00001EB4104A640B543A3401D4305611F23E5
:1031F000072A09D2446B521E02EB820293409C4381
:1032000091400C43446370BD0D2A09D2046BD21F58
:1032100002EB820293409C4391400C43046370BDD7
:10322000C46A0D3A02EB820293409C4391400C43E6
:10323000C46270BD816841F08041816070470000C8
:103240000FB42DE9F047234F82460026B878904608
:103250008946A7F11405012808D0022829D00120A9
:10326000B8700020BDE8F0075DF814FB0B9888B13A
:103270004FF48060FDF7FCF8041EF3D00CAA0B9904
:10328000FDF7E8F9234642464946504609F026FF35
:1032900010B108E00024F5E70220B870B5F900008D
:1032A000002800DA2E80002CDBD02046FDF70FF935
:1032B000D7E7B5F90000411C05D0C11C03D0801C24
:1032C000CFD10220CEE7104600F006F80428C9D17D
:1032D0002E80C6E7A801002070B5054639A13A48FE
:1032E000FDF778FB04006AD038A1FDF733FD002814
:1032F0004BD037A12046FDF72DFD002847D04DB11A
:103300002846FDF7C9FB024629462046FDF7E3FBA8
:1033100000283ED00A2230A12046FDF7DCFB002821
:1033200039D00A222FA12046FDF7D5FB002834D042
:1033300006222FA12046FDF7CEFB00282FD02EA17C
:103340002046FDF707FD60B32FA12046FDF702FDE3
:1033500048B307222AA12046FDF7BDFB28B32EA1C2
:103360002046FDF7F7FC10B32DA12046FDF7F2FC37
:10337000F8B12EA12046FDF7EDFCE0B12CA12046CE
:10338000FDF7E8FCC8B1032070BD062070BD072022
:1033900070BD052070BD082070BD092070BD1320D0
:1033A00070BD0F2070BD102070BD0A2070BD1120AF
:1033B00070BD122070BD0C2070BD0D2070BD0420AA
:1033C00070BD00000D0A0000E06400204F4B0000BB
:1033D0004552524F520000002B434D45204552525A
:1033E0004F5200002B434D53204552524F52000084
:1033F00053544154453A0000414C524541445920F0
:10340000434F4E4E45435400434F4E4E4543542088
:103410004641494C0000000053485554204F4B0092
:10342000434C4F5345204F4B00000000524459007D
:1034300043616C6C205265616479000030B5164DB3
:1034400000230360A968B9B91449D0E90140CB60F1
:10345000C1E9044001F10C041831C5E90241022020
:1034600000EB400204EB82020A60401C11463C283B
:10347000F6D3136030BD11460A68002AFBD1EA6812
:10348000002AF7D00A60EA681268EA6009680DC885
:1034900081E80D0030BD000004000020A448002099
:1034A00010B50D4C092300210C48226805F0F6FEEA
:1034B0000C2300210A48626805F0F0FE0B2300216E
:1034C0000848A26805F0EAFEE2680A23BDE8104059
:1034D0000021054805F0E2BE00960108C1DB0008A6
:1034E000ADDD0008D5E0000829E0000810B50AF0BD
:1034F000A9FA01F0D9FE00F0E3F84FF4407005F0AE
:103500006DF804F0FBF800F097FCBDE81040FFF701
:1035100033BDFEE710B5074C07E011F8013B43400F
:10352000DBB234F8133083EA1020521ED2B2F4D248
:1035300010BD000040A5010813B5012201A9FFF745
:10354000E9FF1CBD70B500202DED028B84B0264A2A
:10355000009001900290A2F112030A24039032F825
:103560001010E9B333F8105001EBC101294489B2BE
:10357000B1FBF4F122F81010401CC0B20828EED3C1
:103580001088ADF800009089ADF80200D088ADF841
:1035900004005088ADF806005089ADF80800108985
:1035A000ADF80A009088ADF80C000F4ED0890024C9
:1035B0009FED0E8AADF80E006D46323E35F81400D0
:1035C000FFF7BAFDC0EE080A06EB8400641CE4B203
:1035D000082CC0ED000AF1D304B0BDEC028B70BD25
:1035E000FFE733F81010C5E72A7A002000001643E1
:1035F00030B50020094A0346FF2400EBC00112F851
:1036000021508542F9D102EB8101401C4D681A28F6
:103610006B6049680C70F0DB30BD000098A10108B8
:10362000014600201A2900D3401E70472DE9F047BB
:103630000421214801F0E0FF0126204C4FF0020850
:103640004FF46179002510B1A068E8B11FE060680F
:1036500010B90CF038FD606000F08CFA0327484583
:103660000ED2A06800F086FAB0F52F7F01D3267045
:1036700007E0B42802D384F8008002E0207800B983
:103680002770A560BDE8F0870CF01DFDA06000F07C
:1036900071FA484501D325700CE0606800F06AFAC1
:1036A00040F2EE21884201D3267003E0B42801D312
:1036B00084F800806560E5E7000802407C02002095
:1036C00010B500F089F8002005F024FD054C2060BD
:1036D00030B1012005F01EFD6060002801D1FEE739
:1036E000FEE710BD800100202DE9FC5F1746024671
:1036F0000098002540F0004062F39E6061F319409D
:10370000009099462E468DF80170202F5AD8DFF888
:10371000BCA001AA0321DAF8040005F01FFD002275
:103720004FF480512A4801F079FF3C200AF0C2F89A
:10373000DFF8A0B00324E84618F804000AF0BAF84D
:103740000BF805006D1CEDB218F804103046FFF7B9
:10375000F3FE641E064614F0FF04EDD10F200CF0BA
:1037600026FF0EE000200AF0A5F809F80400014643
:103770003046FFF7E1FE064605200CF018FF641CFA
:10378000E4B2BC42EED3F0B20AF094F8044605204D
:103790000CF00DFF300A0AF08DF860F31F24322080
:1037A000401C10F0FF00FBD101221103084801F07A
:1037B00035FFDAF8040005F02DFDB44202D10020F7
:1037C000BDE8FC9F4FF0FF30FAE7000080010020C9
:1037D00000040240426400202DE9F04188B001213C
:1037E000022006F0C9FE4FF480480121404606F051
:1037F000E7FE02258DF804504FF460408DF8055027
:1038000000242C4F00908DF806408DF80740694643
:10381000384601F0A5FE05220D21384601F0DCFEF8
:1038200005220E21384601F0D7FE05220F21384629
:1038300001F0D2FE01208DF804008DF80550EE0253
:103840008DF8064000968DF807406946384601F02D
:1038500087FE01223146384601F0E0FE0121404654
:1038600006F0BAFE0021404606F0B6FEADF808406C
:103870004FF48270ADF80A00ADF810402802ADF8A0
:1038800012003020ADF81400ADF80C40ADF80E4039
:10389000ADF816400720084CADF8180002A92046E4
:1038A00009F0B7FB0121204609F09EFB08B0BDE8F6
:1038B000F081000000040240003800402DE9FC5F68
:1038C000924602460098DFF8D4B020F0004062F340
:1038D0009E6061F3194000908DF801A01F460026FC
:1038E00001AA0321DBF8040005F038FC00224FF4A4
:1038F00080512B4801F092FE3C2009F0DBFF294962
:10390000012503240870E846894618F8040009F0E8
:10391000D1FF09F805006D1CEDB218F8041030460F
:10392000FFF70AFE641E064614F0FF04EDD10DE019
:10393000385D09F0BFFF09F805006D1CEDB2395D77
:103940003046FFF7F9FD641C0646E4B25445EFD358
:1039500005200CF02CFEF0B209F0ACFF0446052067
:103960000CF025FE300A09F0A5FF60F31F24322178
:10397000491C11F0FF01FBD101221103084801F09D
:103980004DFEDBF8040005F045FCB44202D10020F6
:10399000BDE8FC9F4FF0FF30FAE7000080010020F7
:1039A000000402404264002003490020488003498B
:1039B000088001207047000000000020580100200E
:1039C00070B500254FF4803405E0802008F030F811
:1039D00008B144B101E0641EF7D240F2FF5007F095
:1039E000FFFF284670BD032070BD000010B50446DF
:1039F0001348016811F0450FFBD0042008F018F8B7
:103A000020B1042007F0ECFF032010BD012008F0D6
:103A10000FF820B1012007F0E3FF012010BD084896
:103A200024380068A04201D0102010BD40F2FF50A1
:103A300007F0D6FF02482038006800F0080010BDEB
:103A4000342C014010B500244FF480310E4809E0B9
:103A5000026812F0450F05D009B1500705D50324BF
:103A600004200CE0491EF3D2F7E7012007F0E0FF45
:103A700018B10124204607F0B3FF40F2FF5007F0D1
:103A8000AFFF204610BD0000342C014010B50A499C
:103A9000086810F0450FFBD0042007F0C9FF20B1E3
:103AA000042007F09DFF032010BD40F2FF5007F0F7
:103AB00097FF002010BD0000342C014070B5064671
:103AC0001C480D460024026812F0450FFBD004206C
:103AD00007F0AEFF20B1042007F082FF032070BD85
:103AE000012007F0A5FF20B1012007F079FF012098
:103AF00070BD104824380068B04212D140F2FF5027
:103B000007F06EFF0B482038026812F4604F03D0B4
:103B1000900404D5132070BD100C288007E05004D9
:103B200001D5102070BD100401D50F2070BD2046B6
:103B300070BD0000342C014010B500244FF48032D9
:103B40000B4809E0016811F0450F05D00AB148079C
:103B500005D50324042006E0521EF3D2F7E74806F9
:103B600003D50024402007F03BFF204610BD000095
:103B7000342C014010B5044605F040FEA04201D3AC
:103B8000001B10BDE143084410BD00002DE9F84FB3
:103B900000F00706C50831B10024CF1D2046DFF82C
:103BA00094E0009736E000201870BDE8F88F224FAF
:103BB00005EB000CC6F1080BD7F818A00AEB0219A8
:103BC000D9F8087017F80CC05EF82B702CFA06FCB8
:103BD0000CEA070C401CB9F90270C0B205EB0008F2
:103BE000FF1DB8EBE70F02DB00252846521C0AEB4D
:103BF000021705EB0008BF6817F808701EF826804A
:103C000007EA080707FA0BF747EA0C071F55641C79
:103C1000009FE4B2B4EBD70FC9D34807C5D0181939
:103C200001F0070310F8012D1EF823100A4002705E
:103C3000BBE70000749D01085C0100202DE9FF4FE7
:103C40009946C40800F0070300210846DFF8B8B021
:103C5000DFF8B8E052E009EB010519F801606D7872
:103C600006EB0525DBF81860ADB206EB0216D6F8B8
:103C700008802618C24618F806701EF8238007EA46
:103C800008070AF80670DBF8188008EB0218D8F865
:103C900008A005FA03F847EA08070AF80670DBF8F7
:103CA0001860401C06EB021CC0B2BCF902C0271809
:103CB0000CF1070CB7EBEC0F02DB00242046521C82
:103CC000D3B106EB0216D6F808C02618E0461CF859
:103CD00006701EF823C027EA0C0708F80670DBF808
:103CE00018C0C3F108080CEB021C25FA08F5DCF833
:103CF00008C02F430CF80670491CC9B2019DB1EBF6
:103D0000D50FA8D3BDE8FF8F5C010020749D01088A
:103D1000F0B539B14FF6FF7404EA410C0024214696
:103D2000114F1EE000201870F0BD1D191E5D6D784A
:103D300000EB010E05EB06257E69491C06EB021619
:103D400089B2B66826F81E507E69451806EB021641
:103D5000B6F90260B54202DB00200146521CA41CE9
:103D6000A4B26445E1D3F0BD5C010020F0B531B1EF
:103D70004FF6FF7404EA41070024214629E00020A1
:103D80001870F0BD144E756905EB0215D5F808C022
:103D90004518491C3CF815C089B24FEA1C2C03F8A1
:103DA00004C0D6F814C0641C0CEB021CA4B2DCF8EE
:103DB00008C01CF815501D557669641C06EB0216E8
:103DC0004518B6F90260A4B2B54202DB00200146F4
:103DD000521CBC42D6D3F0BD5C01002070B5134D1F
:103DE000134E00242946304600F024F9002818D04C
:103DF0002946304600F022F80E490A23A1F11202AA
:103E000031F8140070B132F8145000EBC0002844AF
:103E100080B2B0FBF3F021F81400641CE4B2082C6B
:103E2000EED370BD32F81400F5E70000200000105A
:103E3000106402402A7A002000F020B8074A90421D
:103E400001D2074801E005481038064A8B0001EA14
:103E5000020101D5C1607047816070471064024063
:103E6000006002407D0F7D0F0029016802D041F003
:103E7000010101E021F001010160704710B501214D
:103E800090B0880506F078FB154C204600F02EF81F
:103E9000204600F0C7F80028FAD11249CDE9000108
:103EA0001149CDE902100921CDE904104FF48061D8
:103EB0000691490007918900089149110991090269
:103EC000CDE90A100121CDE90C100E90694620467B
:103ED00000F0CAF801212046FFF7C6FF10B010BD60
:103EE0001064024008230140187A00202DE9F043B5
:103EF000016821F0010101600021016041608160E1
:103F0000C1600161212141613C493C4A3D25103994
:103F1000904202D18D60BDE8F083384A4FF4746658
:103F20001832904201D18E60F5E7344A4FF474178D
:103F30003032904201D18F60EDE7304A4FF0746C1F
:103F40004832904202D1C1F808C0E4E72B4B2C4A1A
:103F50006033984201D1CA60DDE7284C294B7834A0
:103F6000A04201D1CB60D6E7DFF89080264C08F163
:103F70009008404501D1CC60CDE7DFF880804FF05C
:103F80003D5908F1A808404502D1C1F80C90C2E79C
:103F90001E49DFF878800839404501D10D60BAE745
:103FA0001A4D1835A84201D10E60B4E7174D3035CF
:103FB000A84201D10F60AEE7144D4835A84202D1A6
:103FC000C1F800C0A7E7114D10496035091FA8428C
:103FD00001D10A609FE70D4A7832904201D10B600F
:103FE00099E70A4A9032904201D10C6093E7074A60
:103FF000A83290428FD1C1F800908CE71060024047
:104000003D000020400F002000003D2010640240D1
:104010000029016802D041F0200101E021F02001D7
:1040200001607047014600200968C90700D00120DF
:10403000704700000246094B00209A4201D2084A0C
:1040400001E0064A103A8B0001D5526800E0126880
:10405000044B1A400A4200D001207047106402400D
:10406000006002407D0F7D0F30B50368124ACC68B6
:1040700013400A682243D1E905452C432243CC6909
:1040800022430C6A22434C6A22438C6A22434C6BC3
:1040900022438C6B22431A430260426922F00703D9
:1040A000D1E90B2422431A4342610A6942604A68FB
:1040B00082608968C16030BD3F801CF0704700009D
:1040C000014948617047000000900240044A0029FD
:1040D000D16901D0014300E08143D1617047000004
:1040E0000090024005490028886902D040F0020093
:1040F00001E020F00200886170470000009002405B
:10410000F0B5124F00234FF0004C44F2F45E561EFF
:10411000786013E000EB4314C4F800C0C3EBC31590
:1041200005EB450501EB8505C4E901E5B34203D282
:1041300004F12005E56000E0E0605B1C9342E9D3F8
:104140000349C8600348B860F0BD000020030020A8
:1041500000900240B014012005490028886902D06F
:1041600040F4005001E020F40050886170470000E6
:1041700000900240F0B50F4C00234FF48017561EFC
:10418000206011E000EB43142760C3EBC31505EB7F
:10419000450501EB8505A560B34203D204F1200576
:1041A000E56000E0E0605B1C9342EBD302490861EC
:1041B000F0BD0000200300200090024002680A4386
:1041C0000260704710B501214C06204606F0E0F968
:1041D0002046BDE81040002106F0DAB901B581B0F3
:1041E00001980090002801D0401EFAE70CBD0000A5
:1041F0000248816941F4801181617047009002405A
:104200000148006880687047200300200268002190
:10421000002A08DB0268120405D40268D20502D520
:104220000068C0F30D4108467047000003490020B4
:104230000968C90700D001207047000000900240C3
:1042400010B5094C01E011F06BF82068FFF7DEFFB4
:104250000028F8D14020FFF733FFBDE810404FF4AD
:104260008030FFF72DBF0000240300202DE9F0412E
:1042700086B000277F4E0446009701973069884634
:1042800020F01C0502A806F0CBF97B4903987B4A75
:104290000144914202D245F0080516E07849794A76
:1042A0000144914202D245F00C050EE07649774A6E
:1042B0000144914209D3764908447649884202D2A2
:1042C00045F0040501E045F0100535614FF400426A
:1042D0000021404600F06CFA00282DD06E48FFF710
:1042E0007DFF2068B0B301980121401C0190404639
:1042F00000F086F9400702D401986428F3D3674D93
:104300000198A84217D04FF48052002140460197EF
:1043100000F04EFA00280FD001980121401C0190B6
:10432000404600F06DF9800602D401986428F3D36A
:104330000198A84203D1002006B0BDE8F0811F21FA
:104340004046019700F05CF9C10604D54FF40061C6
:10435000216201E008E02762400701D5676113E0B0
:104360004FF4804060610FE0206A6169C00840EA54
:10437000510082B20021404600F01AFA0028DBD03A
:104380006FF07F40FFF72AFF316845480140D4E9CC
:1043900001021043E26854F8103F1A431043626868
:1043A0001043A2681043E268104322691043626917
:1043B0001043A2691043E2691043226A1043626A03
:1043C000104308433060F4E90A010843D4E90212BB
:1043D000114308432169084361690843A1690843FF
:1043E000E16908437060206AB060606AF060B0699B
:1043F0004FF641710840D4E90B121143238D626BD3
:1044000042EA03421143A26B1143E26B11430143A1
:10441000B161D4E910010843F06122488269224960
:104420000A40D4E912131943D4E914352B43194334
:10443000A36D1943E36D1943236E1943636E19434A
:10444000A36E194311438161D4E91B121143626FBA
:1044500054F8783F1A431143626841EA8201A26826
:10446000114341F400010160016841F080010160E5
:10447000012061E70080024000D3CEFEC0E1E400ED
:1044800040F1E9FD40787D0100796CFC005A620240
:10449000001F0AFA80F0FA02FFFF0F00FFFF04007E
:1044A0000F8120FF00900240233FDEF8054B8A88F1
:1044B000184402640A78D1F8011042EA01214164EB
:1044C000704700000080024010B5B0B001214FF0ED
:1044D000606006F051F8FFF775FE00F0E9F8FFF7AD
:1044E000A5FE0128FBD0684600F0FBF801200090F3
:1044F00000204FF40071CDE90A10090407901190D3
:10450000CDE920010E90149013900A11159025907A
:10451000269023920420CDE9280180032A9080016F
:104520002B9040122C9040002E9000216846FFF7FF
:104530009DFEC4B2012C03D101210348FFF7C6FD43
:1045400030B0204610BD00004000010005490028A1
:10455000086802D040F0040001E020F00400086088
:10456000704700000080024005490028086802D01A
:1045700040F0080001E020F00800086070470000EB
:104580000080024010B5094C0020216811F040F96C
:104590000020616811F03CF90020A16811F038F9A1
:1045A000E168BDE81040002011F032B96C02002033
:1045B00070B5A021002011F037F9104CA021206027
:1045C000002011F031F941F6C45560602946002001
:1045D00011F02AF9A0602946002011F025F9E060C9
:1045E000216831B1616821B1A16811B108B1002021
:1045F00070BDFFF7C7FF012070BD00006C020020F6
:1046000018B500220092124A13694FF6FF7403F0A6
:104610001C0304EAC02018434FF4F86303EA811135
:10462000014321F0020040F00100106109490098A7
:10463000401C00901069C00702D000988842F6D351
:104640000098884201D1002018BD506980B218BD81
:1046500000800240FFFF040070B5134C00231A468F
:1046600021680D68002D0BDA104916464B691B06B0
:1046700002D580234B618E6002604260826070BD13
:104680000D682D040AD40D68ED0507D50D68AD053C
:1046900004D50A68C2F30D438A681B1FCD682560E4
:1046A0000360C0E9012170BD240300200090024096
:1046B0000248016841F0010101607047009002402A
:1046C00000B50120FFF750FFFFF792FD0120FFF733
:1046D0003DFF0120FFF740FD01205DF804EBFFF7EF
:1046E00001BD012101600021416081604FF48042E1
:1046F000C160C0E90412D2108161C0E907124162B1
:104700008162C1620163416340228163C0E90F128B
:104710002022C0E91121C1640165416581658022C3
:10472000C165C0E918128166C16601674167D2049C
:104730008167C0E91F125210C0E921211311C0E99D
:104740002331C0F89410C0F89810C0F89C10C0E94C
:1047500028125212C0F8A8209201C0F8AC205212C0
:10476000C0E92C21C0F8B810704700000E4A11684B
:104770000B68002B01DA00207047C0F30C00486082
:10478000086840F040500860086840F00040086049
:10479000064843695B0703D5042343610023436054
:1047A000C86810600120704720030020009002407C
:1047B00038B500230093114B1C694FF6FF7504F0C8
:1047C0001C0405EAC02020434FF4F86404EA811178
:1047D000014341F003005A61186109490098401CE7
:1047E00000901869C00702D000988842F6D300985C
:1047F000884201D1002038BD012038BD0080024030
:10480000FFFF040010B5102000F01EF8002804D0AF
:10481000BDE81040102000F011B810BD10B54FF4E5
:104820008074204600F010F8002806D005F020FC27
:104830002046BDE8104000F001B810BD01490860F5
:1048400070470000143C0140034A014600201268F2
:104850000A4200D001207047143C014030B51A4A8A
:104860008379016853B313688B431360111D0B6880
:104870000468A3430B60017911440B680468234367
:104880000B60114B083319680468A14319601C1DA3
:1048900021680568A94321604179102905D0114498
:1048A0000A68006802430A6030BD19680268114353
:1048B0001960216800680143216030BD007910440F
:1048C00002688A43026030BD003C01402DE9F0419E
:1048D0000546022803DD6FF00200BDE8F081164CAA
:1048E00000274FF00208A4F11406A07802280CD08B
:1048F000032802D00320A07016E008F06DFC012808
:1049000010D1378084F802800CE0B6F9000000284E
:1049100004DA0AA10B48FCF71DFA38B1B6F9000019
:10492000801C06D0002DE0D10020D6E70120A07029
:10493000D3E74FF0FF30D0E7A80100204F4B0D0A1E
:1049400000000000E0640020002200F001B8000038
:1049500030B50E4B05460120DC7C032C15D2D87CEB
:1049600000241C54D87C03EB80004560DD7C03F1FF
:1049700010002A54D87C421CDA74303008703A2077
:1049800048702F208870CC70002030BD4C2C012046
:1049900005490028086802D040F4806001E020F456
:1049A0008060086070470000003C024070B5064619
:1049B000002529B1012927D0022928D04FF44075BC
:1049C00000F0DAF809281ED1124C206820F440705B
:1049D0002060206828432060206820F0F8002060D4
:1049E000206846F0020108432060206840F48030CF
:1049F000206000F0C1F8216821F0020121602168E7
:104A000021F0F801216070BD4FF48075D8E74FF4B4
:104A10000075D5E7103C02401C49884201D20020B5
:104A200070471B49884201D20820704719498842C3
:104A300001D2102070471849884201D218207047CF
:104A40001649884201D2202070471549884201D278
:104A5000282070471349884201D2302070471249FC
:104A6000884201D2382070471049884201D2402044
:104A700070470F49884201D2482070470D4988424B
:104A800001D25020704758207047000000400008B5
:104A90000080000800C000080000010800000208B3
:104AA00000000408000006080000080800000A08CA
:104AB00000000C0800000E080D4909200A68D20306
:104AC00001D5012070470A68D20601D5062070473B
:104AD0000A68D20501D5022070470A6812F0E00F7B
:104AE00001D00720704709688907FBD50820704767
:104AF0000C3C02400248016841F0004101607047EF
:104B0000103C024070B50D46064600F035F8092805
:104B100013D10A4C206820F440702060206840F4D3
:104B200000702060206840F001002060356000F0D7
:104B300023F8216821F00101216070BD103C024082
:104B400010B5002303E010C841F823405B1C9342DA
:104B5000F9D310BD05480068002805DA0348044968
:104B60000C3801600349016070470000103C0240AE
:104B700023016745AB89EFCD08B509208DF800000A
:104B8000FFF79AFF8DF800009DF800000128F7D08C
:104B90009DF8000008BD00002DE9F041092690466F
:104BA0000F460446B0F1006F01D3A00703D04FF0C9
:104BB000FF30BDE8F081FFF7CDFF0020FFF7E8FEF2
:104BC0001548254604EB880884420ED31AE028686D
:104BD000401C09D02846FFF71FFF0221FFF7E6FE21
:104BE0000646092801D00FE02D1D4545EFD3092EBB
:104BF00008D009E020463968FFF784FF092803D16F
:104C0000241D3F1D4445F5D30120FFF7C1FEFFF7EA
:104C100071FF0020CDE700000000FF1F8000A0F121
:104C2000C0400029016802D041F0010101E0024AC0
:104C30001140016070470000FEFF0F0070B5016871
:104C40008900A1F1C0410B68334A1340D0E9012427
:104C50002243D0E903452C4322434469224384691B
:104C60002243C4692243046A2243446A2243846A79
:104C70002243C46A2243046B22431A430A608168B8
:104C8000082907D101688900A1F1C0410A6842F0F2
:104C900040020A6001688A00A2F1C042516801F036
:104CA0004043416BD1E9004544EA05148D688E8983
:104CB0002D0245EA06452C430D8A44EA05540D7D34
:104CC000896944EA05640C431C435460C16AB1F528
:104CD000804F08D000686FF070418000A0F1C040A4
:104CE000C0F8041170BD01688900A1F1C041D1F87C
:104CF0000421806B094B1A40D0E9003443EA0413C5
:104D000084688589240244EA054480692343034377
:104D10001343C1F8043170BD8000F7FF0000F0CFED
:104D20002DE9F04798B001217A2005F025FC0121FA
:104D3000084605F039FC02258DF8045000244FF692
:104D400033708DF806400326DFF854A200908DF8EA
:104D5000056001278DF807706946504600F000FC99
:104D60008DF804504FF683708DF80640DFF83492CA
:104D700000908DF805608DF807706946484600F090
:104D8000EFFB8DF804504FF23F008DF80640DFF83E
:104D9000188200908DF805608DF8077069464046CE
:104DA00000F0DEFB8DF8045040F23F408DF80640E5
:104DB0007E4D00908DF805608DF807706946284695
:104DC00000F0CEFB0C220021504600F005FC0C2226
:104DD0000121504600F000FC0C220421504600F056
:104DE000FBFB0C220521504600F0F6FB0C220821AB
:104DF000504600F0F1FB0C220921504600F0ECFB7C
:104E00000C220A21504600F0E7FB0C220B215046F1
:104E100000F0E2FB0C221146504600F0DDFB0C22B4
:104E20000D21504600F0D8FB0C220E21504600F018
:104E3000D3FB0C220F21504600F0CEFB0C220021A8
:104E4000484600F0C9FB0C220121484600F0C4FB93
:104E50000C220721484600F0BFFB0C2208214846DF
:104E600000F0BAFB0C220921484600F0B5FB0C22E9
:104E70000A21484600F0B0FB0C220B21484600F006
:104E8000ABFB0C221146484600F0A6FB0C220D217C
:104E9000484600F0A1FB0C220E21484600F09CFB86
:104EA0000C220F21484600F097FB0C2200214046BF
:104EB00000F092FB0C220121404600F08DFB0C22F9
:104EC0000221404600F088FB0C220321404600F0FE
:104ED00083FB0C220421404600F07EFB0C220521BE
:104EE000404600F079FB0C221146404600F074FB6E
:104EF0000C220D21404600F06FFB0C220E21404693
:104F000000F06AFB0C220F21404600F065FB0C22EA
:104F10000021284600F060FB0C220121284600F009
:104F20005BFB0C220221284600F056FB0C220321D9
:104F3000284600F051FB0C220421284600F04CFBCF
:104F40000C220521284600F047FB0C220A212846A6
:104F500000F042FB0820CDE9124011941694042081
:104F60001794CDE9020414941020CDE9044015945F
:104F700006940002CDE90A4011A80994CDE90E403B
:104F80000894079410900C940D9402A8FFF756FE15
:104F900001210420FFF742FE18B0BDE8F0870000B1
:104FA000000C0240001002400014024000180240B1
:104FB0002DE9FC5F00244C4F00944FF4806801946D
:104FC0004025C7F81080C7E902540E464FF0080B81
:104FD0001021C7E900B1A146384606F06FFD102048
:104FE000FEF704FD002853D14048AA464D460089EB
:104FF000000438603720C7E9010AC7E9039838463A
:1050000006F05CFD3720FEF7F1FC002840D1411E80
:1050100007F11400C0E9001B302181600221C0E9C2
:1050200003150121416106F0EBFC3320C7F808A00D
:10503000C7E90050C7E90358384606F03FFD332062
:10504000FEF7D4FC050023D1DFF8A490DFF8A080A0
:105050004FF4001B6F46A9F14C0940F22A6AD9F8B7
:10506000000010EA0A0F0BD1584606F0E1FC0028B8
:10507000F5D0D8F8000047F82400641C022CEED3C9
:10508000082006F0D5FC28B1082006F0A9FC042071
:10509000BDE8FC9F022006F0CBFC20B1022006F008
:1050A0009FFC0220F4E7202006F0C2FC20B1202063
:1050B00006F096FC0620EBE74FF40074204606F05D
:1050C000B7FC20B1204606F08BFC0720E0E740F259
:1050D000FF5006F085FC009800BA7060019800BA95
:1050E00030602846D4E70000782C0120EC03002033
:1050F000802C0140002070474FF0FF3070470020A7
:105100007047000010B508684B6889689A0700D09E
:105110000122084C02EB9302A04203D3064C034445
:10512000A34202D94FF0FF3010BDFFF709FD002068
:1051300010BD00000040000800C0000830B408683E
:105140004B6889689A0700D00122084C02EB930251
:10515000A04203D3064C0344A34203D930BC4FF012
:10516000FF30704730BCFFF717BD0000004000085B
:1051700000C0000810B5FDF7C3FAFDF77FFDFDF78D
:105180008BFCFDF783FEFDF743FBFDF711FCBDE84B
:105190001040FDF73BBD10B501F098FB01F06CFE2F
:1051A00001F074FD02F080F801F0A4FF01F0FEFBB5
:1051B000BDE8104001F0D2BC70B506F0D1F82B4C20
:1051C00000262B4DE07905284BD2DFE800F0030CD8
:1051D0001534430006F062F905F0EAFF06F022FA02
:1051E00040B3012034E006F059F905F0E1FF05F085
:1051F000EBFEF8B102202BE01E484188D1B941896D
:10520000C1B9C188B1B90189A1B9808890B9032019
:10521000E07195F88E1295F88C02002204F0D2FF0E
:1052200095F896020022C1B204F0CCFF002013F0E2
:1052300095F8A06216E0002013F090F8A16A411AD8
:10524000B5F8DE02C0EB0010B1EB800F0AD90420E4
:10525000E07107E006F022F905F0AAFF06F0AAFACD
:1052600000B1E671E079A5F8DC0270BD58000020BD
:10527000B859002034630020002070472DE9F04128
:10528000084F002407EB0415A96811B16868884726
:105290000646F1B2284601F0A9F9641C0A2CF1D3A4
:1052A000BDE8F081B80100202DE9FC5F012108462E
:1052B00005F062F90121022005F05EF901210420C8
:1052C00005F05AF90121082005F056F901211020B6
:1052D00005F052F90121202005F04EF9012140206E
:1052E00005F04AF90121802005F046F9DFF8C4B144
:1052F0004FF4007500222946584600F08FF9AF00A0
:1053000000223946584600F089F94FF480580022AF
:105310004146694800F082F94FF4004900224946AD
:10532000664800F07BF94FF4807A002251466448C9
:1053300000F074F900220821624800F06FF97C2027
:105340000024CDE9000469465F4800F009F903260E
:105350008DF8046028018DF8064000908DF8074014
:105360008DF805406946594800F0FAF84FF4E070AE
:10537000CDE900046946584600F0F2F80095012591
:105380008DF804508DF806408DF807408DF80540E3
:105390006946584600F0E4F88DF80460A8028DF8DC
:1053A000064000908DF807408DF805406946584644
:1053B00000F0D6F88DF804508DF806408DF80740BF
:1053C00000978DF805406946584600F0C9F88DF8F9
:1053D00004408DF8064004278DF8075000978DF89B
:1053E00005406946394800F0BBF88DF804608DF837
:1053F00006408DF8074000978DF8054069462E4815
:1054000000F0AEF88DF804508DF806408DF8074096
:10541000CDF800808DF805406946274800F0A0F8D7
:105420008DF804604FF49E508DF8064000908DF882
:1054300007408DF805406946204800F091F88DF846
:1054400004508DF806408DF80740CDF800A08DF887
:10545000054069461A4800F083F88DF8045008208A
:105460008DF8064000908DF807408DF8054069469C
:10547000144800F075F88DF80460C0208DF80640DF
:1054800000908DF807408DF8054069460D4800F002
:1054900067F88DF804508DF806408DF80740CDF878
:1054A00000908DF805406946044800F059F8BDE8C1
:1054B000FC9F00000014024000040240001802405B
:1054C00000000240000C02400010024000080240B0
:1054D0004FF0FF307047002070470000001F4FF072
:1054E000FF33082815D2DFE800F00406080A0C0E86
:1054F000101200220EE001220CE002220AE0032238
:1055000008E0042206E0052204E0062202E0072269
:1055100000E01A46002A01DA18467047044800EBFA
:105520000210007800F00F000870012070470000A2
:10553000B801002010B50978012905D000221428EF
:1055400004D04FF0FF3010BD0122F8E74FF4807116
:10555000024800F063F8002010BD00000000024087
:10556000F0B5002201274FF0030C0B6807FA02F593
:105570002B40AB422CD1066853000CFA03F4A6432F
:1055800006600E79D0F800E09E4046EA0E060660FE
:105590000E79012E01D0022E12D18668A6438660B4
:1055A0004E79D0F808E09E4046EA0E0686604668CE
:1055B000AE43466045688E799640B6B23543456045
:1055C000C568A543C560CC799C40C3681C43C460D2
:1055D000521C102AC9D3F0BD4B07DB0E9A40C908F4
:1055E00010B500EB8100016A0F249C40A1430162C9
:1055F000016A1143016210BD0246002012690A428D
:1056000000D0012070470246002052690A4200D0B3
:105610000120704741837047018370470AB10183BD
:1056200070474183704700002DE9FE4F994C0026DA
:10563000994FA07901254FF007094FF0050B4FF066
:10564000030A4FF002084FF4FA610A283ED2DFE85D
:1056500000F05AC0E1F0EF85D377930500238FA2C5
:105660001846FDF7EDFD002805D0132804D00728C3
:10567000FAD0022842D00BE1DFF838820A228AA150
:1056800008F10700FBF727FA58B308228AA108F1AE
:105690000700FBF720FA08B309228AA108F10700E6
:1056A000FBF719FAE8B147460A2289A1F81DFBF772
:1056B00012FAD8B1092289A1F81DFBF70CFAC0B182
:1056C000092289A1F81DFBF706FAA8B1DCE084F8ED
:1056D000069001E084F806B0A570CBE084F806A03F
:1056E000C8E097F8E4050128F4D1F0E70420A071A0
:1056F000C0E00120BDE8FE8F0220FBE7206820F417
:10570000C0602060F8E797F8E40501280AD100237B
:1057100078A241F288311846FDF792FD10B184F865
:105720000690A7E0002376A248F6B8011846FDF7D8
:1057300087FD00289FD01128CFD184F806B099E0CA
:1057400072A373A20220FDF77BFD002893D00821ED
:10575000062801D002288ED1A1718BE06FA370A220
:105760000220FDF76DFD002813D0062802D007287F
:105770004FD07FE0A5717DE000236BA20120FDF7F3
:105780005FFD002805D0052804D0062814D0022883
:1057900070D07DE02068312140F480702060454861
:1057A000FBF720F90028206802D040F0010001E05A
:1057B00020F0010020606BE0A5702078C00706D0C3
:1057C00097F8E405012861D084F8068060E0A571AF
:1057D0005EE04EA354A20220FDF732FD50B306282E
:1057E00052D1206840F00100206097F8E4050128BC
:1057F0004CD084F806803DE007F2B4674DA305CF96
:10580000CDE900024EA20220FDF71AFD90B1062854
:10581000EFD039E04D480746FBF73EF902280AD29F
:1058200000234BA241F288311846FDF709FD10E034
:1058300022E013E02CE0454800978030A0F14001C1
:10584000CDE9011044A342A241F288310220FDF7C4
:10585000F7FCE8B106283FF441AF15E0002342A26F
:105860004AF6C8711846FDF7EBFC88B106283FF4EC
:105870003DAF09E0A5700BE000233DA21846FDF7FF
:10588000DFFC28B1032801D0A671F3E7A67130E749
:1058900000202FE7A8010020B85900202B434950D1
:1058A0005354415455530000495020494E495449DE
:1058B000414C0000E06400204950205354415254B0
:1058C00000000000495020434F4E46494700000069
:1058D00049502047505253414354000049502053EF
:1058E0005441545553000000504450204445414316
:1058F000540000002B4E4554434C4F5345000000CC
:105900002B4349505348555400000000310000001B
:105910002B43534F434B534554504E00300000002F
:105920002B4349504D5558002B4349504D4F44454A
:1059300000000000222573222C2225732200000083
:105940002B43444E53434647000000009E5F002017
:105950002B43535454000000222573222C2225731C
:10596000222C2225732200002B4349494352000078
:105970002B434946535200002DE9F843884C894F88
:105980000426607997F8E42501254FF005084FF4C7
:10599000FA610B2827D2DFE800F006B5D5260637D6
:1059A000216A8645280000237FA24FF47A611846B9
:1059B000FDF746FC002803D0062802D0022805D0B7
:1059C000EBE0206840F00800206019E0206820F03B
:1059D000080020600320A070062060E00020FEF791
:1059E00075FF0028ECD06671CBE070A371A2022095
:1059F000FDF726FC0028E3D00228F5D00628DFD1E9
:105A0000A57084F80580C8E000236CA21846FDF755
:105A100017FC0028D4D00228E6D00628D0D1A570E3
:105A200009203CE00726012A1FD0002365A201209F
:105A3000FDF706FC0028C3D0052804D00228D3D0E7
:105A400006280ED0A9E061A16148FAF7C3FF5FA163
:105A50000020FAF7BFFFFAF791FF216860F34101D8
:105A60008DE0A5702078800700D5667195E05948D3
:105A7000012A59A300900AD05AA20220FDF7E0FBA8
:105A8000002803D002287CD0062802D085E058A246
:105A9000F3E7A57097F8E405012802D108206071AA
:105AA0007BE0657179E0002354A20120FDF7C8FB7B
:105AB000002872D0052804D0022810D0062818D05B
:105AC0006BE042A14248FAF785FF40A10020FAF7B7
:105AD00081FFFAF753FF216860F307114FE0A570CB
