:020000040800F2
:10000000F86301201D040008D1760008D55D0008C2
:100010002D6A00088333000811CD0008000000009D
:1000200000000000000000000000000087B200088F
:10003000D13D000800000000A503000831BC000805
:10004000370400083704000837040008E597000863
:100050003704000837040008370400083704000894
:100060003704000837040008194500083704000861
:100070003704000837040008370400083704000874
:100080003704000837040008370400083704000864
:100090003704000837040008370400083145000819
:1000A0003704000837040008370400083704000844
:1000B0003704000831BD0008370400083704000881
:1000C0003704000837040008370400083704000824
:1000D0003704000825C5000839C500084DC50008CB
:1000E0003704000837040008370400083704000804
:1000F00037040008370400083704000837040008F4
:1001000037040008919C00083704000837040008F1
:1001100037040008370400083704000837040008D3
:10012000F13A0008370400083704000837040008D3
:1001300037040008553F000837040008370400085A
:1001400037040008370400083704000837040008A3
:1001500037040008370400083704000871C5000898
:100160003704000837040008370400083704000883
:100170003704000837040008370400083704000873
:10018000370400083704000800F002F800F0B8F85F
:100190000AA090E8000C82448344AAF10107DA45E2
:1001A00001D100F0ADF8AFF2090EBAE80F0013F07C
:1001B000010F18BFFB1A43F0010318470434040071
:1001C000243404000A444FF0000C10F8013B13F0F3
:1001D000070408BF10F8014B1D1108BF10F8015BA0
:1001E000641E05D010F8016B641E01F8016BF9D193
:1001F00013F0080F1EBF10F8014BAD1C0C1B09D1EA
:100200006D1E58BF01F801CBFAD505E014F8016B5B
:1002100001F8016B6D1EF9D59142D6D370470000ED
:100220000023002400250026103A28BF78C1FBD8FF
:10023000520728BF30C148BF0B6070476E2900F0DD
:10024000A386702901F00380662917F0B88065291C
:1002500017F0B580672917F0B280612917F0B180D7
:1002600003681B0A28BF41F08001692900F08682DB
:10027000642900F08382752900F080826F2900F0E4
:100280009087782900F0CF87E92900F02B87E429AF
:1002900000F02887F52900F02587EF2900F08D87E9
:1002A000F82900F0CE870368DB0928BF41F0800100
:1002B000632900F0AC86732900F0B186E32901F0D0
:1002C0008184F32901F08684002070471FB517F060
:1002D0006CF89DE8030000F0ABFD00F072FB00F04D
:1002E00087FD04000020002116F026FA401C606003
:1002F0000020002116F036FAE0601FBD10B510BDD9
:1003000001F000FD1146FFF7E1FF12F0ADFF01F033
:10031000DFFD03B4FFF7F2FF03BC0DF038FE000071
:100320000B49D1F800C04A685CF8043B10681844D7
:1003300042F8040B8C4528BFA1F1DC0C8A4228BF8F
:10034000A1F1DC02C1F800C04A6020F00040704713
:1003500064430120EFF3108072B6704780F3108879
:100360007047264C4FF6FF7525604FF0000484F36C
:100370000988234C4FF001052570224C4FF0805521
:10038000256062B6FEE730B41E4C4FF08055256004
:1003900030BC704730B41B4C4FF08055256030BCEA
:1003A000704700BF72B6EFF3098050B11EF0100F16
:1003B00008BF20ED108A203880E8F00F1249096844
:1003C000086000B5114880475DF804EB10481149FA
:1003D0000A7802700C4810490A680260106890E8B8
:1003E000F00F20301EF0100F08BFB0EC108A80F321
:1003F00009884EF0040E62B6704700BF22ED00E09F
:100400006702002004ED00E08002002075840008EF
:10041000640200206502002088020020094880470D
:1004200009480047FEE7FEE7FEE7FEE7FEE7FEE7D6
:10043000FEE7FEE7FEE7FEE704480549054A064BEE
:100440007047000099BC000889010008F8430120AA
:10045000F8630120F8530120F85301207047000091
:1004600010B500F0C5FC001D10BD00BFCD6201003D
:1004700070B5064600F0B8FC056806F10B0020F0E8
:100480000704B4429CBF002070BD2B466A68BAB115
:100490001068A04210D304F1080188423CBF5068A4
:1004A000586007D35168101941601168091B016039
:1004B00058601460101D70BD13465268002AE7D1C1
:1004C0002146284600F0A0FC0028DED170BD70B5A2
:1004D0000446051F00F088FC0068002C14BF446827
:1004E00070BD002C18BFAC423CBF20466468F8D3F6
:1004F00001680A18AA4218BF456003D12A68054658
:100500001144016028684119A1421CBF6C6070BD94
:100510006168696021680844286070BD53EA020C74
:1005200000F069802DE9F04B4FF00006002B1FBF53
:10053000B3FA83F503FA05F424FA05F65E4012BF18
:100540001643B2FA82F502FA05F4C5F120051EBF82
:1005500022FA05FC44EA0C04203556EA044C4FEA22
:10056000144418BF641C4FF000084FF0000990427B
:1005700071EB030C39D3002919BFB1FA81F701FAE5
:1005800007F6B0FA80F700FA07F6C7F120071EBF9A
:1005900020FA07FC46EA0C062037B6FBF4FCA7EB72
:1005A0000507103F07F01F0BCBF120060CFA0BFBE1
:1005B0002CFA06F644BFB3460026202FA4BF5E46A1
:1005C0004FF0000B5BEA060C08BF4FF0010B19EB74
:1005D0000B09ABFB027C48EB0608C01B06FB02CCF8
:1005E0000BFB03CC71EB0C01C1E70B460246414605
:1005F0004846BDE8F08B13B54FF000004FF0000106
:10060000AFF30080BDE81C40704710B54C1084EA81
:10061000530404D54042C1F1000138BF491E1B42BA
:1006200004D55242C3F1000338BF5B1EFFF776FFCB
:1006300014F0804F04D04042C1F1000138BF491E80
:1006400014F0004F04D05242C3F1000338BF5B1EC8
:1006500010BD00001CB50C46064B7B44694600905B
:10066000204600F0AAFC04460020694600F0B8FCD1
:1006700020461CBD830900000FB41CB5084B06AA18
:100680007B4469460090059800F097FC04460020E2
:10069000694600F0A5FC20461CBC5DF814FB000078
:1006A0005D0900000FB47CB50C0009AA009001D0D0
:1006B0002044401E084B7B4469460190089800F096
:1006C0007CFC05461CB10020694600F089FC2846E8
:1006D0007CBC5DF814FB00003109000070B50446D5
:1006E00085690068C10601D5302600E02026C007D4
:1006F00007D070BDD4E9012130469047206A401CE4
:1007000020626D1EF6D570BD70B50446856900780F
:10071000C00707D170BDD4E9012120209047206A8D
:10072000401C20626D1EF6D570BD70B50C460546A6
:10073000012A05D02878800600D5EA69002302E066
:10074000012305E05B1C934202D2E05C0028F9D152
:10075000A869E618C01AA861286A184428622846C1
:10076000FFF7BCFF04E0D5E9012114F8010B904725
:10077000B442F8D32846FFF7C7FF70BD2DE9F0411A
:100780000646002410687529314616A510D000F0E1
:1007900090FB002802DA404213A507E031688A077F
:1007A00001D512A502E0490704D511A5012401E0F5
:1007B00000F088FB00210A2206F1240709E0B0FBC3
:1007C000F2FCB0FBF2F302FB1C0030307854184608
:1007D000491C0028F3D123462A463046BDE8F041A3
:1007E00000F079BB000000002D0000002B0000008D
:1007F000200000002DE9F05F894604464FF0000A12
:10080000DFF874B1FB44C0F820A02046E1688847B7
:10081000002874D0252806D0D4E901219047206A09
:10082000401C2062F1E700265F462046E1688847C9
:100830002028054607DB312D05D2781910F8200C49
:1008400008B10643F1E7B00701D526F00406C4F865
:100850001CA00027C4F818A02A2D09D028460DF0A6
:100860008FFB38B304EB8708303DC8F8185019E007
:1008700059F8041B204604EB87029161E168884720
:10088000012F054618D1E069002820DA26F020065D
:100890001DE0D8F8180000EB800005EB4000303870
:1008A000C8F818002046E168884705460DF068FB47
:1008B0000028EED1012F0AD02E2D08D12046E16864
:1008C00088477F1C0546022F46F02006C4DBA0693E
:1008D000002803DA404246F00106A061F00701D08B
:1008E00026F010066C2D0BD0682D09D04C2D39D078
:1008F0006A2D35D0742D35D07A2D33D016E038E0FE
:10090000E1682F4620468847B842054609D16C2F3A
:1009100026D04FF48060E1680643204688470546AC
:1009200004E06C2F1AD04FF4807006430DB3A5F18C
:100930004100192802D8203546F400664A46294667
:10094000204626604E46FFF779FC80B101280BD087
:10095000F61D26F0070000F1080956E74020E4E7FD
:100960008020D8E70020D6E706F104094DE72846A5
:1009700052E7206ABDE8F09FA42B040070B506463C
:1009800000F03AFA0468054630460A22002100F0D9
:1009900069FC2C6070BD00000B4910B5A1F17C0210
:1009A0000A4CC2E93712372106E000EB104342F847
:1009B0002130074B00FB03400B1EA1F10101F4DCC9
:1009C00010BD0120E8E7000004430120E119D666CC
:1009D000CD0D0100014A00F07DBC0000CC030020D9
:1009E00000F078BC401ECAB210F8011F8A4202D043
:1009F0000029F9D10020704740EA010310B59B0798
:100A00000FD1042A0DD310C808C9121F9C42F8D078
:100A100020BA19BA884201D9012010BD4FF0FF3029
:100A200010BD1AB1D30703D0521C07E0002010BD3F
:100A300010F8013B11F8014B1B1B07D110F8013BCB
:100A400011F8014B1B1B01D1921EF1D1184610BDAC
:100A500040EA0103024630B59B0710D14FF0013444
:100A600000E008C208C91D1B9D4315EAC41FF8D049
:100A700013F0FF0102F8011B0DD01B0AF8E711F873
:100A8000013B002B02F8013B05D011F8013B002B84
:100A900002F8013BF3D130BD10B5431C02E010F861
:100AA000011B71B18107FAD14FF0013202C88C1AD3
:100AB0008C4314EAC211F9D0C01A0A0603D0C01E32
:100AC00010BDC01A10BD0A0401D0801E10BD09025D
:100AD000FCD0401E10BD40EA010370B59B072ED12B
:100AE0004FF00136042A2AD308C810C99D1B9D4324
:100AF000121F15EAC61517D0D8B2E1B2401A50EA53
:100B0000056110D198B2A1B2401A50EA05410AD14C
:100B100023F07F4024F07F41401A50EA052102D1A2
:100B2000180EA0EB146070BDA342DBD018BA21BA36
:100B3000884201D9012070BD4FF0FF3070BD0AB965
:100B4000002070BD10F8013B11F8014B63B1A342C6
:100B50000AD1521E08D010F8013B11F8014B1BB10D
:100B6000A34201D1521EEDD1181B70BD032A40F2E1
:100B7000308010F0030C00F0158011F8013BBCF13F
:100B8000020F624498BF11F801CB00F8013B38BF57
:100B900011F8013BA2F1040298BF00F801CB38BF65
:100BA00000F8013B11F0030300F02580083AC0F083
:100BB000088051F8043B083A51F804CBA0E808102B
:100BC000F5E7121D5CBF51F8043B40F8043BAFF35E
:100BD0000080D20724BF11F8013B11F801CB48BFB8
:100BE00011F8012B24BF00F8013B00F801CB48BFEE
:100BF00000F8012B704710B5203AC0F00B80B1E827
:100C00001850203AA0E81850B1E81850A0E8185041
:100C1000BFF4F5AF5FEA027C24BFB1E81850A0E84A
:100C2000185044BF18C918C0BDE810405FEA827C64
:100C300024BF51F8043B40F8043B08BF7047D2077B
:100C400028BF31F8023B48BF11F8012B28BF20F81C
:100C5000023B48BF00F8012B704702F0FF0343EA54
:100C6000032242EA024200F002B84FF000020429D7
:100C7000C0F0128010F0030C00F01B80CCF1040CCB
:100C8000BCF1020F18BF00F8012BA8BF20F8022BFF
:100C9000A1EB0C0100F00DB85FEAC17C24BF00F8A5
:100CA000012B00F8012B48BF00F8012B70474FF0D3
:100CB000000200B5134694469646203922BFA0E8AC
:100CC0000C50A0E80C50B1F12001BFF4F7AF0907B8
:100CD00028BFA0E80C5048BF0CC05DF804EB8900A9
:100CE00028BF40F8042B08BF704748BF20F8022BEC
:100CF00011F0804F18BF00F8012B704710B5044663
:100D000010F0030F08BF11F0030F40F015804FF0F3
:100D1000013E121FC0F20E8051F8043BA3EB0E0CF3
:100D20002CEA030C1CEACE1C08BF40F8043BF0D0B0
:100D3000A1F1040102F10402521E08DB11F8013B8B
:100D4000002B00F8013BF7D11146FFF78EFF20463C
:100D500010BD00004FF0013C50F8042B51F8043B4B
:100D60009A4221D1A2EB0C03934313EACC1317D17F
:100D700050F8042B51F8043B9A4215D1A2EB0C0316
:100D8000934313EACC130BD150F8042B51F8043BD6
:100D90009A4209D1A2EB0C03934313EACC13DBD0A4
:100DA0004FF00000704700BFD01A01BAB1FA81F1CC
:100DB00001F0180122FA01F0CB40C1F12001DBB2B1
:100DC000C0B2C01A2CFA01F3D11A914311EAC3112F
:100DD000E6D17047014900F09FBA00006C43012042
:100DE000704770477047704700487047A043012024
:100DF00000487047B84301200048704798430120DD
:100E0000704770477047704738B504460A4600205F
:100E10006946AFF30080002808BF38BD024600993C
:100E2000204600F0D9FA012038BD012000F045BF6E
:100E3000F8B5AFF30080054600200C46102000BF37
:100E40000646A819A0420DD9324669460020AFF3E4
:100E50000080070008BF00F030FF0098A04218BFD4
:100E60000546C419FFF7C0FF05600746F01D20F0D6
:100E700007004619284600F00AF8B44208BFF8BD3A
:100E8000A21B31463868BDE8F84000F0A5BA002141
:100E90000160C0E9011070471020704710B5FFF7DE
:100EA000ABFF006810BD10B50446FFF7A5FF046056
:100EB00010BD09684A0501D540B27047C905FCD587
:100EC00000B2704709684A0501D5C0B27047C9052C
:100ED000FCD580B270472DE9F0470D469946924601
:100EE000044600F124080168880604D5E06921F071
:100EF0001001216000E00120A84201DD471B00E055
:100F00000027A1697A1902EB0900081AA06120786C
:100F1000C00602D42046FFF7E1FB002608E0D4E932
:100F200001211AF806009047206A401C761C2062B6
:100F30004E45F4DB2078C0060AD52046FFF7CEFBED
:100F400006E0D4E9012130209047206A401C20624D
:100F5000381EA7F10107F4DC07E0D4E9012118F8F5
:100F600005009047206A401C2062281EA5F101055B
:100F7000F3DC2046FFF7C8FB2078000602D50220EC
:100F8000BDE8F0870120FBE711680268006A53059D
:100F900001D508700AE0D30501D5088006E01306E4
:100FA00003D5C217C1E9000200E0086001207047C4
:100FB00001694A1C02610878704700B58FB0CDE91D
:100FC00001310021059105497944CDE9031011460D
:100FD0006846FFF70FFC0FB000BD0000E5FFFFFF04
:100FE0000A6802F8010B0A607047D1E900239A42AF
:100FF00002D2531C0B601070704710B5436913B1D7
:10100000AFF3008001E0FFF790FB012010BD1278E4
:1010100000F124010A7000224A700122EDE71168F4
:101020004FF0FF32E9E700002DE9FF5F15468A46E1
:101030000446DFF8AC80F8440027D8E900103E46AB
:10104000CDE9001010E03AF816106A4602A800F048
:1010500014FE411C07D02178890603D5E2693918AE
:1010600091420DD80744761C2078800602D5E069AD
:10107000B84205DDAE42E6DB3AF816000028E2D1C0
:10108000A069C01BA0612046FFF728FBD8E900102B
:10109000CDE90010002017E03AF818106A4602A8BF
:1010A00000F0EBFDB0F1FF3F81460BD000250DF1C4
:1010B000080B05E0D4E901211BF8050090476D1CE1
:1010C0004D45F7D308F10100B0428046E4DB206AC9
:1010D000384420622046FFF717FBBDE8FF9F000061
:1010E0000E2404002DE9F0418046D21D22F00702B3
:1010F0000025D2E90002F52915A614D0011E72F1CF
:10110000000106DA0023D0EB030063EB020211A614
:1011100008E0D8F800108B0701D50FA602E04907B8
:1011200001D50EA601251146002408F1240704E08C
:1011300000F06CF930323A55641C50EA0102F7D1E4
:101140002B46324621464046BDE8F041FFF7C3BE7C
:10115000000000002D0000002B0000002000000017
:1011600030B4002100F1240408E002F00705D208A1
:10117000303542EA4372DB086554491C52EA0305E4
:10118000F3D10468002310A2250707D5A40600D4D4
:1011900021B1C46901230DA2641EC46130BCFFF7F4
:1011A0009ABE10B5044621461068FFF78BFE024632
:1011B0002046BDE810400023D2E7D21D22F00701EF
:1011C000D1E90023CCE7000000000000300000005F
:1011D000F0B40D460188090502D5214C7C4402E09B
:1011E0001F4C7C440E34002100F1240608E002F07C
:1011F0000F071209E75D42EA03721B097754491C85
:1012000052EA0307F3D102780023120704D5702DA8
:1012100006D009B1022311342246F0BCFFF75BBEB1
:1012200001231034F8E770B504460D4621461068D6
:10123000FFF748FE024629462046BDE870400023DD
:10124000C6E7D21D22F00703D3E90023C0E70368F5
:10125000126843F0200303600823C3610023B7E74B
:10126000702204002DE9F04791460F46804604465F
:10127000002614F8015B2DB1FFF7F2F80068405D1D
:10128000C007F6D12B2D02D02D2D18D0641E4A4652
:101290003946204600F0A2FC27B13968A14201D1AD
:1012A000C7F800804FF0020471050BD540420028BA
:1012B00003DDFFF7A1FD0460A007BDE8F08746F459
:1012C0008066E4E70028F8DAFFF796FD04606FF027
:1012D0000040F2E72DE9F04115460E46040002D128
:1012E0002C6804B90BA4204600F0FEFC04442078CE
:1012F00070B127463146384600F0E6FC04442078B9
:1013000010B1002004F8010B38462C60BDE8F081D4
:101310000027F9E70000000070B50C4601680020C6
:101320004A1C3ED03C22B1FBF2F302FB1313B1FB8B
:10133000F2F12360B1FBF2F302FB1313B1FBF2F104
:1013400018226360B1FBF2F302FB1313B1FBF2F15D
:1013500046F2E0320A440721A360B2FBF1F301FB3D
:10136000132140F2B553B2FBF3F5A161B2FBF3F1E7
:1013700003FB15228900B2F5B77F08D39B10521EDC
:10138000B2FBF3F52944B2FBF3F503FB15220F4B37
:10139000E261616189077B440CD03B2A0AD3521C6D
:1013A00008E02C212046FFF782FC0120E0600AE0E3
:1013B000521A401C195C9142FAD9521CC4E903200C
:1013C0004FF0FF302062204670BD00000C21040069
:1013D0000048704798430120034640688C46002827
:1013E00018BF88423CBF03464068F8D318681844C9
:1013F000884207D00CF1030020F00700001D411ABD
:10140000521A0146081D0A60FFF761B830B5B0F105
:101410000A024FEA900E71F100034EEA817EB0EBB2
:101420000E0061EB91014FEA101E4EEA017E10EBB7
:101430000E0041EB11114FEA102E4EEA016E10EB37
:101440000E0041EB11214FEA104E4EEA014E10EB17
:101450000E0041EB1141401841F100014FEAD0006C
:1014600040EA41704FEAD10110EB80054FEA810458
:1014700044EA907444EB01046D1944EB0404521BDC
:10148000A3414FF0000348BF0A3200D530BD401CD5
:1014900041F1000130BD70472DE9FF4F0C461E465B
:1014A0004FF0FF378BB0D2E90001DDF860800A9081
:1014B0008A46C1F30A5505B93D46002108464FF05A
:1014C0000000BAF1000F00F4400005DA00EB8000E4
:1014D0004FF4400101EA50004FEA9059B9F1010F71
:1014E00000DDB9460A9850EA4A000ED044F6105082
:1014F000A5F2FF3545432F14B8F1000F1ED07542F9
:10150000291E1EDDC9F100021CE0B8F1010F4FF0E9
:10151000000001D0302103E0F24305E02154401CDB
:10152000B042FBDB30460022002121540B99C1F868
:101530000880C1E900200FB0BDE8F08FBD1B6D1C15
:10154000DEE74A4600DA694206A800F04FFC06AB27
:1015500093E8070003AB83E8070050460A9900F0C0
:1015600006FD8DE80700A0F500501F380090039895
:10157000002D0ADD42F21F014A460844002303A958
:101580000390684600F06FFF09E0A0F500504A465E
:101590001F38002303A90390684600F079FF8DE807
:1015A00007000004000C03D04FF0FF30410800E0BA
:1015B0001046B8F1000F03D00022009215461EE03D
:1015C000751E05D4FFF722FF303262556D1EF9D526
:1015D000B3460122084302D000227F1C04E0207899
:1015E000302801D100227F1E002A099784D01DE0F7
:1015F000112D07DAFFF70AFF303262556D1C50EAF1
:101600000102F5D1084302D00098C8B10EE00021D4
:10161000681E05E0235C625C63542254401E491C32
:101620008142F7DBAB46A81B401E0990002004F85E
:101630000B000B98099AC0F80880C0E9002B7AE7E4
:1016400011264FF0000857E72DE9F04F8846044671
:10165000D21D22F0070191B0D1E90001CDE90A01C4
:101660000BF07EFD02460B98C00F01D02D2007E045
:101670002068810701D52B2002E0202101EAC0006B
:10168000032A099001D0072A05DB0346414620467C
:1016900000F05EFB0BE12078800601D5E06900E0F8
:1016A0000620B8F1650F814606D0B8F1660F18D054
:1016B000B8F1670F70D131E00020B9F1110F00903F
:1016C00001DB112301E009F101030AAA01A90CA819
:1016D000FFF7E2FEDDE90C70002609F10105834603
:1016E00047E001204B4600904FF000470AAA01A9AD
:1016F0000CA8FFF7D1FEDDE90DB00C995D46002680
:1017000010B909F101000D18B9EB050003D4C0F1BF
:10171000FF3609F10105A5EB09002BE0B9F1010F36
:1017200001DA4FF001090020B9F1110F009048468D
:1017300001DD112300E003460AAA01A90CA8FFF766
:10174000ABFEDDE90C704D4600268346207800078D
:101750000AD4AB4500DA5D4601A8012D04DD41192C
:1017600011F8011C302907D04F4502DA17F1040F98
:1017700004DA012082460FE06D1EEEE7002F02DC46
:10178000ED1B3E4403E0781CA84200DD7D1CB81B25
:1017900000F1010A4FF000472078000703D4AA4562
:1017A00001DB4FF0FF3A0021B7F1004F0DF1430884
:1017B0008DF8431024D002202B23002F01DA7F4222
:1017C0002D230A21021EA0F1010000DC5FB197FB6E
:1017D000F1FC97FBF1F201FB1C7C17460CF1300C7D
:1017E00008F801CDEEE7A8F1010003702188090592
:1017F00001D5452100E06521A0F1010800F8011C98
:1018000009980FA9A1EB0807FF1D00B1012041199C
:1018100001EBEA70A1693844081A401EA0612078E3
:10182000C00602D42046FEF759FF099828B1D4E932
:1018300001219047206A401C20622078C00622D5F2
:101840002046FEF74BFF1EE0002E04DBB34502DD11
:1018500001A8805D00E03020D4E901219047206A92
:10186000401C2062761CAAF101005FEA000A0AD13E
:10187000FFF7BEFAC0680168405CD4E901219047D7
:10188000206A401C2062281EA5F10105DCDC07E06F
:10189000D4E9012118F8010B9047206A401C20620E
:1018A000381EA7F10107F3DC2046FEF72DFF0320C9
:1018B00011B041E62DE9F04F04460D46D21D22F04D
:1018C000070089B0D0E90097484639460BF048FC3C
:1018D0000246F80F01D02D2307E02068810701D5CB
:1018E0002B2302E0202101EAC0038DF820300BB148
:1018F000012000E00020032A824601D0072A04DBF1
:101900002946204600F024FA3FE12078800601D4E1
:101910000D2500E0E569C7F30A560D2D49DA0021CF
:101920004FEA175B08464FF00000002F00F440001C
:1019300007DA00EB80004FF4400100EBD07001EAC1
:1019400060008115012901DD4FF0FF3100224FEACF
:10195000850CBCF1180F06D31346ACF118004FF0FC
:101960008052C24003E04FF4801323FA0CF30CF1D1
:101970000C0CBCF1200F04D3ACF1200C09FA0CF0D4
:1019800001E007FA0CF000294FF0004801DD18B91A
:101990000FE00ED140450CD319EB02095F4121B98C
:1019A000404502D19F4329EA0209BBEB175F00D0F3
:1019B000761C2088000502D57B48784402E07A48EE
:1019C0007844193808AA302302F80A30037C0AF157
:1019D0000101002E0AF1020A53546A4602DC4FF05C
:1019E000300101E04FF031014FF001088DF8001097
:1019F00002D0A6F2FF3603E059EA470100D06B4E51
:101A0000002D02DC2178090704D54FF002082E21B1
:101A10008DF80110C44600210BE0C7F303433F01DA
:101A2000C35C491C6D1E02F80830052908F1010845
:101A300001DA002DF1DC00210CE000EB1973491CE8
:101A40001B786D1E082902F808304FEA091908F1C1
:101A5000010801DA002DF0DC21688B0602D516E0C2
:101A6000A8F10108E04505DD02EB080313F8013C8D
:101A7000302BF5D0B8F1000F09DD02EB080313F8A5
:101A8000013C2E2B03D1090701D4A8F10108002D38
:101A900005DD3E2102F808106D1E08F10108407CAA
:101AA000002E02F8080008F1010804DA2D20764221
:101AB00002F8080002E02B2002F808000A214FF487
:101AC0007A70864208F101080BDB96FBF0F33033A5
:101AD00002F8083096FBF0F308F1010800FB1366EA
:101AE00001E0642E0CDB642096FBF0F3303302F847
:101AF000083096FBF0F308F1010800FB136601E0E3
:101B00000A2E06DB96FBF1F0303002F8080008F1EF
:101B1000010896FBF1F001FB1060303002F808007C
:101B2000A16908F1010808EB050202EB0A00081A96
:101B3000A0612078C00602D42046FEF7CFFD216ABE
:101B400008AE01EB0A00206204E0D4E9012116F896
:101B5000010B9047BAF1010AF7D22078C00602D5EE
:101B60002046FEF7BBFD6E4609E016F8010B3E2845
:101B70000FD0D4E901219047206A401C2062B8F1BF
:101B80000108F2D22046FEF7BFFD09B00320BDE8F0
:101B9000F08F206A2844206203E0D4E9012130203C
:101BA00090476D1EEBD3F8E7D51A040002FCFFFF47
:101BB00010B5436913B1AFF3008001E0FFF734FAC9
:101BC000012010BD128800F1240182840022C28409
:101BD0000122EDE711684FF0FF32E9E72DE9F05FF0
:101BE000824615468B4600270AF10104B946007863
:101BF000302801D09DB113E014F8010B012778289B
:101C000003D0582801D045B10AE00DB1102D07D1FD
:101C1000002714F8010B102502E0082500E00A2532
:101C20000026B0460EE005FB080005FB06F1012783
:101C30001FFA80F801EB1046B6F5803F00D3B94695
:101C400014F8010B294600F0C3F80028EBDABBF1C9
:101C5000000F05D00FB1641E00E05446CBF80040E1
:101C6000B9F1000F06D0FFF7C7F802210160C81EC6
:101C7000BDE8F09F48EA0640FAE770B516460C4604
:101C80000546FEF7EDFB036893F80101012806D035
:101C9000FF2C0FD8185D68B101202C7070BDD3F8EF
:101CA00007013246214603F2071303442846BDE8E4
:101CB000704018474FF0FF3070BD10B500F016F9B6
:101CC000BDE8104000F00DB930B503461D781DB1D8
:101CD0000A4603E0AC4201D1181A30BD12F8014B9C
:101CE000002CF7D15B1CF1E730B503461D783DB100
:101CF0000A4612F8014B1CB1AC42FAD15B1CF5E765
:101D0000181A30BD7546FFF763FBAE4605006946FD
:101D1000534620F00700854618B020B5FEF78CFB2F
:101D2000BDE820404FF000064FF000074FF00008DC
:101D30004FF0000B21F00701AC46ACE8C009ACE85D
:101D4000C009ACE8C009ACE8C0098D467047000086
:101D50002DE9F0411F46044603260168072A01F4D5
:101D6000006004DB08B116A505E016A503E008B184
:101D700015A500E015A521F010002060A069C01E87
:101D8000A0610FB1401EA0612046FEF7A7FC4FB135
:101D9000D4E9012138469047206A401C2062C01CCB
:101DA000206206E0206AFAE7D4E9012115F8010B68
:101DB0009047761EF8D22046FEF7A6FCBDE8F081DB
:101DC0004E414E006E616E00494E4600696E6600DF
:101DD0003A2800D2303820F02002412A01D3A2F163
:101DE0003700884201D34FF0FF3070472DE9F047AC
:101DF000814616468AB0354878440DC88DE80D00F6
:101E000032487844801C03AC0DC884E80D0041F6CC
:101E10009B300844372190FBF1F290FBF1F5A5F1DE
:101E2000800501FB12041B3C02D56442012000E046
:101E30000020DFF898A080460027FA44AAF1BE0AE5
:101E40000EE0E0070AD03246684607EB470101235F
:101E50000AEB810100F01CFB8DE8070064107F1C79
:101E6000002CEED1194F7F44AE3F19E0E80715D0A2
:101E700007EB04100DF1180A90E80E008AE80E0036
:101E8000C068F04201D1981908903246012306A992
:101E900003A800F0FDFA03AB83E807006D10641C93
:101EA000002DE3D14FF0010332466946B8F1000F2F
:101EB00003A802D000F0D7FA01E000F0E9FAC9E97E
:101EC0000001C9F808200AB0BDE8F0873417040003
:101ED00010B50446AFF300802046BDE81040FEF781
:101EE00018BA002801D00CF052B8704710B501287C
:101EF00005D0002103A000F021F8012010BD09A1A8
:101F0000F8E7000053494752544D454D3A204F756C
:101F100074206F662068656170206D656D6F7279E1
:101F2000000000003A2048656170206D656D6F7299
:101F30007920636F727275707465640070B50546C0
:101F40000C460A2000E06D1C0CF022F835B1287810
:101F50000028F8D102E0641C0CF01AF814B12078C3
:101F60000028F8D1BDE870400A200CF011B85FEAF3
:101F7000400C08BF91F0000F4FEA8C234FEAC122BA
:101F800043EA51514FEA1C5018BF00F5F0404FEAA8
:101F9000300018BF41F000415FEA6C5C00F029801E
:101FA000BCF1FF3F08BF40F080407047130C06BFF4
:101FB00012044FF0100C4FF0000C130E04BF12026D
:101FC0000CF1080C130F04BF12010CF1040C930F59
:101FD00004BF92000CF1020CD30F04BF52000CF1AD
:101FE000010C11464FF00002A0F11F00A0EB0C0005
:101FF000704711F0004F08BF704731F000413FF4C7
:10200000D5AF0B0C06BF09044FF0100C4FF0000CBD
:102010000B0E04BF09020CF1080C0B0F04BF0901E1
:102020000CF1040C8B0F04BF89000CF1020CCB0FD8
:1020300004BF49000CF1010CCCF12003A0EB0C0013
:1020400022FA03F302FA0CF241EA030100F1010063
:10205000704720F07F4C80EA030023F07F47ACEB11
:10206000070303F57C5300F0004003F1FF032DE963
:1020700080494FEA154B09B44FEA144325EA0B4E49
:1020800024EA03480FF2042606EB132749083E789A
:102090005FEA320203FB0667C7F5000707FB06F697
:1020A0004FEA54374FEAD64606F1020607FB066CA4
:1020B000CCF1005C4FEA1C472CEA074C07FB06F406
:1020C0000CFB06F504EB15464FEA961634BF0020CC
:1020D0004FF000404FEAD13706FB07FC4FEA1C4C9B
:1020E0000CFB0BF7D21B03FB0CF761EB07010CFB9E
:1020F0000EF7B0EB074072EB17420CFB08F734BF4A
:10210000A2EB0742B2EB074261EB17414FEA0C44E6
:102110004FEA910706FB07FC4FEA1C4C0CFB0BF740
:10212000B0EBC74072EB573203FB0CF734BFA2EBA6
:10213000C742B2EBC74261EB57310CFB0EF7B0EB75
:10214000C70072EB57720CFB08F734BFA2EBC70253
:10215000B2EBC70261EB5771039F4FEA816141EA1D
:10216000921104EBCC044FEAD1374FEA826206FBAE
:1021700007FC42EA90124FEA80604FEA1C4C0CFBCD
:102180000BF7D21B03FB0CF761EB07010CFB0EF7FF
:10219000B0EB074072EB17420CFB08F734BFA2EB21
:1021A0000742B2EB074261EB17414FEA8C554FEA09
:1021B000910704EB9C2406FB07FC4FEA1C4C0CFB2C
:1021C0000BF7B0EBC74072EB573203FB0CF734BF91
:1021D000A2EBC742B2EBC74261EB57310CFB0EF7E3
:1021E000B0EBC70072EB57720CFB08F734BFA2EBE1
:1021F000C702B2EBC70261EB577115EB4C254FEAF2
:10220000816141EA92114FEA82624FEAD13742EA94
:10221000901206FB07FC44F100044FEA80604FEA8D
:102220001C4C0CFB0BF7D21B03FB0CF761EB0701FB
:102230000CFB0EF7B0EB074072EB17420CFB08F7F4
:1022400034BFA2EB0742B2EB074261EB174115EB3B
:102250001C154FEA813141EA92414FEA823242EA4B
:1022600090424FEA80304FEA0C7644F1000448EA8D
:1022700003434EEA0B484FF0000EB2EB080C71EB33
:10228000030724BF624639464EEB0E0E4FF0000B9B
:102290000018524149414BEB0B0BB2EB080C71EBB0
:1022A00003077BF1000B24BF624639464EEB0E0E4E
:1022B0004FF0000B0018524149414BEB0B0BB2EBB6
:1022C000080C71EB03077BF1000B24BF6246394613
:1022D0004EEB0E0E51EA020718BF46F0010616EB50
:1022E0000E7655F1000254F1000103D5BDE88901D5
:1022F000BDE80088BDE88901BDE80048B619524133
:1023000041EB0101A3F10103704780807F7E7D7C5A
:102310007B7A7978777676757473727171706F6E77
:102320006E6D6C6C6B6A6A69686867666665646422
:10233000636362616160605F5F5E5E5D5D5C5C5BAC
:102340005B5A5A595958585757565655555554541B
:10235000535352525251515050504F4F4F4E4E4D79
:102360004D4D4C4C4C4B4B4B4A4A4A4949494848C5
:102370004847474747464646454545444444444305
:1023800043434342424242414141002B9C4630D4A8
:1023900077002BD01CB54FEA370703B44FF010007D
:1023A0004FF01001BAF1000F06D0BCF1000FDCBFF6
:1023B00040F0080040F008014FF000000FBCBDE8FD
:1023C00010400BF1010BBBF1010F08BF5FEA1707CB
:1023D00022BF12F1010211F101014FF0004143F15E
:1023E000000300F0004043EA00007047F9D35708AB
:1023F000D0E746EA064613F1400F4FEA16461FDDC6
:1024000013F1200FDFBF16430A46002120335B4241
:10241000BED0C3F1200746EA064602FA07F74FEAA4
:10242000164646EA0706C3F1200722FA03F201FA2C
:1024300007F721FA03F14FF0000342EA0702A7E78A
:1024400046EA020646EA06464FEA164646EA01060C
:10245000BCBF46EA0646360C4FF000034FF00002C0
:102460004FF0000194E72DE9804C9A46934670B4F2
:1024700091E8380007C831EA400C48BF34EA430C01
:1024800003D5FFF7E6FDFFF780FFF0BCBDE8008C49
:102490002DE9804C9A46934670B491E8380007C8FD
:1024A00010F0804F08BF13F0804F03D100F005F803
:1024B000FFF76BFFF0BCBDE8008C20F07F4780EA9F
:1024C000030023F07F4C07EB0C03A3F57C5300F0D3
:1024D0000040A3F1FE0392F0000F00F0B38095F0EE
:1024E000000F00F077802DE901494FEA11404FEAD3
:1024F000144621EA004800FB06FC24EA064708FBD4
:1025000006F607FB08F800FB07F718EB06484CEB4C
:10251000164C4FEA124B18EB07484FEA15464CEBA6
:10252000174022EA0B4E0BFB06FC25EA06470EFB82
:1025300006F607FB0EFE0BFB07F71EEB064E4CEBF9
:10254000164C4FF000061EEB074E4CEB174B18EBEA
:102550000B0840F1000018EB0E0B58EB000840F19F
:1025600000008F1A4FF000013CBFC943661B14BF27
:10257000B5EB040C00213CBFC943F61B4FEA1744DE
:102580004EEA8E0E27EA04454FEA1C4704FB076219
:102590002CEA074C05FB07F70CFB05F604FB0CFCCB
:1025A00016EB074642EB174216EB0C4642EB1C4279
:1025B0001BEB060658EB0202414146EA9E0601D596
:1025C000BDE80189B619524141EB0101A3F10103B4
:1025D000BDE801894FEA14454FEA114724EA054650
:1025E00021EA074C05FB07F406FB07F70CFB06F195
:1025F00005FB0CFC11EB074144EB17444FEA124773
:1026000011EB0C4144EB1C4422EA074C05FB07F29A
:1026100006FB07F70CFB06F605FB0CFC16EB074662
:1026200042EB174216EB0C4642EB1C456A1854F17C
:10263000000148BF7047B619524141EB0101A3F1B7
:102640000103704795F0000F37D04FEA11424FEA6F
:10265000144721EA024624EA074C02FB07F106FB75
:1026600007F70CFB06F402FB0CFC14EB074441EBF0
:1026700017414FEA154714EB0C4441EB1C4125EA86
:10268000074C02FB07F506FB07F70CFB06F602FBFF
:102690000CFC16EB074645EB174516EB0C4645EBD5
:1026A0001C42121951F1000148BF7047B61952413E
:1026B00041EB0101A3F1010370474FEA14454FEAD2
:1026C000114724EA054621EA074C05FB07F106FB02
:1026D00007F70CFB06F24FF0000605FB0CFC12EBB3
:1026E000074241EB174112EB0C4251EB1C4148BF32
:1026F0007047921841EB0101A3F1010370470000FC
:102700007FB5002013F09CFD039003A803F034FE76
:102710000168009141680191224D0089ADF80800DF
:10272000A88B012460B19DF80420C0B204FA02F124
:10273000EA6F114201D0012100E0002109F0CCF93B
:10274000E88B68B19DF80420C0B204FA02F1D5F814
:102750008020114201D0012100E0002109F0BCF9E4
:10276000288C68B19DF80420C0B204FA02F1D5F8B3
:102770008420114201D0012100E0002109F0ACF9D0
:10278000A88B03F09BFA084A38B9E88B03F096FA55
:1027900018B9288C03F092FA08B154817FBD00204B
:1027A00050817FBDD8580020286200202DE9F041DB
:1027B000002013F045FD2B4C01262B4DE17800271E
:1027C00011B1012940D108E003F088FA88B3274904
:1027D0000DC881E80D00E67036E0244B99685B680F
:1027E00021F07042B5F8FC10C01AC1EB011102EBE8
:1027F000810282420BD295F83000002109F06CF979
:1028000095F83200002109F067F9E7701CE0B0EBA1
:10281000810F19D91648008881060BD5400609D5C5
:1028200095F83000012109F057F995F8320001219F
:1028300008E009E095F83000002109F04DF995F81D
:102840003200002109F048F9288E03F037FA094ACE
:1028500018B9688E03F032FA10B11681BDE8F08124
:102860001781FBE704000020D8580020D047002043
:1028700006010020286200202DE9F041002013F01D
:10288000DFFC3C21B0FBF1F0324B0125324C1979D1
:10289000002659B1314A01290BD0032929D01E71D4
:1028A000A08E03F00BFA2E4AE0BB49E098621D713E
:1028B000F6E7996AB4F81C71411AB94202D90321AA
:1028C00019719862108800F0010200F00401521E94
:1028D000114323D1800703D594F83400012127E068
:1028E00094F83400012109F0F7F894F8360000213B
:1028F00023E0996AB4F81C71411AB94202D91D71DA
:10290000986203E0E08E401E03F0D8F9108800F0D2
:10291000010200F00401521E114304D094F8340067
:102920000021E0E710E08007D6D494F834000021BD
:1029300009F0D2F894F83600012109F0CDF8AFE79C
:10294000E08E03F0BBF910B11580BDE8F081168070
:10295000FBE7000004000020D858002006010020FA
:102960002862002010B5C0B231B1012109F0B4F8DD
:1029700004490120888010BDBDE81040002109F005
:10298000ABB80000286200202DE9F047002013F0CA
:1029900057FC3C21B0FBF1F44F4D03274F4E6878B4
:1029A0004FF001084FF0000905287AD2DFE800F067
:1029B000030C28436500EC612C6285F80180308DA2
:1029C0000121FFF7CFFF76E0E869211AB6F8BC00D5
:1029D0008142308D09D90021FFF7C4FF708D00219D
:1029E000FFF7C0FF0220EC6135E0401E03F066F9FE
:1029F000032860D1308D0021FFF7B4FF708D37E0E0
:102A0000E869B6F8BE10201A884254D9EC61286AE9
:102A1000B6F8C010201A884206D9708D0121FFF740
:102A2000A1FF6F702C6246E0308D0121FFF79AFF05
:102A300085F801803FE0E869B6F8BC10201A8842AA
:102A40000BD9308D0021FFF78DFF708D0021FFF72E
:102A500089FF0420EC6168702DE0708D401E03F04A
:102A60002DF9032827D1708D0021FFF77BFF308DD2
:102A70000121FFF777FF6F701DE0E869B6F8BE101F
:102A8000201A884217D9286AB6F8C010201A88423E
:102A900008D9308D0121FFF765FF85F801802C6290
:102AA00005E006E0708D0121FFF75CFF6F70EC61BF
:102AB00001E085F80190308D03F000F9084A18B95B
:102AC000708D03F0FBF818B1A2F80480BDE8F08720
:102AD000A2F80490FAE7000004000020D858002073
:102AE000286200200548007801060548C08CC0B265
:102AF00001D5012100E0002108F0EEBF0601002011
:102B0000D858002070B505461248124A408C948C63
:102B1000A84202D0AC421CD104460F4800880207EC
:102B200003D511B1E0B2012104E0400707D531B16E
:102B3000E0B2002108F0D0FFE8B2012105E0E8B2E0
:102B4000002108F0C9FFE0B20021BDE8704008F0A4
:102B5000C3BF70BDD8580020060100202DE9F04702
:102B6000002013F06DFB3C21B0FBF1F4654D032711
:102B7000654E28784FF001084FF00009052877D2FC
:102B8000DFE800F00308223D5A002C616C6185F8F3
:102B9000008017E02869B6F89C10201A8842708CD3
:102BA00006D90021FFF7AEFF02202C61287009E052
:102BB000401E03F083F8032804D1B08C0121FFF7F5
:102BC000A1FF2F70708C33E02869B6F89E10201A90
:102BD00088424FD92C616869B6F8A010201A884243
:102BE00006D9B08C0121FFF78DFF2F706C6141E099
:102BF000708C0121FFF786FF85F800803AE0286994
:102C0000B6F89C10201A8842B08C06D90021FFF734
:102C100079FF04202C61287009E0401E03F04EF873
:102C2000032804D1708C0121FFF76CFF2F70B08C4A
:102C30000121FFF767FF1DE02869B6F89E10201AF2
:102C4000884217D96869B6F8A010201A884208D9B6
:102C5000708C0121FFF756FF85F800806C6105E05C
:102C600006E0B08C0121FFF74DFF2F702C6101E0D1
:102C700085F80090708C03F021F8244A244C18B990
:102C8000B08C03F01BF8C8B1A2F80280A86918B98B
:102C9000002013F0D5FAA861606800280CD12878CC
:102CA000012801D0032807D1002013F0C9FA606081
:102CB000A06800F07040A060BDE8F087A2F8029024
:102CC000A8694E4650B1002013F0BAFAA969411A1A
:102CD000A068014461F31B00A060AE616068002839
:102CE000EAD028780128E7D00328E5D0A06820F0B2
:102CF000704000F10050A060054800F0D7FA66600F
:102D0000DAE7000004000020D858002028620020E4
:102D1000AC4A0020054A1278D20603D511B1C0B2E0
:102D2000012101E0C0B2002108F0D6BE060100205A
:102D30002DE9F041002013F083FA3C21B0FBF1F2C1
:102D4000264B0124264D9878002650B101280AD040
:102D5000032820D09E70A88D02F0B0FF214A88BBC6
:102D600033E05A622FE0A88D401E02F0A7FF032136
:102D700003280ED0586AB5F8DC70101AB84201D991
:102D800099705A62A88D0121FFF7C4FFE88D0021D8
:102D900015E09970DFE7E88D401E02F08FFF0328F1
:102DA00011D0586AB5F8DC10101A884201D99C700D
:102DB0005A62A88D0021FFF7ADFFE88D0121FFF7D2
:102DC000A9FFC8E705E09C70C5E7E88D02F076FF33
:102DD00010B1D480BDE8F081D680FBE7040000206C
:102DE000D85800202862002000F020B8002981680F
:102DF00002D041F0010101E021F001018160704742
:102E0000084B10B5D3F8042307490A40D0E9001451
:102E10002143D0E90240044321431143C3F8041382
:102E200010BD000000200140E030FCFF70B58CB008
:102E30000121072006F084F94FF4E06601213046B5
:102E400006F0BAF97820002406908DF81F4003257B
:102E50008DF81C5006A9494802F09CF98DF81F40D6
:102E600006958DF81C5006A9454802F093F90920F3
:102E700006908DF81F408DF81C5006A9414802F0BD
:102E800089F90121280206F0A3F90021304606F055
:102E90009FF9162008904FF470600B904FF480401B
:102EA0000A902804099008A8FFF7AAFF01200094BF
:102EB0000294039404948DF80400334C8DF80500BB
:102EC0008DF814506946204600F07CF80723012253
:102ED0000321204600F0ACF80723022204212046FB
:102EE00000F0A6F8072303220521204600F0A0F8F1
:102EF000264D6946284600F065F807230122062181
:102F0000284600F095F8072302220821284600F001
:102F10008FF8072303220921284600F089F81C4E68
:102F20006946304600F04EF8072301220A21304658
:102F300000F07EF8072302220D21304600F078F8D9
:102F4000072303220D21304600F072F8012000F023
:102F50005FF80121204600F01DF801212046FFF70F
:102F600045FF01212846FFF741FF01213046FFF7C9
:102F70003DFF204600F096F80CB070BD0000024006
:102F800000040240000802400020014000210140EE
:102F9000002201400029816802D041F4807101E0E3
:102FA00021F480718160704740F6E441484300EEAF
:102FB000100A9FED031AF8EE400A80EE810A70476E
:102FC00000F07F4530B542680F4B0C791A400B6812
:102FD00042EA04221343436082680C4B4D791A4045
:102FE000D1E9034323438C6844EA45042343134354
:102FF0008360C26A097D22F47002491EC9B242EAA6
:103000000151C16230BD0000FFFEFFFCFDF7FFC0B3
:1030100006490028D1F8040302D040F4005001E032
:1030200020F40050C1F80403704700000020014064
:1030300070B5072609290AD9C568A1F10A0404EB6D
:103040004404A640B543A3401D43C56007E005699D
:1030500001EB4104A640B543A3401D4305611F2376
:10306000072A09D2446B521E02EB820293409C4312
:1030700091400C43446370BD0D2A09D2046BD21FEA
:1030800002EB820293409C4391400C43046370BD69
:10309000C46A0D3A02EB820293409C4391400C4378
:1030A000C46270BD816841F080418160704700005A
:1030B0000FB42DE9F047234F82460026B87890469A
:1030C0008946A7F11405012808D0022829D001203B
:1030D000B8700020BDE8F0075DF814FB0B9888B1CC
:1030E0004FF48060FDF7C4F9041EF3D00CAA0B99CD
:1030F000FDF7B0FA234642464946504608F00CF91F
:1031000010B108E00024F5E70220B870B5F900001E
:10311000002800DA2E80002CDBD02046FDF7D7F9FE
:10312000D7E7B5F90000411C05D0C11C03D0801CB5
:10313000CFD10220CEE7104600F006F80428C9D10E
:103140002E80C6E75401002070B5054639A13A48E3
:10315000FDF740FC04006AD038A1FDF7FBFD002814
:103160004BD037A12046FDF7F5FD002847D04DB1E3
:103170002846FDF791FC024629462046FDF7ABFCA8
:1031800000283ED00A2230A12046FDF7A4FC0028EA
:1031900039D00A222FA12046FDF79DFC002834D00B
:1031A00006222FA12046FDF796FC00282FD02EA145
:1031B0002046FDF7CFFD60B32FA12046FDF7CAFDE5
:1031C00048B307222AA12046FDF785FC28B32EA18B
:1031D0002046FDF7BFFD10B32DA12046FDF7BAFD37
:1031E000F8B12EA12046FDF7B5FDE0B12CA1204697
:1031F000FDF7B0FDC8B1032070BD062070BD0720EB
:1032000070BD052070BD082070BD092070BD132061
:1032100070BD0F2070BD102070BD0A2070BD112040
:1032200070BD122070BD0C2070BD0D2070BD04203B
:1032300070BD00000D0A0000D46300204F4B000059
:103240004552524F520000002B434D4520455252EB
:103250004F5200002B434D53204552524F52000015
:1032600053544154453A0000414C52454144592081
:10327000434F4E4E45435400434F4E4E454354201A
:103280004641494C0000000053485554204F4B0024
:10329000434C4F5345204F4B00000000524459000F
:1032A00043616C6C205265616479000030B5164D45
:1032B00000230360A968B9B91449D0E90140CB6083
:1032C000C1E9044001F10C041831C5E902410220B2
:1032D00000EB400204EB82020A60401C11463C28CD
:1032E000F6D3136030BD11460A68002AFBD1EA68A4
:1032F000002AF7D00A60EA681268EA6009680DC817
:1033000081E80D0030BD000004000020D0470020FF
:1033100010B50D4C092300210C48226804F030FE42
:103320000C2300210A48626804F02AFE0B230021C6
:103330000848A26804F024FEE2680A23BDE81040B1
:103340000021054804F01CBEB87401080DBE000839
:10335000D5BF000875C20008E5C1000810B508F027
:1033600097FC01F0BBFD00F0E3F84FF4407004F06F
:10337000E3F903F025FA00F0E9FBBDE81040FFF7A0
:1033800033BDFEE710B5074C07E011F8013B4340A1
:10339000DBB234F8133083EA1020521ED2B2F4D2DA
:1033A00010BD0000D083010813B5012201A9FFF769
:1033B000E9FF1CBD70B500202DED028B84B0264ABC
:1033C000009001900290A2F112030A24039032F8B7
:1033D0001010E9B333F8105001EBC101294489B250
:1033E000B1FBF4F122F81010401CC0B20828EED353
:1033F0001088ADF80000D088ADF802009089ADF8D3
:1034000004005088ADF806005089ADF80800908897
:10341000ADF80A001089ADF80C000F4ED0890024D9
:103420009FED0E8AADF80E006D46323E35F8140061
:10343000FFF7BAFDC0EE080A06EB8400641CE4B294
:10344000082CC0ED000AF1D304B0BDEC028B70BDB6
:10345000FFE733F81010C5E71E790020000016437F
:1034600030B50020094A0346FF2400EBC00112F8E2
:1034700021508542F9D102EB8101401C4D681A2888
:103480006B6049680C70F0DB30BD000028800108DB
:10349000014600201A2900D3401E70472DE9F0474D
:1034A0000421214801F0C2FE0126204C4FF0020801
:1034B0004FF46179002510B1A068E8B11FE06068A1
:1034C00010B90AF018FE606000F06CFA0327484556
:1034D0000ED2A06800F066FAB0F52F7F01D32670F7
:1034E00007E0B42802D384F8008002E0207800B915
:1034F0002770A560BDE8F0870AF0FDFDA06000F030
:1035000051FA484501D325700CE0606800F04AFA92
:1035100040F2EE21884201D3267003E0B42801D3A3
:1035200084F800806560E5E700080240280200207A
:1035300010B500F07FF8002004F05EFC054C206020
:1035400030B1012004F058FC6060002801D1FEE792
:10355000FEE710BD2C0100202DE9F84F174602466A
:103560000098002540F0004062F39E6061F319402E
:10357000009099462E468DF801704FF0FF3B202FAA
:1035800002D95846BDE8F88F00224FF480512748F1
:1035900001F05EFE3C2008F0C3FADFF894A003249B
:1035A000E84618F8040008F0BBFA0AF805006D1C9C
:1035B000EDB218F804103046FFF7F6FE641E06461A
:1035C00014F0FF04EDD10F200BF009F80EE00020FD
:1035D00008F0A6FA09F8040001463046FFF7E4FEB9
:1035E000064605200AF0FBFF641CE4B2BC42EED3A1
:1035F000F0B208F095FA044605200AF0F0FF300A10
:1036000008F08EFA60F31F243220401C10F0FF00F7
:10361000FBD101221103054801F01AFEB44201D189
:103620000020AFE700F006F8ABE70000000402401E
:10363000366300202DE9F04188B00121022005F019
:103640007FFD4FF480480121404605F09DFD022595
:103650008DF804504FF460408DF8055000242C4F35
:1036600000908DF806408DF807406946384601F015
:1036700091FD05220D21384601F0C8FD05220E21DD
:10368000384601F0C3FD05220F21384601F0BEFD8A
:1036900001208DF804008DF80550EE028DF80640EB
:1036A00000968DF807406946384601F073FD012207
:1036B0003146384601F0CCFD0121404605F070FD51
:1036C0000021404605F06CFDADF808404FF48270D3
:1036D000ADF80A00ADF810402802ADF81200302015
:1036E000ADF81400ADF80C40ADF80E40ADF8164042
:1036F0000720084CADF8180002A9204607F0A7FDE6
:103700000121204607F08EFD08B0BDE8F0810000E1
:1037100000040240003800402DE9F84F924602466E
:103720000098002620F0004062F39E6061F319408B
:1037300000904FF4805B1F468DF801A03246594639
:10374000294801F085FD3C2008F0EAF901462748A8
:10375000012503240170E846814618F8040008F0AA
:10376000DFF909F805006D1CEDB218F804103046B9
:10377000FFF71AFE641E064614F0FF04EDD10DE0BB
:10378000385D08F0CDF909F805006D1CEDB2395D22
:103790003046FFF709FE641C0646E4B25445EFD3F9
:1037A00005200AF01CFFF0B208F0BAF90446052023
:1037B0000AF015FF300A08F0B3F960F31F24322134
:1037C000491C11F0FF01FBD101225946064801F0C6
:1037D0003FFDB44202D10020BDE8F88FFFF72AFF79
:1037E0004FF0FF30F8E7000000040240366300208D
:1037F00070B500254FF4803405E0802006F036FADD
:1038000008B144B101E0641EF7D240F2FF5006F067
:1038100005FA284670BD032070BD000010B50446AF
:103820001348016811F0450FFBD0042006F01EFA82
:1038300020B1042006F0F2F9032010BD012006F0AB
:1038400015FA20B1012006F0E9F9012010BD084861
:1038500024380068A04201D0102010BD40F2FF5073
:1038600006F0DCF902482038006800F0080010BDBE
:10387000342C014010B500244FF480310E4809E08B
:10388000026812F0450F05D009B1500705D5032491
:1038900004200CE0491EF3D2F7E7012006F0E6F918
:1038A00018B10124204606F0B9F940F2FF5006F0A5
:1038B000B5F9204610BD0000342C014010B50A496E
:1038C000086810F0450FFBD0042006F0CFF920B1B6
:1038D000042006F0A3F9032010BD40F2FF5006F0CB
:1038E0009DF9002010BD0000342C014070B5064643
:1038F0001C480D460024026812F0450FFBD004203E
:1039000006F0B4F920B1042006F088F9032070BD58
:10391000012006F0ABF920B1012006F07FF901206B
:1039200070BD104824380068B04212D140F2FF50F8
:1039300006F074F90B482038026812F4604F03D087
:10394000900404D5132070BD100C288007E05004AB
:1039500001D5102070BD100401D50F2070BD204688
:1039600070BD0000342C014010B500244FF48032AB
:103970000B4809E0016811F0450F05D00AB148076E
:1039800005D50324042006E0521EF3D2F7E74806CB
:1039900003D50024402006F041F9204610BD000068
:1039A000342C014010B5044604F09AFDA04201D326
:1039B000001B10BDE143084410BD00002DE9F04F8D
:1039C000934600F00702C6084FF0000041B1DFF84F
:1039D0006CA0DFF86CE001F10709C2F108051DE0F9
:1039E0001870BDE8F08FDEF818701AF8258007EB24
:1039F0000B143718A4681AF822C0E75DD74007EA0D
:103A0000080704EB0608441C18F8048008EA0C08B0
:103A100008FA05F847EA08071F54E0B2B0EBD90FDF
:103A2000E1D34A07DDD0184401F0070310F8012D57
:103A30001AF823100A400270D3E70000047C010842
:103A4000080100202DE9F04F8B4600F00701C40863
:103A50000020DFF89490DFF894A040E01E181D5C71
:103A600076781AF8218005EB0625AEB2D9F8185001
:103A700005EB0215D5F808C025181CF8057007EAF3
:103A800008070CF80570D9F818C006FA01F80CEB15
:103A9000021C47EA0807DCF808C00CF80570E1B121
:103AA000D9F818501AF8218005EB0215AD682F19C6
:103AB000451C17F805C02CEA080C07F805C0D9F812
:103AC0001870C1F1080807EB021726FA08F6BF685C
:103AD0004CEA060C274407F805C0401CC0B2B0EB06
:103AE000DB0FBBD3BDE8F08F08010020047C010888
:103AF00070B5134D134E00242946304600F024F9CA
:103B0000002818D02946304600F022F80E490A2332
:103B1000A1F1120231F8140070B132F8145000EB28
:103B2000C000284480B2B0FBF3F021F81400641CFC
:103B3000E4B2082CEED370BD32F81400F5E70000B3
:103B400020000010106402401E79002000F020B810
:103B5000074A904201D2074801E005481038064A5A
:103B60008B0001EA020101D5C16070478160704796
:103B700010640240006002407D0F7D0F0029016843
:103B800002D041F0010101E021F001010160704724
:103B900010B5012190B0880505F0D2FA154C2046E9
:103BA00000F02EF8204600F0C7F80028FAD112499C
:103BB000CDE900011149CDE902100921CDE9041038
:103BC0004FF48061069149000791890008914911DD
:103BD00009910902CDE90A100121CDE90C100E90DE
:103BE0006946204600F0CAF801212046FFF7C6FFCB
:103BF00010B010BD10640240082301400C79002071
:103C00002DE9F043016821F001010160002101600C
:103C100041608160C1600161212141613C493C4AB0
:103C20003D251039904202D18D60BDE8F083384ABD
:103C30004FF474661832904201D18E60F5E7344A31
:103C40004FF474173032904201D18F60EDE7304A63
:103C50004FF0746C4832904202D1C1F808C0E4E7DA
:103C60002B4B2C4A6033984201D1CA60DDE7284CC7
:103C7000294B7834A04201D1CB60D6E7DFF89080A1
:103C8000264C08F19008404501D1CC60CDE7DFF823
:103C900080804FF03D5908F1A808404502D1C1F895
:103CA0000C90C2E71E49DFF878800839404501D101
:103CB0000D60BAE71A4D1835A84201D10E60B4E77D
:103CC000174D3035A84201D10F60AEE7144D48358D
:103CD000A84202D1C1F800C0A7E7114D10496035D4
:103CE000091FA84201D10A609FE70D4A783290422D
:103CF00001D10B6099E70A4A9032904201D10C60E1
:103D000093E7074AA83290428FD1C1F800908CE720
:103D1000106002403D000020400F002000003D20C8
:103D2000106402400029016802D041F0200101E046
:103D300021F0200101607047014600200968C90791
:103D400000D00120704700000246094B00209A4233
:103D500001D2084A01E0064A103A8B0001D55268A8
:103D600000E01268044B1A400A4200D0012070475C
:103D700010640240006002407D0F7D0F30B5036883
:103D8000124ACC6813400A682243D1E905452C4306
:103D90002243CC6922430C6A22434C6A22438C6A38
:103DA00022434C6B22438C6B22431A4302604269CC
:103DB00022F00703D1E90B2422431A4342610A6926
:103DC00042604A6882608968C16030BD3F801CF0F3
:103DD00070470000014948617047000000900240B0
:103DE000044A0029D16901D0014300E08143D16137
:103DF000704700000090024005490028886902D001
:103E000040F0020001E020F00200886170470000ED
:103E100000900240F0B5124F00234FF0004C44F2E6
:103E2000F45E561E786013E000EB4314C4F800C043
:103E3000C3EBC31505EB450501EB8505C4E901E5B9
:103E4000B34203D204F12005E56000E0E0605B1CB2
:103E50009342E9D30349C8600348B860F0BD00004D
:103E6000CC02002000900240A41301200549002844
:103E7000886902D040F4005001E020F400508861CD
:103E80007047000000900240F0B50F4C00234FF443
:103E90008017561E206011E000EB43142760C3EB2F
:103EA000C31505EB450501EB8505A560B34203D2BB
:103EB00004F12005E56000E0E0605B1C9342EBD379
:103EC00002490861F0BD0000CC02002000900240D1
:103ED00002680A430260704710B501214C06204673
:103EE00005F03AF92046BDE81040002105F034B94C
:103EF00001B581B001980090002801D0401EFAE77A
:103F00000CBD00000248816941F480118161704755
:103F1000009002400148006880687047CC02002091
:103F200002680021002A08DB0268120405D4026836
:103F3000D20502D50068C0F30D4108467047000065
:103F4000034900200968C90700D00120704700001C
:103F50000090024010B5094C01E00FF053F92068C1
:103F6000FFF7DEFF0028F8D14020FFF733FFBDE860
:103F700010404FF48030FFF72DBF0000D00200202A
:103F80002DE9F04186B000277F4E04460097019747
:103F90003069884620F01C0502A805F025F97B4908
:103FA00003987B4A0144914202D245F0080516E08D
:103FB0007849794A0144914202D245F00C050EE05D
:103FC0007649774A0144914209D3764908447649B3
:103FD000884202D245F0040501E045F01005356144
:103FE0004FF400420021404600F06CFA00282DD02A
:103FF0006E48FFF77DFF2068B0B301980121401C97
:104000000190404600F086F9400702D401986428E8
:10401000F3D3674D0198A84217D04FF48052002186
:104020004046019700F04EFA00280FD00198012178
:10403000401C0190404600F06DF9800602D40198C2
:104040006428F3D30198A84203D1002006B0BDE84C
:10405000F0811F214046019700F05CF9C10604D5AC
:104060004FF40061216201E008E02762400701D5BA
:10407000676113E04FF4804060610FE0206A61697E
:10408000C00840EA510082B20021404600F01AFA0E
:104090000028DBD06FF07F40FFF72AFF31684548EA
:1040A0000140D4E901021043E26854F8103F1A437A
:1040B000104362681043A2681043E268104322690B
:1040C000104362691043A2691043E2691043226AF7
:1040D0001043626A104308433060F4E90A01084360
:1040E000D4E9021211430843216908436169084376
:1040F000A1690843E16908437060206AB060606AA2
:10410000F060B0694FF641710840D4E90B121143D9
:10411000238D626B42EA03421143A26B1143E26BAF
:1041200011430143B161D4E910010843F061224811
:10413000826922490A40D4E912131943D4E914359B
:104140002B431943A36D1943E36D1943236E1943A0
:10415000636E1943A36E194311438161D4E91B12A5
:104160001143626F54F8783F1A431143626841EA81
:104170008201A268114341F400010160016841F02D
:1041800080010160012061E70080024000D3CEFE83
:10419000C0E1E40040F1E9FD40787D0100796CFC6C
:1041A000005A6202001F0AFA80F0FA02FFFF0F00B5
:1041B000FFFF04000F8120FF00900240233FDEF844
:1041C000054B8A88184402640A78D1F8011042EA43
:1041D00001214164704700000080024010B5B0B07A
:1041E00001214FF0606004F0ABFFFFF775FE00F0B7
:1041F000E9F8FFF7A5FE0128FBD0684600F0FBF8C0
:104200000120009000204FF40071CDE90A1009044C
:1042100007901190CDE920010E90149013900A118F
:1042200015902590269023920420CDE92801800343
:104230002A9080012B9040122C9040002E9000215B
:104240006846FFF79DFEC4B2012C03D1012103484B
:10425000FFF7C6FD30B0204610BD00004000010051
:1042600005490028086802D040F0040001E020F071
:1042700004000860704700000080024005490028E3
:10428000086802D040F0080001E020F00800086053
:10429000704700000080024010B5094C00202168E2
:1042A0000FF028FA002061680FF024FA0020A168BE
:1042B0000FF020FAE168BDE8104000200FF01ABAB4
:1042C0001802002070B5A02100200FF01FFA104C3A
:1042D000A021206000200FF019FA41F6C45560605B
:1042E000294600200FF012FAA060294600200FF0A6
:1042F0000DFAE060216831B1616821B1A16811B1A6
:1043000008B1002070BDFFF7C7FF012070BD00009D
:104310001802002018B500220092124A13694FF6C5
:10432000FF7403F01C0304EAC02018434FF4F86341
:1043300003EA8111014321F0020040F00100106105
:1043400009490098401C00901069C00702D00098ED
:104350008842F6D30098884201D1002018BD5069E8
:1043600080B218BD00800240FFFF040070B5134CFE
:1043700000231A4621680D68002D0BDA10491646F5
:104380004B691B0602D580234B618E600260426040
:10439000826070BD0D682D040AD40D68ED0507D547
:1043A0000D68AD0504D50A68C2F30D438A681B1F6A
:1043B000CD6825600360C0E9012170BDD0020020F6
:1043C000009002400248016841F00101016070471D
:1043D0000090024000B50120FFF750FFFFF792FD6B
:1043E0000120FFF73DFF0120FFF740FD01205DF8B0
:1043F00004EBFFF701BD01210160002141608160F4
:104400004FF48042C160C0E90412D2108161C0E95A
:10441000071241628162C16201634163402281638C
:10442000C0E90F122022C0E91121C1640165416574
:1044300081658022C165C0E918128166C166016785
:104440004167D2048167C0E91F125210C0E92121DF
:104450001311C0E92331C0F89410C0F89810C0F8C7
:104460009C10C0E928125212C0F8A8209201C0F88E
:10447000AC205212C0E92C21C0F8B81070470000DF
:104480000E4A11680B68002B01DA00207047C0F358
:104490000C004860086840F040500860086840F030
:1044A00000400860064843695B0703D50423436165
:1044B00000234360C868106001207047CC020020D0
:1044C0000090024038B500230093114B1C694FF651
:1044D000FF7504F01C0405EAC02020434FF4F86483
:1044E00004EA8111014341F003005A61186109494E
:1044F0000098401C00901869C00702D000988842BC
:10450000F6D30098884201D1002038BD012038BD83
:1045100000800240FFFF040010B5102000F01EF8DC
:10452000002804D0BDE81040102000F011B810BDE4
:1045300010B54FF48074204600F010F8002806D023
:1045400004F008FC2046BDE8104000F001B810BDA2
:104550000149086070470000143C0140034A0146CD
:10456000002012680A4200D001207047143C01402C
:1045700030B51A4A8379016853B313688B431360CB
:10458000111D0B680468A3430B60017911440B688B
:10459000046823430B60114B083319680468A14376
:1045A00019601C1D21680568A94321604179102903
:1045B00005D011440A68006802430A6030BD1968DA
:1045C000026811431960216800680143216030BD11
:1045D0000079104402688A43026030BD003C01400B
:1045E0002DE9F0410546022803DD6FF00200BDE829
:1045F000F081164C00274FF00208A4F11406A078B1
:1046000002280CD0032802D00320A07016E006F088
:1046100001FF012810D1378084F802800CE0B6F940
:104620000000002804DA0AA10B48FCF793FB38B11C
:10463000B6F90000801C06D0002DE0D10020D6E79E
:104640000120A070D3E74FF0FF30D0E754010020E5
:104650004F4B0D0A00000000D4630020002200F040
:1046600001B8000030B50E4B05460120DC7C032C60
:1046700015D2D87C00241C54D87C03EB8000456004
:10468000DD7C03F110002A54D87C421CDA743030EF
:1046900008703A2048702F208870CC70002030BD00
:1046A000402B012005490028086802D040F48060B2
:1046B00001E020F48060086070470000003C024088
:1046C00070B50646002529B1012927D0022928D036
:1046D0004FF4407500F0DAF809281ED1124C20681A
:1046E00020F440702060206828432060206820F07B
:1046F000F8002060206846F002010843206020682E
:1047000040F48030206000F0C1F8216821F00201FF
:104710002160216821F0F801216070BD4FF480759F
:10472000D8E74FF40075D5E7103C02401C49884299
:1047300001D2002070471B49884201D208207047EF
:104740001949884201D2102070471849884201D285
:10475000182070471649884201D220207047154919
:10476000884201D2282070471349884201D2302064
:1047700070471249884201D2382070471049884258
:1047800001D2402070470F49884201D2482070472B
:104790000D49884201D250207047582070470000D0
:1047A000004000080080000800C000080000010868
:1047B00000000208000004080000060800000808C5
:1047C00000000A0800000C0800000E080D4909202E
:1047D0000A68D20301D5012070470A68D20601D5C4
:1047E000062070470A68D20501D5022070470A6882
:1047F00012F0E00F01D00720704709688907FBD548
:10480000082070470C3C02400248016841F000411A
:1048100001607047103C024070B50D46064600F03E
:1048200035F8092813D10A4C206820F44070206024
:10483000206840F400702060206840F00100206093
:10484000356000F023F8216821F00101216070BD7E
:10485000103C024010B5002303E010C841F823408B
:104860005B1C9342F9D310BD05480068002805DAA7
:10487000034804490C380160034901607047000097
:10488000103C024023016745AB89EFCD08B50920F4
:104890008DF80000FFF79AFF8DF800009DF80000EA
:1048A0000128F7D09DF8000008BD00002DE9F04177
:1048B000092690460F460446B0F1006F01D3A007C9
:1048C00003D04FF0FF30BDE8F081FFF7CDFF0020AF
:1048D000FFF7E8FE1548254604EB880884420ED30E
:1048E0001AE02868401C09D02846FFF71FFF022164
:1048F000FFF7E6FE0646092801D00FE02D1D4545CD
:10490000EFD3092E08D009E020463968FFF784FF6D
:10491000092803D1241D3F1D4445F5D30120FFF78D
:10492000C1FEFFF771FF0020CDE700000000FF1F70
:104930008000A0F1C0400029016802D041F00101CF
:1049400001E0024A1140016070470000FEFF0F00C5
:1049500070B501688900A1F1C0410B68334A13406A
:10496000D0E901242243D0E903452C432243446982
:10497000224384692243C4692243046A2243446A6D
:104980002243846A2243C46A2243046B22431A43AB
:104990000A608168082907D101688900A1F1C04136
:1049A0000A6842F040020A6001688A00A2F1C0422F
:1049B000516801F04043416BD1E9004544EA0514D8
:1049C0008D688E892D0245EA06452C430D8A44EAFE
:1049D00005540D7D896944EA05640C431C43546009
:1049E000C16AB1F5804F08D000686FF07041800057
:1049F000A0F1C040C0F8041170BD01688900A1F1A8
:104A0000C041D1F80421806B094B1A40D0E9003431
:104A100043EA041384688589240244EA05448069D2
:104A2000234303431343C1F8043170BD8000F7FFF3
:104A30000000F0CF2DE9F04798B001217A2004F072
:104A40007FFB0121084604F093FB02258DF80450FA
:104A500000244FF633708DF806400326DFF854A289
:104A600000908DF8056001278DF807706946504663
:104A700000F090FB8DF804504FF683708DF80640DF
:104A8000DFF8349200908DF805608DF80770694664
:104A9000484600F07FFB8DF804504FF23F008DF840
:104AA0000640DFF8188200908DF805608DF80770D9
:104AB0006946404600F06EFB8DF8045040F23F40DE
:104AC0008DF806407E4D00908DF805608DF80770DA
:104AD0006946284600F05EFB0C220021504600F09B
:104AE00095FB0C220121504600F090FB0C22042182
:104AF000504600F08BFB0C220521504600F086FB4F
:104B00000C220821504600F081FB0C22092150465E
:104B100000F07CFB0C220A21504600F077FB0C22AF
:104B20000B21504600F072FB0C221146504600F05B
:104B30006DFB0C220D21504600F068FB0C220E216B
:104B4000504600F063FB0C220F21504600F05EFB44
:104B50000C220021484600F059FB0C220121484656
:104B600000F054FB0C220721484600F04FFB0C22BA
:104B70000821484600F04AFB0C220921484600F073
:104B800045FB0C220A21484600F040FB0C220B2179
:104B9000484600F03BFB0C221146484600F036FB2D
:104BA0000C220D21484600F031FB0C220E21484614
:104BB00000F02CFB0C220F21484600F027FB0C22B2
:104BC0000021404600F022FB0C220121404600F06B
:104BD0001DFB0C220221404600F018FB0C22032191
:104BE000404600F013FB0C220421404600F00EFB6F
:104BF0000C220521404600F009FB0C2211464046DC
:104C000000F004FB0C220D21404600F0FFFA0C22BC
:104C10000E21404600F0FAFA0C220F21404600F027
:104C2000F5FA0C220021284600F0F0FA0C220121AE
:104C3000284600F0EBFA0C220221284600F0E6FAA2
:104C40000C220321284600F0E1FA0C220421284618
:104C500000F0DCFA0C220521284600F0D7FA0C22DD
:104C60000A21284600F0D2FA0820CDE9124011941A
:104C7000169404201794CDE9020414941020CDE971
:104C80000440159406940002CDE90A4011A8099445
:104C9000CDE90E400894079410900C940D9402A84E
:104CA000FFF756FE01210420FFF742FE18B0BDE8D1
:104CB000F0870000000C0240001002400014024087
:104CC000001802402DE9FC5F00244C4F00944FF483
:104CD000806801944025C7F81080C7E902540E4649
:104CE0004FF0080B1021C7E900B1A146384605F086
:104CF00003F81020FEF792FD002853D14048AA4641
:104D00004D460089000438603720C7E9010AC7E929
:104D10000398384604F0F0FF3720FEF77FFD0028A7
:104D200040D1411E07F11400C0E9001B3021816011
:104D30000221C0E903150121416104F07FFF332006
:104D4000C7F808A0C7E90050C7E90358384604F07F
:104D5000D3FF3320FEF762FD050023D1DFF8A490D6
:104D6000DFF8A0804FF4001B6F46A9F14C0940F218
:104D70002A6AD9F8000010EA0A0F0BD1584604F04D
:104D800075FF0028F5D0D8F8000047F82400641C0F
:104D9000022CEED3082004F069FF28B1082004F0AB
:104DA0003DFF0420BDE8FC9F022004F05FFF20B11E
:104DB000022004F033FF0220F4E7202004F056FF25
:104DC00020B1202004F02AFF0620EBE74FF4007406
:104DD000204604F04BFF20B1204604F01FFF0720BF
:104DE000E0E740F2FF5004F019FF009800BA70604D
:104DF000019800BA30602846D4E70000702B0120EB
:104E000098030020802C0140002070474FF0FF30B5
:104E1000704700207047000010B508684B6889682B
:104E20009A0700D00122084C02EB9302A04203D360
:104E3000064C0344A34202D94FF0FF3010BDFFF7E8
:104E400009FD002010BD00000040000800C000085F
:104E500030B408684B6889689A0700D00122084C72
:104E600002EB9302A04203D3064C0344A34203D9AE
:104E700030BC4FF0FF30704730BCFFF717BD00006B
:104E80000040000800C0000810B5FDF739FCFDF730
:104E900065FEFDF779FDFDF74BFFFDF787FCFDF79C
:104EA000EBFCBDE81040FDF71DBE00207047000080
:104EB0002DE9F041084F002407EB0415A96811B152
:104EC000686888470646F1B2284601F07DF9641CFF
:104ED0000A2CF1D3BDE8F081640100202DE9FC5FCC
:104EE0000121084604F02CF90121022004F028F9E0
:104EF0000121042004F024F90121082004F020F904
:104F00000121102004F01CF90121202004F018F9DF
:104F10000121402004F014F90121802004F010F94F
:104F2000DFF8C4B14FF4007500222946584600F05E
:104F30008FF9AF0000223946584600F089F94FF446
:104F4000805800224146694800F082F94FF4004938
:104F500000224946664800F07BF94FF4807A00222F
:104F60005146644800F074F900220821624800F0BC
:104F70006FF97C200024CDE9000469465F4800F009
:104F800009F903268DF8046028018DF80640009089
:104F90008DF807408DF805406946594800F0FAF849
:104FA0004FF4E070CDE900046946584600F0F2F88D
:104FB000009501258DF804508DF806408DF80740C6
:104FC0008DF805406946584600F0E4F88DF8046015
:104FD000A8028DF8064000908DF807408DF8054036
:104FE0006946584600F0D6F88DF804508DF8064012
:104FF0008DF8074000978DF805406946584600F047
:10500000C9F88DF804408DF8064004278DF8075044
:1050100000978DF805406946394800F0BBF88DF8D7
:1050200004608DF806408DF8074000978DF8054024
:1050300069462E4800F0AEF88DF804508DF8064011
:105040008DF80740CDF800808DF805406946274867
:1050500000F0A0F88DF804604FF49E508DF80640E3
:1050600000908DF807408DF805406946204800F013
:1050700091F88DF804508DF806408DF80740CDF872
:1050800000A08DF8054069461A4800F083F88DF8B5
:10509000045008208DF8064000908DF807408DF8E8
:1050A00005406946144800F075F88DF80460C0208A
:1050B0008DF8064000908DF807408DF80540694650
:1050C0000D4800F067F88DF804508DF806408DF813
:1050D0000740CDF800908DF805406946044800F07F
:1050E00059F8BDE8FC9F0000001402400004024093
:1050F0000018024000000240000C02400010024074
:10510000000802404FF0FF30704700207047000059
:10511000001F4FF0FF33082815D2DFE800F0040627
:10512000080A0C0E101200220EE001220CE00222EE
:105130000AE0032208E0042206E0052204E0062239
:1051400002E0072200E01A46002A01DA18467047FA
:10515000044800EB0210007800F00F0008700120F6
:10516000704700006401002010B50978012905D0BE
:105170000022142804D04FF0FF3010BD0122F8E7C0
:105180004FF48071024800F063F8002010BD000069
:1051900000000240F0B5002201274FF0030C0B681D
:1051A00007FA02F52B40AB422CD1066853000CFAEB
:1051B00003F4A64306600E79D0F800E09E4046EA6C
:1051C0000E0606600E79012E01D0022E12D18668DD
:1051D000A64386604E79D0F808E09E4046EA0E0667
:1051E00086604668AE43466045688E799640B6B2A2
:1051F00035434560C568A543C560CC799C40C3680C
:105200001C43C460521C102AC9D3F0BD4B07DB0EEF
:105210009A40C90810B500EB8100016A0F249C4038
:10522000A1430162016A1143016210BD02460020E0
:1052300012690A4200D001207047024600205269DC
:105240000A4200D0012070474183704701837047B4
:105250000AB1018370474183704700002DE9FE4F7A
:105260009B4C00269B4FA07901254FF007094FF07A
:10527000050B4FF0030A4FF002084FF4FA610A28B9
:105280003ED2DFE800F05AC4E5F4F385D777930502
:10529000002391A21846FDF70BFF002805D0132824
:1052A00004D00728FAD0022842D00FE1DFF840826C
:1052B0000A228CA108F10700FBF70DFC58B3082265
:1052C0008CA108F10700FBF706FC08B309228CA1AA
:1052D00008F10700FBF7FFFBE8B147460A228BA164
:1052E000F81DFBF7F8FBD8B109228BA1F81DFBF7DD
:1052F000F2FBC0B109228BA1F81DFBF7ECFBA8B1B2
:10530000E0E084F8069001E084F806B0A570CFE0F4
:1053100084F806A0CCE097F8BC050128F4D1F0E7AA
:105320000420A071C4E00120BDE8FE8F0220FBE74D
:10533000206820F4C0602060F8E797F8BC050128D9
:105340000AD100237AA241F288311846FDF7B0FE57
:1053500010B184F80690ABE0002378A248F6B801BB
:105360001846FDF7A5FE00289FD01128CFD184F85C
:1053700006B09DE074A375A20220FDF799FE0028F7
:1053800093D00821062801D002288ED1A1718FE088
:1053900071A372A20220FDF78BFE002813D006280D
:1053A00002D0072853D083E0A57181E000236DA2CD
:1053B0000120FDF77DFE002805D0052804D0062831
:1053C00014D0022874D081E02068312140F480702C
:1053D00020604748FBF706FB0028206802D040F019
:1053E000010001E020F0010020606FE0A57020685E
:1053F000C10706D097F8BC15012904D084F80680AF
:1054000064E0A57162E040F0010020605CE04EA322
:1054100054A20220FDF74CFE50B3062852D120685A
:1054200040F00100206097F8BC0501284CD084F8BA
:1054300006803DE007F28C674DA305CFCDE9000261
:105440004EA20220FDF734FE90B10628EFD039E0DD
:105450004D480746FBF720FB02280AD200234BA247
:1054600041F288311846FDF723FE10E022E013E0F8
:105470002CE0454800978030A0F14001CDE90110B3
:1054800044A342A241F288310220FDF711FEE8B1A7
:1054900006283FF43DAF15E0002342A24AF6C8714A
:1054A0001846FDF705FE88B106283FF439AF09E03C
:1054B000A5700BE000233DA21846FDF7F9FD28B1C9
:1054C000032801D0A671F3E7A6712CE700202BE793
:1054D00054010020D85800202B43495053544154C4
:1054E00055530000495020494E495449414C000051
:1054F000D46300204950205354415254000000000E
:10550000495020434F4E464947000000495020472C
:105510005052534143540000495020535441545574
:1055200053000000504450204445414354000000C3
:105530002B4E4554434C4F53450000002B434950DC
:105540005348555400000000310000002B43534FD6
:10555000434B534554504E00300000002B434950FC
:105560004D5558002B4349504D4F44450000000015
:10557000222573222C222573220000002B43444E47
:105580005343464700000000965E00202B435354CF
:1055900054000000222573222C222573222C222560
:1055A000732200002B434949435200002B434946D4
:1055B000535200002DE9F843884C894F0426607946
:1055C00097F8BC2501254FF005084FF4FA610B2828
:1055D00027D2DFE800F006B5D5260637216A8645D2
:1055E000280000237FA241F288311846FDF760FDB4
:1055F000002803D0062802D0022805D0EBE020685E
:1056000040F00800206019E0206820F008002060C9
:105610000320A070062060E00020FEF7E1FF0028D4
:10562000ECD06671CBE070A371A20220FDF740FDC3
:105630000028E3D00228F5D00628DFD1A57084F831
:105640000580C8E000236CA21846FDF731FD002854
:10565000D4D00228E6D00628D0D1A57009203CE09D
:105660000726012A1FD0002365A20120FDF720FD97
:105670000028C3D0052804D00228D3D006280ED095
:10568000A9E061A16148FBF7A5F95FA10020FBF744
:10569000A1F9FBF773F9216860F341018DE0A57072
:1056A0002078800700D5667195E05948012A59A3F2
:1056B00000900AD05AA20220FDF7FAFC002803D07D
:1056C00002287CD0062802D085E058A2F3E7A57016
:1056D00097F8BC05012802D1082060717BE0657154
:1056E00079E0002354A20120FDF7E2FC002872D0EB
:1056F000052804D0022810D0062818D06BE042A15B
:105700004248FBF767F940A10020FBF763F9FBF77C
:1057100035F9216860F307114FE0A570206810F09B
:10572000F00F00D1667120F0F000206053E0207887
:10573000C0F30310012801D005284CD165713EE06B
:1057400000233FA20120FDF7B3FC38B30528D6D0D3
:10575000022834D006283ED12078204AC0F3031016
:105760000021143A012803D0052801D0918032E0AD
:1057700097F8BC05012828D00220607191801EE0B6
:10578000002331A20120FDF793FC38B1052806D093
:10579000022814D0062814D007281AD01BE01B4872
:1057A0002BA1FBF717F918A10020FBF713F990B113
:1057B000FBF7E4F8216860F3082121600BE0A57095
:1057C00009E0A5702088C00505D566710120BDE8F7
:1057D000F883A57083E70020F9E70000540100205A
:1057E000D8580020453000003131353230300000CB
:1057F0002B495052455800002B43535100000000E4
:105800002B43534D494E53002C000000D46300201D
:10581000965E0020312C224950222C222573220032
:105820002B434744434F4E54000000002B43475343
:105830004F434B434F4E54002B435245470000000B
:105840002B434752454700002B4347415454000027
:105850003A0000002DE9F04FD748D64CDFF85C83C2
:1058600090F8BC15A4F11400E37900270326012564
:1058700098F80020B0F9000089B04FF0060B4FF007
:10588000040942F2107A0B2B75D2DFE803F0061CF4
:10589000A8F0747475EFC07D9700012A0ED1A57031
:1058A000012906D098F804003038092803D8E67199
:1058B0007BE1092000E00820E07176E14FF0FF3045
:1058C00009B0BDE8F08FBB49032A09680DD0C1F3C8
:1058D0004122012A09D10A0707D54A0705D5C1F394
:1058E0000312012A01D1CA0503D421F4C06020604B
:1058F0004CE1B34E411C06D0811C2ED0C01C2CD0D4
:1059000006F0F8F9DAE70622AEA1AD48FBF7E3F8B6
:1059100038B10B22ADA1AA48FBF7DDF860B1002435
:1059200015E098F80010012901D188F8009020684E
:1059300020F4C0602060C0E0206820F48070206007
:1059400063E0315DA44803F0E2FB641CA4B29C4810
:10595000FBF7A2F8A042F4D827E1002405E0315D6E
:105960009D4803F0D4FB641CA4B29548FBF794F85F
:10597000A042F4D819E1EDE00020FEF731FE002846
:1059800096D00220E071E7E0002394A24FF47A6100
:105990001846FDF78DFB00288AD0052888D00228FC
:1059A000F1D00A21072802D0062802D0FDE0E171DB
:1059B000D2E0206840F480702060F8E700238AA2DB
:1059C0004FF4FA511846FDF773FB0028C4D00528A0
:1059D00003D00228D7D00628BED1E671BCE0012949
:1059E0000ED0002382A251461846FDF761FB002825
:1059F000B2D012289BD0022807D0072805D0D4E0C7
:105A00007EA37BA251460220EFE7A570A2E008F139
:105A100004037BA251460220FDF74AFB00286ED00A
:105A2000052804D006286AD0072846D094E077A13C
:105A30006348FAF7CFFF76A10020FAF7CBFFFAF719
:105A40009DFF012801D005203AE771A10020FAF757
:105A5000C1FF6FA10020FAF7BDFF0146202208F127
:105A60000400FBF74BF90021434603E085E026E004
:105A7000491C89B25818007930380A2801D32029E6
:105A8000F6D3C1F12002194408F10400091DFBF707
:105A90006DF80020414603E0401C80B2202803D26C
:105AA0000A181279222AF7D1084408F10401077173
:105AB00042482430FAF7CCFF8FE7E7714CE03F48CB
:105AC0000727DFF850B14388012908F1040217D0F5
:105AD00051A16846FAF7D0FD6B4653A25146022009
