:020000040800F2
:10000000806401201D040008157800086D5F000859
:10001000816B0008BF33000899D40008000000007D
:1000200000000000000000000000000077B8000899
:10003000513F000800000000A503000855C2000859
:10004000370400083704000837040008D59D00086D
:100050003704000837040008370400083704000894
:1000600037040008370400089946000837040008E0
:100070003704000837040008370400083704000874
:100080003704000837040008370400083704000864
:10009000370400083704000837040008B146000898
:1000A0003704000837040008370400083704000844
:1000B0003704000855C30008370400083704000857
:1000C0003704000837040008370400083704000824
:1000D00037040008E1CB0008F5CB000809CC000884
:1000E0003704000837040008370400083704000804
:1000F00037040008370400083704000837040008F4
:100100003704000881A200083704000837040008FB
:1001100037040008370400083704000837040008D3
:10012000713C000837040008370400083704000851
:1001300037040008D54000083704000837040008D9
:1001400037040008370400083704000837040008A3
:100150003704000837040008370400082DCC0008D5
:100160003704000837040008370400083704000883
:100170003704000837040008370400083704000873
:10018000370400083704000800F002F800F0B8F85F
:100190000AA090E8000C82448344AAF10107DA45E2
:1001A00001D100F0ADF8AFF2090EBAE80F0013F07C
:1001B000010F18BFFB1A43F0010318475C3D040010
:1001C0007C3D04000A444FF0000C10F8013B13F092
:1001D000070408BF10F8014B1D1108BF10F8015BA0
:1001E000641E05D010F8016B641E01F8016BF9D193
:1001F00013F0080F1EBF10F8014BAD1C0C1B09D1EA
:100200006D1E58BF01F801CBFAD505E014F8016B5B
:1002100001F8016B6D1EF9D59142D6D370470000ED
:100220000023002400250026103A28BF78C1FBD8FF
:10023000520728BF30C148BF0B6070476E2900F0DD
:10024000A386702901F00380662917F0648565296B
:1002500017F06185672917F05E85612917F05D85C4
:1002600003681B0A28BF41F08001692900F08682DB
:10027000642900F08382752900F080826F2900F0E4
:100280009087782900F0CF87E92900F02B87E429AF
:1002900000F02887F52900F02587EF2900F08D87E9
:1002A000F82900F0CE870368DB0928BF41F0800100
:1002B000632900F0AC86732900F0B186E32901F0D0
:1002C0008184F32901F08684002070471FB517F060
:1002D00018FD9DE8030000F0ABFD00F072FB00F09C
:1002E00087FD04000020002116F0D2FE401C606053
:1002F0000020002116F0E2FEE0601FBD10B510BD29
:1003000001F000FD1146FFF7E1FF13F043FC01F09F
:10031000DFFD03B4FFF7F2FF03BC0EF028FA000084
:100320000B49D1F800C04A685CF8043B10681844D7
:1003300042F8040B8C4528BFA1F1DC0C8A4228BF8F
:10034000A1F1DC02C1F800C04A6020F00040704713
:10035000EC430120EFF3108072B6704780F31088F1
:100360007047264C4FF6FF7525604FF0000484F36C
:100370000988234C4FF001052570224C4FF0805521
:10038000256062B6FEE730B41E4C4FF08055256004
:1003900030BC704730B41B4C4FF08055256030BCEA
:1003A000704700BF72B6EFF3098050B11EF0100F16
:1003B00008BF20ED108A203880E8F00F1249096844
:1003C000086000B5114880475DF804EB10481149FA
:1003D0000A7802700C4810490A680260106890E8B8
:1003E000F00F20301EF0100F08BFB0EC108A80F321
:1003F00009884EF0040E62B6704700BF22ED00E09F
:100400006302002004ED00E07C020020318A000835
:100410006002002061020020840200200948804719
:1004200009480047FEE7FEE7FEE7FEE7FEE7FEE7D6
:10043000FEE7FEE7FEE7FEE704480549054A064BEE
:1004400070470000BDC200088901000880440120F7
:1004500080640120805401208054012070470000F6
:1004600010B500F0C5FC001D10BD00BF256C0100DB
:1004700070B5064600F0B8FC056806F10B0020F0E8
:100480000704B4429CBF002070BD2B466A68BAB115
:100490001068A04210D304F1080188423CBF5068A4
:1004A000586007D35168101941601168091B016039
:1004B00058601460101D70BD13465268002AE7D1C1
:1004C0002146284600F0A0FC0028DED170BD70B5A2
:1004D0000446051F00F088FC0068002C14BF446827
:1004E00070BD002C18BFAC423CBF20466468F8D3F6
:1004F00001680A18AA4218BF456003D12A68054658
:100500001144016028684119A1421CBF6C6070BD94
:100510006168696021680844286070BD53EA020C74
:1005200000F069802DE9F04B4FF00006002B1FBF53
:10053000B3FA83F503FA05F424FA05F65E4012BF18
:100540001643B2FA82F502FA05F4C5F120051EBF82
:1005500022FA05FC44EA0C04203556EA044C4FEA22
:10056000144418BF641C4FF000084FF0000990427B
:1005700071EB030C39D3002919BFB1FA81F701FAE5
:1005800007F6B0FA80F700FA07F6C7F120071EBF9A
:1005900020FA07FC46EA0C062037B6FBF4FCA7EB72
:1005A0000507103F07F01F0BCBF120060CFA0BFBE1
:1005B0002CFA06F644BFB3460026202FA4BF5E46A1
:1005C0004FF0000B5BEA060C08BF4FF0010B19EB74
:1005D0000B09ABFB027C48EB0608C01B06FB02CCF8
:1005E0000BFB03CC71EB0C01C1E70B460246414605
:1005F0004846BDE8F08B13B54FF000004FF0000106
:10060000AFF30080BDE81C40704710B54C1084EA81
:10061000530404D54042C1F1000138BF491E1B42BA
:1006200004D55242C3F1000338BF5B1EFFF776FFCB
:1006300014F0804F04D04042C1F1000138BF491E80
:1006400014F0004F04D05242C3F1000338BF5B1EC8
:1006500010BD00001CB50C46064B7B44694600905B
:10066000204600F0AAFC04460020694600F0B8FCD1
:1006700020461CBD830900000FB41CB5084B06AA18
:100680007B4469460090059800F097FC04460020E2
:10069000694600F0A5FC20461CBC5DF814FB000078
:1006A0005D0900000FB47CB50C0009AA009001D0D0
:1006B0002044401E084B7B4469460190089800F096
:1006C0007CFC05461CB10020694600F089FC2846E8
:1006D0007CBC5DF814FB00003109000070B50446D5
:1006E00085690068C10601D5302600E02026C007D4
:1006F00007D070BDD4E9012130469047206A401CE4
:1007000020626D1EF6D570BD70B50446856900780F
:10071000C00707D170BDD4E9012120209047206A8D
:10072000401C20626D1EF6D570BD70B50C460546A6
:10073000012A05D02878800600D5EA69002302E066
:10074000012305E05B1C934202D2E05C0028F9D152
:10075000A869E618C01AA861286A184428622846C1
:10076000FFF7BCFF04E0D5E9012114F8010B904725
:10077000B442F8D32846FFF7C7FF70BD2DE9F0411A
:100780000646002410687529314616A510D000F0E1
:1007900090FB002802DA404213A507E031688A077F
:1007A00001D512A502E0490704D511A5012401E0F5
:1007B00000F088FB00210A2206F1240709E0B0FBC3
:1007C000F2FCB0FBF2F302FB1C0030307854184608
:1007D000491C0028F3D123462A463046BDE8F041A3
:1007E00000F079BB000000002D0000002B0000008D
:1007F000200000002DE9F05F894604464FF0000A12
:10080000DFF874B1FB44C0F820A02046E1688847B7
:10081000002874D0252806D0D4E901219047206A09
:10082000401C2062F1E700265F462046E1688847C9
:100830002028054607DB312D05D2781910F8200C49
:1008400008B10643F1E7B00701D526F00406C4F865
:100850001CA00027C4F818A02A2D09D028460DF0A6
:100860007FFF38B304EB8708303DC8F8185019E013
:1008700059F8041B204604EB87029161E168884720
:10088000012F054618D1E069002820DA26F020065D
:100890001DE0D8F8180000EB800005EB4000303870
:1008A000C8F818002046E168884705460DF058FF53
:1008B0000028EED1012F0AD02E2D08D12046E16864
:1008C00088477F1C0546022F46F02006C4DBA0693E
:1008D000002803DA404246F00106A061F00701D08B
:1008E00026F010066C2D0BD0682D09D04C2D39D078
:1008F0006A2D35D0742D35D07A2D33D016E038E0FE
:10090000E1682F4620468847B842054609D16C2F3A
:1009100026D04FF48060E1680643204688470546AC
:1009200004E06C2F1AD04FF4807006430DB3A5F18C
:100930004100192802D8203546F400664A46294667
:10094000204626604E46FFF779FC80B101280BD087
:10095000F61D26F0070000F1080956E74020E4E7FD
:100960008020D8E70020D6E706F104094DE72846A5
:1009700052E7206ABDE8F09FFC34040070B50646DB
:1009800000F03AFA0468054630460A22002100F0D9
:1009900069FC2C6070BD00000B4910B5A1F17C0210
:1009A0000A4CC2E93712372106E000EB104342F847
:1009B0002130074B00FB03400B1EA1F10101F4DCC9
:1009C00010BD0120E8E700008C430120E119D66644
:1009D000CD0D0100014A00F07DBC0000C8030020DD
:1009E00000F078BC401ECAB210F8011F8A4202D043
:1009F0000029F9D10020704740EA010310B59B0798
:100A00000FD1042A0DD310C808C9121F9C42F8D078
:100A100020BA19BA884201D9012010BD4FF0FF3029
:100A200010BD1AB1D30703D0521C07E0002010BD3F
:100A300010F8013B11F8014B1B1B07D110F8013BCB
:100A400011F8014B1B1B01D1921EF1D1184610BDAC
:100A500040EA0103024630B59B0710D14FF0013444
:100A600000E008C208C91D1B9D4315EAC41FF8D049
:100A700013F0FF0102F8011B0DD01B0AF8E711F873
:100A8000013B002B02F8013B05D011F8013B002B84
:100A900002F8013BF3D130BD10B5431C02E010F861
:100AA000011B71B18107FAD14FF0013202C88C1AD3
:100AB0008C4314EAC211F9D0C01A0A0603D0C01E32
:100AC00010BDC01A10BD0A0401D0801E10BD09025D
:100AD000FCD0401E10BD40EA010370B59B072ED12B
:100AE0004FF00136042A2AD308C810C99D1B9D4324
:100AF000121F15EAC61517D0D8B2E1B2401A50EA53
:100B0000056110D198B2A1B2401A50EA05410AD14C
:100B100023F07F4024F07F41401A50EA052102D1A2
:100B2000180EA0EB146070BDA342DBD018BA21BA36
:100B3000884201D9012070BD4FF0FF3070BD0AB965
:100B4000002070BD10F8013B11F8014B63B1A342C6
:100B50000AD1521E08D010F8013B11F8014B1BB10D
:100B6000A34201D1521EEDD1181B70BD032A40F2E1
:100B7000308010F0030C00F0158011F8013BBCF13F
:100B8000020F624498BF11F801CB00F8013B38BF57
:100B900011F8013BA2F1040298BF00F801CB38BF65
:100BA00000F8013B11F0030300F02580083AC0F083
:100BB000088051F8043B083A51F804CBA0E808102B
:100BC000F5E7121D5CBF51F8043B40F8043BAFF35E
:100BD0000080D20724BF11F8013B11F801CB48BFB8
:100BE00011F8012B24BF00F8013B00F801CB48BFEE
:100BF00000F8012B704710B5203AC0F00B80B1E827
:100C00001850203AA0E81850B1E81850A0E8185041
:100C1000BFF4F5AF5FEA027C24BFB1E81850A0E84A
:100C2000185044BF18C918C0BDE810405FEA827C64
:100C300024BF51F8043B40F8043B08BF7047D2077B
:100C400028BF31F8023B48BF11F8012B28BF20F81C
:100C5000023B48BF00F8012B704702F0FF0343EA54
:100C6000032242EA024200F002B84FF000020429D7
:100C7000C0F0128010F0030C00F01B80CCF1040CCB
:100C8000BCF1020F18BF00F8012BA8BF20F8022BFF
:100C9000A1EB0C0100F00DB85FEAC17C24BF00F8A5
:100CA000012B00F8012B48BF00F8012B70474FF0D3
:100CB000000200B5134694469646203922BFA0E8AC
:100CC0000C50A0E80C50B1F12001BFF4F7AF0907B8
:100CD00028BFA0E80C5048BF0CC05DF804EB8900A9
:100CE00028BF40F8042B08BF704748BF20F8022BEC
:100CF00011F0804F18BF00F8012B704710B5044663
:100D000010F0030F08BF11F0030F40F015804FF0F3
:100D1000013E121FC0F20E8051F8043BA3EB0E0CF3
:100D20002CEA030C1CEACE1C08BF40F8043BF0D0B0
:100D3000A1F1040102F10402521E08DB11F8013B8B
:100D4000002B00F8013BF7D11146FFF78EFF20463C
:100D500010BD00004FF0013C50F8042B51F8043B4B
:100D60009A4221D1A2EB0C03934313EACC1317D17F
:100D700050F8042B51F8043B9A4215D1A2EB0C0316
:100D8000934313EACC130BD150F8042B51F8043BD6
:100D90009A4209D1A2EB0C03934313EACC13DBD0A4
:100DA0004FF00000704700BFD01A01BAB1FA81F1CC
:100DB00001F0180122FA01F0CB40C1F12001DBB2B1
:100DC000C0B2C01A2CFA01F3D11A914311EAC3112F
:100DD000E6D17047014900F09FBA0000F4430120BA
:100DE000704770477047704700487047284401209B
:100DF00000487047404401200048704720440120CB
:100E0000704770477047704738B504460A4600205F
:100E10006946AFF30080002808BF38BD024600993C
:100E2000204600F0D9FA012038BD012000F045BF6E
:100E3000F8B5AFF30080054600200C46102000BF37
:100E40000646A819A0420DD9324669460020AFF3E4
:100E50000080070008BF00F030FF0098A04218BFD4
:100E60000546C419FFF7C0FF05600746F01D20F0D6
:100E700007004619284600F00AF8B44208BFF8BD3A
:100E8000A21B31463868BDE8F84000F0A5BA002141
:100E90000160C0E9011070471020704710B5FFF7DE
:100EA000ABFF006810BD10B50446FFF7A5FF046056
:100EB00010BD09684A0501D540B27047C905FCD587
:100EC00000B2704709684A0501D5C0B27047C9052C
:100ED000FCD580B270472DE9F0470D469946924601
:100EE000044600F124080168880604D5E06921F071
:100EF0001001216000E00120A84201DD471B00E055
:100F00000027A1697A1902EB0900081AA06120786C
:100F1000C00602D42046FFF7E1FB002608E0D4E932
:100F200001211AF806009047206A401C761C2062B6
:100F30004E45F4DB2078C0060AD52046FFF7CEFBED
:100F400006E0D4E9012130209047206A401C20624D
:100F5000381EA7F10107F4DC07E0D4E9012118F8F5
:100F600005009047206A401C2062281EA5F101055B
:100F7000F3DC2046FFF7C8FB2078000602D50220EC
:100F8000BDE8F0870120FBE711680268006A53059D
:100F900001D508700AE0D30501D5088006E01306E4
:100FA00003D5C217C1E9000200E0086001207047C4
:100FB00001694A1C02610878704700B58FB0CDE91D
:100FC00001310021059105497944CDE9031011460D
:100FD0006846FFF70FFC0FB000BD0000E5FFFFFF04
:100FE0000A6802F8010B0A607047D1E900239A42AF
:100FF00002D2531C0B601070704710B5436913B1D7
:10100000AFF3008001E0FFF790FB012010BD1278E4
:1010100000F124010A7000224A700122EDE71168F4
:101020004FF0FF32E9E700002DE9FF5F15468A46E1
:101030000446DFF8AC80F8440027D8E900103E46AB
:10104000CDE9001010E03AF816106A4602A800F048
:1010500014FE411C07D02178890603D5E2693918AE
:1010600091420DD80744761C2078800602D5E069AD
:10107000B84205DDAE42E6DB3AF816000028E2D1C0
:10108000A069C01BA0612046FFF728FBD8E900102B
:10109000CDE90010002017E03AF818106A4602A8BF
:1010A00000F0EBFDB0F1FF3F81460BD000250DF1C4
:1010B000080B05E0D4E901211BF8050090476D1CE1
:1010C0004D45F7D308F10100B0428046E4DB206AC9
:1010D000384420622046FFF717FBBDE8FF9F000061
:1010E000662D04002DE9F0418046D21D22F0070252
:1010F0000025D2E90002F52915A614D0011E72F1CF
:10110000000106DA0023D0EB030063EB020211A614
:1011100008E0D8F800108B0701D50FA602E04907B8
:1011200001D50EA601251146002408F1240704E08C
:1011300000F06CF930323A55641C50EA0102F7D1E4
:101140002B46324621464046BDE8F041FFF7C3BE7C
:10115000000000002D0000002B0000002000000017
:1011600030B4002100F1240408E002F00705D208A1
:10117000303542EA4372DB086554491C52EA0305E4
:10118000F3D10468002310A2250707D5A40600D4D4
:1011900021B1C46901230DA2641EC46130BCFFF7F4
:1011A0009ABE10B5044621461068FFF78BFE024632
:1011B0002046BDE810400023D2E7D21D22F00701EF
:1011C000D1E90023CCE7000000000000300000005F
:1011D000F0B40D460188090502D5214C7C4402E09B
:1011E0001F4C7C440E34002100F1240608E002F07C
:1011F0000F071209E75D42EA03721B097754491C85
:1012000052EA0307F3D102780023120704D5702DA8
:1012100006D009B1022311342246F0BCFFF75BBEB1
:1012200001231034F8E770B504460D4621461068D6
:10123000FFF748FE024629462046BDE870400023DD
:10124000C6E7D21D22F00703D3E90023C0E70368F5
:10125000126843F0200303600823C3610023B7E74B
:10126000C82B04002DE9F04791460F4680460446FE
:10127000002614F8015B2DB1FFF7F2F80068405D1D
:10128000C007F6D12B2D02D02D2D18D0641E4A4652
:101290003946204600F0A2FC27B13968A14201D1AD
:1012A000C7F800804FF0020471050BD540420028BA
:1012B00003DDFFF7A1FD0460A007BDE8F08746F459
:1012C0008066E4E70028F8DAFFF796FD04606FF027
:1012D0000040F2E72DE9F04115460E46040002D128
:1012E0002C6804B90BA4204600F0FEFC04442078CE
:1012F00070B127463146384600F0E6FC04442078B9
:1013000010B1002004F8010B38462C60BDE8F081D4
:101310000027F9E70000000070B50C4601680020C6
:101320004A1C3ED03C22B1FBF2F302FB1313B1FB8B
:10133000F2F12360B1FBF2F302FB1313B1FBF2F104
:1013400018226360B1FBF2F302FB1313B1FBF2F15D
:1013500046F2E0320A440721A360B2FBF1F301FB3D
:10136000132140F2B553B2FBF3F5A161B2FBF3F1E7
:1013700003FB15228900B2F5B77F08D39B10521EDC
:10138000B2FBF3F52944B2FBF3F503FB15220F4B37
:10139000E261616189077B440CD03B2A0AD3521C6D
:1013A00008E02C212046FFF782FC0120E0600AE0E3
:1013B000521A401C195C9142FAD9521CC4E903200C
:1013C0004FF0FF302062204670BD0000642A040008
:1013D0000048704720440120034640688C4600289E
:1013E00018BF88423CBF03464068F8D318681844C9
:1013F000884207D00CF1030020F00700001D411ABD
:10140000521A0146081D0A60FFF761B830B5B0F105
:101410000A024FEA900E71F100034EEA817EB0EBB2
:101420000E0061EB91014FEA101E4EEA017E10EBB7
:101430000E0041EB11114FEA102E4EEA016E10EB37
:101440000E0041EB11214FEA104E4EEA014E10EB17
:101450000E0041EB1141401841F100014FEAD0006C
:1014600040EA41704FEAD10110EB80054FEA810458
:1014700044EA907444EB01046D1944EB0404521BDC
:10148000A3414FF0000348BF0A3200D530BD401CD5
:1014900041F1000130BD70472DE9FF4F0C461E465B
:1014A0004FF0FF378BB0D2E90001DDF860800A9081
:1014B0008A46C1F30A5505B93D46002108464FF05A
:1014C0000000BAF1000F00F4400005DA00EB8000E4
:1014D0004FF4400101EA50004FEA9059B9F1010F71
:1014E00000DDB9460A9850EA4A000ED044F6105082
:1014F000A5F2FF3545432F14B8F1000F1ED07542F9
:10150000291E1EDDC9F100021CE0B8F1010F4FF0E9
:10151000000001D0302103E0F24305E02154401CDB
:10152000B042FBDB30460022002121540B99C1F868
:101530000880C1E900200FB0BDE8F08FBD1B6D1C15
:10154000DEE74A4600DA694206A800F04FFC06AB27
:1015500093E8070003AB83E8070050460A9900F0C0
:1015600006FD8DE80700A0F500501F380090039895
:10157000002D0ADD42F21F014A460844002303A958
:101580000390684600F06FFF09E0A0F500504A465E
:101590001F38002303A90390684600F079FF8DE807
:1015A00007000004000C03D04FF0FF30410800E0BA
:1015B0001046B8F1000F03D00022009215461EE03D
:1015C000751E05D4FFF722FF303262556D1EF9D526
:1015D000B3460122084302D000227F1C04E0207899
:1015E000302801D100227F1E002A099784D01DE0F7
:1015F000112D07DAFFF70AFF303262556D1C50EAF1
:101600000102F5D1084302D00098C8B10EE00021D4
:10161000681E05E0235C625C63542254401E491C32
:101620008142F7DBAB46A81B401E0990002004F85E
:101630000B000B98099AC0F80880C0E9002B7AE7E4
:1016400011264FF0000857E72DE9F04F8846044671
:10165000D21D22F0070191B0D1E90001CDE90A01C4
:101660000CF06BF902460B98C00F01D02D2007E05B
:101670002068810701D52B2002E0202101EAC0006B
:10168000032A099001D0072A05DB0346414620467C
:1016900000F05EFB0BE12078800601D5E06900E0F8
:1016A0000620B8F1650F814606D0B8F1660F18D054
:1016B000B8F1670F70D131E00020B9F1110F00903F
:1016C00001DB112301E009F101030AAA01A90CA819
:1016D000FFF7E2FEDDE90C70002609F10105834603
:1016E00047E001204B4600904FF000470AAA01A9AD
:1016F0000CA8FFF7D1FEDDE90DB00C995D46002680
:1017000010B909F101000D18B9EB050003D4C0F1BF
:10171000FF3609F10105A5EB09002BE0B9F1010F36
:1017200001DA4FF001090020B9F1110F009048468D
:1017300001DD112300E003460AAA01A90CA8FFF766
:10174000ABFEDDE90C704D4600268346207800078D
:101750000AD4AB4500DA5D4601A8012D04DD41192C
:1017600011F8011C302907D04F4502DA17F1040F98
:1017700004DA012082460FE06D1EEEE7002F02DC46
:10178000ED1B3E4403E0781CA84200DD7D1CB81B25
:1017900000F1010A4FF000472078000703D4AA4562
:1017A00001DB4FF0FF3A0021B7F1004F0DF1430884
:1017B0008DF8431024D002202B23002F01DA7F4222
:1017C0002D230A21021EA0F1010000DC5FB197FB6E
:1017D000F1FC97FBF1F201FB1C7C17460CF1300C7D
:1017E00008F801CDEEE7A8F1010003702188090592
:1017F00001D5452100E06521A0F1010800F8011C98
:1018000009980FA9A1EB0807FF1D00B1012041199C
:1018100001EBEA70A1693844081A401EA0612078E3
:10182000C00602D42046FEF759FF099828B1D4E932
:1018300001219047206A401C20622078C00622D5F2
:101840002046FEF74BFF1EE0002E04DBB34502DD11
:1018500001A8805D00E03020D4E901219047206A92
:10186000401C2062761CAAF101005FEA000A0AD13E
:10187000FFF7BEFAC0680168405CD4E901219047D7
:10188000206A401C2062281EA5F10105DCDC07E06F
:10189000D4E9012118F8010B9047206A401C20620E
:1018A000381EA7F10107F3DC2046FEF72DFF0320C9
:1018B00011B041E62DE9F04F04460D46D21D22F04D
:1018C000070089B0D0E90097484639460CF035F852
:1018D0000246F80F01D02D2307E02068810701D5CB
:1018E0002B2302E0202101EAC0038DF820300BB148
:1018F000012000E00020032A824601D0072A04DBF1
:101900002946204600F024FA3FE12078800601D4E1
:101910000D2500E0E569C7F30A560D2D49DA0021CF
:101920004FEA175B08464FF00000002F00F440001C
:1019300007DA00EB80004FF4400100EBD07001EAC1
:1019400060008115012901DD4FF0FF3100224FEACF
:10195000850CBCF1180F06D31346ACF118004FF0FC
:101960008052C24003E04FF4801323FA0CF30CF1D1
:101970000C0CBCF1200F04D3ACF1200C09FA0CF0D4
:1019800001E007FA0CF000294FF0004801DD18B91A
:101990000FE00ED140450CD319EB02095F4121B98C
:1019A000404502D19F4329EA0209BBEB175F00D0F3
:1019B000761C2088000502D57B48784402E07A48EE
:1019C0007844193808AA302302F80A30037C0AF157
:1019D0000101002E0AF1020A53546A4602DC4FF05C
:1019E000300101E04FF031014FF001088DF8001097
:1019F00002D0A6F2FF3603E059EA470100D06B4E51
:101A0000002D02DC2178090704D54FF002082E21B1
:101A10008DF80110C44600210BE0C7F303433F01DA
:101A2000C35C491C6D1E02F80830052908F1010845
:101A300001DA002DF1DC00210CE000EB1973491CE8
:101A40001B786D1E082902F808304FEA091908F1C1
:101A5000010801DA002DF0DC21688B0602D516E0C2
:101A6000A8F10108E04505DD02EB080313F8013C8D
:101A7000302BF5D0B8F1000F09DD02EB080313F8A5
:101A8000013C2E2B03D1090701D4A8F10108002D38
:101A900005DD3E2102F808106D1E08F10108407CAA
:101AA000002E02F8080008F1010804DA2D20764221
:101AB00002F8080002E02B2002F808000A214FF487
:101AC0007A70864208F101080BDB96FBF0F33033A5
:101AD00002F8083096FBF0F308F1010800FB1366EA
:101AE00001E0642E0CDB642096FBF0F3303302F847
:101AF000083096FBF0F308F1010800FB136601E0E3
:101B00000A2E06DB96FBF1F0303002F8080008F1EF
:101B1000010896FBF1F001FB1060303002F808007C
:101B2000A16908F1010808EB050202EB0A00081A96
:101B3000A0612078C00602D42046FEF7CFFD216ABE
:101B400008AE01EB0A00206204E0D4E9012116F896
:101B5000010B9047BAF1010AF7D22078C00602D5EE
:101B60002046FEF7BBFD6E4609E016F8010B3E2845
:101B70000FD0D4E901219047206A401C2062B8F1BF
:101B80000108F2D22046FEF7BFFD09B00320BDE8F0
:101B9000F08F206A2844206203E0D4E9012130203C
:101BA00090476D1EEBD3F8E72D24040002FCFFFFE5
:101BB00010B5436913B1AFF3008001E0FFF734FAC9
:101BC000012010BD128800F1240182840022C28409
:101BD0000122EDE711684FF0FF32E9E72DE9F05FF0
:101BE000824615468B4600270AF10104B946007863
:101BF000302801D09DB113E014F8010B012778289B
:101C000003D0582801D045B10AE00DB1102D07D1FD
:101C1000002714F8010B102502E0082500E00A2532
:101C20000026B0460EE005FB080005FB06F1012783
:101C30001FFA80F801EB1046B6F5803F00D3B94695
:101C400014F8010B294600F0C3F80028EBDABBF1C9
:101C5000000F05D00FB1641E00E05446CBF80040E1
:101C6000B9F1000F06D0FFF7C7F802210160C81EC6
:101C7000BDE8F09F48EA0640FAE770B516460C4604
:101C80000546FEF7EDFB036893F80101012806D035
:101C9000FF2C0FD8185D68B101202C7070BDD3F8EF
:101CA00007013246214603F2071303442846BDE8E4
:101CB000704018474FF0FF3070BD10B500F016F9B6
:101CC000BDE8104000F00DB930B503461D781DB1D8
:101CD0000A4603E0AC4201D1181A30BD12F8014B9C
:101CE000002CF7D15B1CF1E730B503461D783DB100
:101CF0000A4612F8014B1CB1AC42FAD15B1CF5E765
:101D0000181A30BD7546FFF763FBAE4605006946FD
:101D1000534620F00700854618B020B5FEF78CFB2F
:101D2000BDE820404FF000064FF000074FF00008DC
:101D30004FF0000B21F00701AC46ACE8C009ACE85D
:101D4000C009ACE8C009ACE8C0098D467047000086
:101D50002DE9F0411F46044603260168072A01F4D5
:101D6000006004DB08B116A505E016A503E008B184
:101D700015A500E015A521F010002060A069C01E87
:101D8000A0610FB1401EA0612046FEF7A7FC4FB135
:101D9000D4E9012138469047206A401C2062C01CCB
:101DA000206206E0206AFAE7D4E9012115F8010B68
:101DB0009047761EF8D22046FEF7A6FCBDE8F081DB
:101DC0004E414E006E616E00494E4600696E6600DF
:101DD0003A2800D2303820F02002412A01D3A2F163
:101DE0003700884201D34FF0FF3070472DE9F047AC
:101DF000814616468AB0354878440DC88DE80D00F6
:101E000032487844801C03AC0DC884E80D0041F6CC
:101E10009B300844372190FBF1F290FBF1F5A5F1DE
:101E2000800501FB12041B3C02D56442012000E046
:101E30000020DFF898A080460027FA44AAF1BE0AE5
:101E40000EE0E0070AD03246684607EB470101235F
:101E50000AEB810100F01CFB8DE8070064107F1C79
:101E6000002CEED1194F7F44AE3F19E0E80715D0A2
:101E700007EB04100DF1180A90E80E008AE80E0036
:101E8000C068F04201D1981908903246012306A992
:101E900003A800F0FDFA03AB83E807006D10641C93
:101EA000002DE3D14FF0010332466946B8F1000F2F
:101EB00003A802D000F0D7FA01E000F0E9FAC9E97E
:101EC0000001C9F808200AB0BDE8F0878C200400A2
:101ED00010B50446AFF300802046BDE81040FEF781
:101EE00018BA002801D00CF042BC704710B5012888
:101EF00005D0002103A000F021F8012010BD09A1A8
:101F0000F8E7000053494752544D454D3A204F756C
:101F100074206F662068656170206D656D6F7279E1
:101F2000000000003A2048656170206D656D6F7299
:101F30007920636F727275707465640070B50546C0
:101F40000C460A2000E06D1C0CF012FC35B128781C
:101F50000028F8D102E0641C0CF00AFC14B12078CF
:101F60000028F8D1BDE870400A200CF001BC5FEAFF
:101F7000400C08BF91F0000F4FEA8C234FEAC122BA
:101F800043EA51514FEA1C5018BF00F5F0404FEAA8
:101F9000300018BF41F000415FEA6C5C00F029801E
:101FA000BCF1FF3F08BF40F080407047130C06BFF4
:101FB00012044FF0100C4FF0000C130E04BF12026D
:101FC0000CF1080C130F04BF12010CF1040C930F59
:101FD00004BF92000CF1020CD30F04BF52000CF1AD
:101FE000010C11464FF00002A0F11F00A0EB0C0005
:101FF000704711F0004F08BF704731F000413FF4C7
:10200000D5AF0B0C06BF09044FF0100C4FF0000CBD
:102010000B0E04BF09020CF1080C0B0F04BF0901E1
:102020000CF1040C8B0F04BF89000CF1020CCB0FD8
:1020300004BF49000CF1010CCCF12003A0EB0C0013
:1020400022FA03F302FA0CF241EA030100F1010063
:10205000704720F07F4C80EA030023F07F47ACEB11
:10206000070303F57C5300F0004003F1FF032DE963
:1020700080494FEA154B09B44FEA144325EA0B4E49
:1020800024EA03480FF2042606EB132749083E789A
:102090005FEA320203FB0667C7F5000707FB06F697
:1020A0004FEA54374FEAD64606F1020607FB066CA4
:1020B000CCF1005C4FEA1C472CEA074C07FB06F406
:1020C0000CFB06F504EB15464FEA961634BF0020CC
:1020D0004FF000404FEAD13706FB07FC4FEA1C4C9B
:1020E0000CFB0BF7D21B03FB0CF761EB07010CFB9E
:1020F0000EF7B0EB074072EB17420CFB08F734BF4A
:10210000A2EB0742B2EB074261EB17414FEA0C44E6
:102110004FEA910706FB07FC4FEA1C4C0CFB0BF740
:10212000B0EBC74072EB573203FB0CF734BFA2EBA6
:10213000C742B2EBC74261EB57310CFB0EF7B0EB75
:10214000C70072EB57720CFB08F734BFA2EBC70253
:10215000B2EBC70261EB5771039F4FEA816141EA1D
:10216000921104EBCC044FEAD1374FEA826206FBAE
:1021700007FC42EA90124FEA80604FEA1C4C0CFBCD
:102180000BF7D21B03FB0CF761EB07010CFB0EF7FF
:10219000B0EB074072EB17420CFB08F734BFA2EB21
:1021A0000742B2EB074261EB17414FEA8C554FEA09
:1021B000910704EB9C2406FB07FC4FEA1C4C0CFB2C
:1021C0000BF7B0EBC74072EB573203FB0CF734BF91
:1021D000A2EBC742B2EBC74261EB57310CFB0EF7E3
:1021E000B0EBC70072EB57720CFB08F734BFA2EBE1
:1021F000C702B2EBC70261EB577115EB4C254FEAF2
:10220000816141EA92114FEA82624FEAD13742EA94
:10221000901206FB07FC44F100044FEA80604FEA8D
:102220001C4C0CFB0BF7D21B03FB0CF761EB0701FB
:102230000CFB0EF7B0EB074072EB17420CFB08F7F4
:1022400034BFA2EB0742B2EB074261EB174115EB3B
:102250001C154FEA813141EA92414FEA823242EA4B
:1022600090424FEA80304FEA0C7644F1000448EA8D
:1022700003434EEA0B484FF0000EB2EB080C71EB33
:10228000030724BF624639464EEB0E0E4FF0000B9B
:102290000018524149414BEB0B0BB2EB080C71EBB0
:1022A00003077BF1000B24BF624639464EEB0E0E4E
:1022B0004FF0000B0018524149414BEB0B0BB2EBB6
:1022C000080C71EB03077BF1000B24BF6246394613
:1022D0004EEB0E0E51EA020718BF46F0010616EB50
:1022E0000E7655F1000254F1000103D5BDE88901D5
:1022F000BDE80088BDE88901BDE80048B619524133
:1023000041EB0101A3F10103704780807F7E7D7C5A
:102310007B7A7978777676757473727171706F6E77
:102320006E6D6C6C6B6A6A69686867666665646422
:10233000636362616160605F5F5E5E5D5D5C5C5BAC
:102340005B5A5A595958585757565655555554541B
:10235000535352525251515050504F4F4F4E4E4D79
:102360004D4D4C4C4C4B4B4B4A4A4A4949494848C5
:102370004847474747464646454545444444444305
:1023800043434342424242414141002B9C4630D4A8
:1023900077002BD01CB54FEA370703B44FF010007D
:1023A0004FF01001BAF1000F06D0BCF1000FDCBFF6
:1023B00040F0080040F008014FF000000FBCBDE8FD
:1023C00010400BF1010BBBF1010F08BF5FEA1707CB
:1023D00022BF12F1010211F101014FF0004143F15E
:1023E000000300F0004043EA00007047F9D35708AB
:1023F000D0E746EA064613F1400F4FEA16461FDDC6
:1024000013F1200FDFBF16430A46002120335B4241
:10241000BED0C3F1200746EA064602FA07F74FEAA4
:10242000164646EA0706C3F1200722FA03F201FA2C
:1024300007F721FA03F14FF0000342EA0702A7E78A
:1024400046EA020646EA06464FEA164646EA01060C
:10245000BCBF46EA0646360C4FF000034FF00002C0
:102460004FF0000194E72DE9804C9A46934670B4F2
:1024700091E8380007C831EA400C48BF34EA430C01
:1024800003D5FFF7E6FDFFF780FFF0BCBDE8008C49
:102490002DE9804C9A46934670B491E8380007C8FD
:1024A00010F0804F08BF13F0804F03D100F005F803
:1024B000FFF76BFFF0BCBDE8008C20F07F4780EA9F
:1024C000030023F07F4C07EB0C03A3F57C5300F0D3
:1024D0000040A3F1FE0392F0000F00F0B38095F0EE
:1024E000000F00F077802DE901494FEA11404FEAD3
:1024F000144621EA004800FB06FC24EA064708FBD4
:1025000006F607FB08F800FB07F718EB06484CEB4C
:10251000164C4FEA124B18EB07484FEA15464CEBA6
:10252000174022EA0B4E0BFB06FC25EA06470EFB82
:1025300006F607FB0EFE0BFB07F71EEB064E4CEBF9
:10254000164C4FF000061EEB074E4CEB174B18EBEA
:102550000B0840F1000018EB0E0B58EB000840F19F
:1025600000008F1A4FF000013CBFC943661B14BF27
:10257000B5EB040C00213CBFC943F61B4FEA1744DE
:102580004EEA8E0E27EA04454FEA1C4704FB076219
:102590002CEA074C05FB07F70CFB05F604FB0CFCCB
:1025A00016EB074642EB174216EB0C4642EB1C4279
:1025B0001BEB060658EB0202414146EA9E0601D596
:1025C000BDE80189B619524141EB0101A3F10103B4
:1025D000BDE801894FEA14454FEA114724EA054650
:1025E00021EA074C05FB07F406FB07F70CFB06F195
:1025F00005FB0CFC11EB074144EB17444FEA124773
:1026000011EB0C4144EB1C4422EA074C05FB07F29A
:1026100006FB07F70CFB06F605FB0CFC16EB074662
:1026200042EB174216EB0C4642EB1C456A1854F17C
:10263000000148BF7047B619524141EB0101A3F1B7
:102640000103704795F0000F37D04FEA11424FEA6F
:10265000144721EA024624EA074C02FB07F106FB75
:1026600007F70CFB06F402FB0CFC14EB074441EBF0
:1026700017414FEA154714EB0C4441EB1C4125EA86
:10268000074C02FB07F506FB07F70CFB06F602FBFF
:102690000CFC16EB074645EB174516EB0C4645EBD5
:1026A0001C42121951F1000148BF7047B61952413E
:1026B00041EB0101A3F1010370474FEA14454FEAD2
:1026C000114724EA054621EA074C05FB07F106FB02
:1026D00007F70CFB06F24FF0000605FB0CFC12EBB3
:1026E000074241EB174112EB0C4251EB1C4148BF32
:1026F0007047921841EB0101A3F1010370470000FC
:102700007FB5002014F032FA039003A803F022FFF3
:102710000168009141680191224D0089ADF80800DF
:10272000A88B012460B19DF80420C0B204FA02F124
:10273000EA6F114201D0012100E0002109F0D0FC34
:10274000E88B68B19DF80420C0B204FA02F1D5F814
:102750008020114201D0012100E0002109F0C0FCDD
:10276000288C68B19DF80420C0B204FA02F1D5F8B3
:102770008420114201D0012100E0002109F0B0FCC9
:10278000A88B03F067FB084E38B9E88B03F062FBB7
:1027900018B9288C03F05EFB08B174817FBD00205E
:1027A00070817FBD54590020A86200202DE9F047B8
:1027B000002014F0DBF93A4C3A4F3B4D21790226C8
:1027C0003A464FF001084FF0000921B1012912D01B
:1027D000022955D13FE003F04DFBD8B3D0E90012F8
:1027E00080683960C7E90120000F02D084F80480B6
:1027F00046E0267144E05168411AB5F8FC00C0EB90
:102800000010B1EB800F3BD92848018889060BD511
:102810000088400608D595F83000012109F060FCD9
:1028200095F83200012107E095F83000002109F009
:1028300057FC95F83200002109F052FC03F01AFB16
:1028400040B181680A0F1BD1D0E900203A60C7E986
:102850000101CEE714E05168411AB5F8FC00C0EB65
:102860000010B1EB800F0BD995F83000002109F072
:1028700037FC95F83200002109F032FC84F804900E
:10288000288E03F0E7FA0A4C18B9688E03F0E2FAD2
:1028900018B1A4F80880BDE8F087A4F80890FAE71A
:1028A000040000204C480020545900200201002060
:1028B000A86200202DE9F041002014F057F93C21D6
:1028C000B0FBF1F0344A0125344C5179002759B15D
:1028D000334E01290BD003292BD05771A08E03F062
:1028E000B9FA304EF0BB4EE050625571F6E7516ACE
:1028F000B4F81C31411A994202D903215171506236
:10290000308840073BD43088000738D430888007AF
:1029100003D594F83400012129E03088C0072ED077
:1029200094F83400012109F0DBFB94F83600002113
:1029300022E0516AB4F81C31411A994202D955710A
:10294000506203E0E08E401E03F084FA30884007B6
:1029500015D43088000712D430888007D9D4308845
:10296000C00700E013E00AD094F83400002109F019
:10297000B7FB94F83600012109F0B2FBAEE794F8FA
:1029800034000021CFE7E08E03F064FA10B1358007
:10299000BDE8F0813780FBE7040000205459002097
:1029A00002010020A862002010B5C0B231B101219F
:1029B00009F096FB04490120888010BDBDE8104055
:1029C000002109F08DBB0000A86200202DE9F0472E
:1029D000002014F0CBF83C21B0FBF1F44F4D03275D
:1029E0004F4EA8784FF001084FF0000905287AD221
:1029F000DFE800F0030C28436500AC61EC6185F86A
:102A00000280308D0121FFF7CFFF76E0A869211AFF
:102A1000B6F8BC008142308D09D90021FFF7C4FF10
:102A2000708D0021FFF7C0FF0220AC6135E0401E31
:102A300003F010FA032860D1308D0021FFF7B4FFB6
:102A4000708D37E0A869B6F8BE10201A884254D9B4
:102A5000AC61E869B6F8C010201A884206D9708DBA
:102A60000121FFF7A1FFAF70EC6146E0308D01213D
:102A7000FFF79AFF85F802803FE0A869B6F8BC101E
:102A8000201A88420BD9308D0021FFF78DFF708D01
:102A90000021FFF789FF0420AC61A8702DE0708D44
:102AA000401E03F0D7F9032827D1708D0021FFF7CE
:102AB0007BFF308D0121FFF777FFAF701DE0A86924
:102AC000B6F8BE10201A884217D9E869B6F8C010C7
:102AD000201A884208D9308D0121FFF765FF85F85B
:102AE0000280EC6105E006E0708D0121FFF75CFFDC
:102AF000AF70AC6101E085F80290308D03F0AAF967
:102B0000084C18B9708D03F0A5F918B1A4F8048029
:102B1000BDE8F087A4F80490FAE700000400002064
:102B200054590020A8620020054800880106054885
:102B3000C08CC0B201D5012100E0002109F0D0BA5B
:102B4000020100205459002070B505461348134A6D
:102B5000408C948CA84202D0AC421DD1044610484F
:102B60000288120703D511B1E0B2012105E0008807
:102B7000400707D531B1E0B2002109F0B1FAE8B25F
:102B8000012105E0E8B2002109F0AAFAE0B2002133
:102B9000BDE8704009F0A4BA70BD0000545900208F
:102BA000020100202DE9F047002013F0DFFF3C2157
:102BB000B0FBF1F45E4D03275E4E28784FF001081C
:102BC0004FF00009052877D2DFE800F00308223D26
:102BD0005A002C616C6185F8008017E02869B6F80E
:102BE0009C10201A8842708C06D90021FFF7ACFF98
:102BF00002202C61287009E0401E03F02BF9032805
:102C000004D1B08C0121FFF79FFF2F70708C33E04F
:102C10002869B6F89E10201A88424FD92C6168693D
:102C2000B6F8A010201A884206D9B08C0121FFF70F
:102C30008BFF2F706C6141E0708C0121FFF784FFE6
:102C400085F800803AE02869B6F89C10201A88427E
:102C5000B08C06D90021FFF777FF04202C61287083
:102C600009E0401E03F0F6F8032804D1708C01211E
:102C7000FFF76AFF2F70B08C0121FFF765FF1DE0A1
:102C80002869B6F89E10201A884217D96869B6F8E4
:102C9000A010201A884208D9708C0121FFF754FF38
:102CA00085F800806C6105E006E0B08C0121FFF73B
:102CB0004BFF2F702C6101E085F80090708C03F0C1
:102CC000C9F818B9B08C03F0C5F800B101206978D3
:102CD00088422AD0708C03F0BDF818B9B08C03F08C
:102CE000B9F800B101206870708C03F0B3F8124D90
:102CF000124C18B9B08C03F0ADF838B1A5F80280C9
:102D0000A06820F0704000F1805004E0A5F8029027
:102D1000A06820F07040A060002013F027FF6060E2
:102D2000BDE8F047054800F0DFBABDE8F0870000D5
:102D30000400002054590020A8620020284B0020E5
:102D400010B5074C2288D20603D511B1C0B20121BB
:102D500001E0C0B2002109F0C3F9208810BD0000D5
:102D6000020100202DE9F041002013F0FFFE3C217C
:102D7000B0FBF1F4284D294F0126E8784FF0000808
:102D800058B101280BD0032821D085F80380B88DD5
:102D900003F060F8224C88BB33E02C622FE0B88D42
:102DA000401E03F057F8032103280ED0286AB7F815
:102DB000DC20201A904201D9E9702C62B88D0121E3
:102DC000FFF7BEFFF88D002115E0E970DFE7F88D11
:102DD000401E03F03FF8032811D0286AB7F8DC1032
:102DE000201A884201D9EE702C62B88D0021FFF7BD
:102DF000A7FFF88D0121FFF7A3FFC8E705E0EE70FC
:102E0000C5E7F88D03F026F810B1E680BDE8F08143
:102E1000A4F80680FAE700000400002054590020BE
:102E2000A862002000F020B80029816802D041F09B
:102E3000010101E021F0010181607047084B10B5EC
:102E4000D3F8042307490A40D0E900142143D0E90C
:102E50000240044321431143C3F8041310BD000092
:102E600000200140E030FCFF70B58CB0012107204C
:102E700006F05EFC4FF4E0660121304606F094FC5B
:102E80007820002406908DF81F4003258DF81C50F3
:102E900006A9494802F03EFA8DF81F4006958DF8C4
:102EA0001C5006A9454802F035FA092006908DF815
:102EB0001F408DF81C5006A9414802F02BFA012151
:102EC000280206F07DFC0021304606F079FC162031
:102ED00008904FF470600B904FF480400A902804E3
:102EE000099008A8FFF7AAFF012000940294039418
:102EF00004948DF80400334C8DF805008DF81450BF
:102F00006946204600F07CF8072301220321204671
:102F100000F0ACF8072302220421204600F0A6F8B6
:102F2000072303220521204600F0A0F8264D69461C
:102F3000284600F065F8072301220621284600F004
:102F400095F8072302220821284600F08FF807236E
:102F500003220921284600F089F81C4E69463046B4
:102F600000F04EF8072301220A21304600F07EF8D7
:102F7000072302220D21304600F078F807230322B0
:102F80000D21304600F072F8012000F05FF80121B9
:102F9000204600F01DF801212046FFF745FF0121E2
:102FA0002846FFF741FF01213046FFF73DFF20464D
:102FB00000F096F80CB070BD000002400004024022
:102FC0000008024000200140002101400022014091
:102FD0000029816802D041F4807101E021F4807100
:102FE0008160704740F6E441484300EE100A9FEDCF
:102FF000031AF8EE400A80EE810A704700F07F4520
:1030000030B542680F4B0C791A400B6842EA042233
:103010001343436082680C4B4D791A40D1E9034356
:1030200023438C6844EA4504234313438360C26A04
:10303000097D22F47002491EC9B242EA0151C162FF
:1030400030BD0000FFFEFFFCFDF7FFC00649002871
:10305000D1F8040302D040F4005001E020F4005005
:10306000C1F80403704700000020014070B5072636
:1030700009290AD9C568A1F10A0404EB4404A64051
:10308000B543A3401D43C56007E0056901EB41045A
:10309000A640B543A3401D4305611F23072A09D25B
:1030A000446B521E02EB820293409C4391400C43BE
:1030B000446370BD0D2A09D2046BD21F02EB820259
:1030C00093409C4391400C43046370BDC46A0D3A25
:1030D00002EB820293409C4391400C43C46270BD5A
:1030E000816841F080418160704700000FB42DE994
:1030F000F047234F82460026B87890468946A7F1CC
:103100001405012808D0022829D00120B870002019
:10311000BDE8F0075DF814FB0B9888B14FF48060B0
:10312000FDF7A6F9041EF3D00CAA0B99FDF792FA4D
:10313000234642464946504608F0E6FB10B108E0F7
:103140000024F5E70220B870B5F90000002800DA85
:103150002E80002CDBD02046FDF7B9F9D7E7B5F972
:103160000000411C05D0C11C03D0801CCFD102201F
:10317000CEE7104600F006F80428C9D12E80C6E735
:103180005001002070B5054639A13A48FDF722FCF0
:1031900004006AD038A1FDF7DDFD00284BD037A12F
:1031A0002046FDF7D7FD002847D04DB12846FDF752
:1031B00073FC024629462046FDF78DFC00283ED0D0
:1031C0000A2230A12046FDF786FC002839D00A22C9
:1031D0002FA12046FDF77FFC002834D006222FA126
:1031E0002046FDF778FC00282FD02EA12046FDF7C1
:1031F000B1FD60B32FA12046FDF7ACFD48B3072217
:103200002AA12046FDF767FC28B32EA12046FDF732
:10321000A1FD10B32DA12046FDF79CFDF8B12EA114
:103220002046FDF797FDE0B12CA12046FDF792FD69
:10323000C8B1032070BD062070BD072070BD0520F9
:1032400070BD082070BD092070BD132070BD0F2017
:1032500070BD102070BD0A2070BD112070BD1220FD
:1032600070BD0C2070BD0D2070BD042070BD00002D
:103270000D0A0000546400204F4B00004552524F8D
:10328000520000002B434D45204552524F52000042
:103290002B434D53204552524F520000535441543A
:1032A000453A0000414C524541445920434F4E4E4F
:1032B00045435400434F4E4E454354204641494CEC
:1032C0000000000053485554204F4B00434C4F53CF
:1032D00045204F4B000000005244590043616C6C84
:1032E000205265616479000030B5164D00230360FB
:1032F000A968B9B91449D0E90140CB60C1E90440DB
:1033000001F10C041831C5E90241022000EB400232
:1033100004EB82020A60401C11463C28F6D313607D
:1033200030BD11460A68002AFBD1EA68002AF7D0AE
:103330000A60EA681268EA6009680DC881E80D0051
:1033400030BD0000040000204C48002010B50D4C9A
:10335000092300210C48226805F0F0F80C23002115
:103360000A48626805F0EAF80B2300210848A268C1
:1033700005F0E4F8E2680A23BDE8104000210548A2
:1033800005F0DCB8107E010831C4000809C6000849
:1033900031C9000885C8000810B508F08BFF01F09E
:1033A0005DFE00F0E3F84FF4407004F067FA03F0BC
:1033B000F5FA00F08BFCBDE81040FFF733BDFEE7E7
:1033C00010B5074C07E011F8013B4340DBB234F87D
:1033D000133083EA1020521ED2B2F4D210BD000086
:1033E000288D010813B5012201A9FFF7E9FF1CBDD3
:1033F00070B500202DED028B84B0264A009001901C
:103400000290A2F112030A24039032F81010E9B3DB
:1034100033F8105001EBC101294489B2B1FBF4F13A
:1034200022F81010401CC0B20828EED31088ADF866
:103430000000D088ADF802009089ADF804005088F3
:10344000ADF806005089ADF808009088ADF80A0084
:103450001089ADF80C000F4ED08900249FED0E8A24
:10346000ADF80E006D46323E35F81400FFF7BAFD98
:10347000C0EE080A06EB8400641CE4B2082CC0ED20
:10348000000AF1D304B0BDEC028B70BDFFE733F846
:103490001010C5E79E7900200000164330B50020CB
:1034A000094A0346FF2400EBC00112F8215085426F
:1034B000F9D102EB8101401C4D681A286B60496804
:1034C0000C70F0DB30BD000080890108014600204F
:1034D0001A2900D3401E70472DE9F04704212148E6
:1034E00001F064FF0126204C4FF002084FF461798F
:1034F000002510B1A068E8B11FE0606810B90BF0BA
:10350000EAF9606000F080FA032748450ED2A0680F
:1035100000F07AFAB0F52F7F01D3267007E0B428C7
:1035200002D384F8008002E0207800B92770A560FB
:10353000BDE8F0870BF0CFF9A06000F065FA4845D0
:1035400001D325700CE0606800F05EFA40F2EE21D5
:10355000884201D3267003E0B42801D384F80080A8
:103560006560E5E7000802402402002010B500F085
:1035700089F8002004F01EFF054C206030B10120C6
:1035800004F018FF6060002801D1FEE7FEE710BDDF
:10359000280100202DE9FC5F17460246009800250F
:1035A00040F0004062F39E6061F31940009099463C
:1035B0002E468DF80170202F5AD8DFF8BCA001AA42
:1035C0000321DAF8040004F019FF00224FF48051BF
:1035D0002A4801F0FDFE3C2008F0A4FDDFF8A0B071
:1035E0000324E84618F8040008F09CFD0BF80500D9
:1035F0006D1CEDB218F804103046FFF7F3FE641EA0
:10360000064614F0FF04EDD10F200BF0D8FB0EE0BE
:10361000002008F087FD09F8040001463046FFF756
:10362000E1FE064605200BF0CAFB641CE4B2BC4276
:10363000EED3F0B208F076FD044605200BF0BFFB98
:10364000300A08F06FFD60F31F243220401C10F098
:10365000FF00FBD101221103084801F0B9FEDAF89E
:10366000040004F027FFB44202D10020BDE8FC9F13
:103670004FF0FF30FAE7000028010020000402406C
:10368000B66300202DE9F04188B00121022006F048
:103690004FF84FF480480121404606F06DF80225AE
:1036A0008DF804504FF460408DF8055000242C4FE5
:1036B00000908DF806408DF807406946384601F0C5
:1036C00029FE05220D21384601F060FE05220E215B
:1036D000384601F05BFE05220F21384601F056FE08
:1036E00001208DF804008DF80550EE028DF806409B
:1036F00000968DF807406946384601F00BFE01221E
:103700003146384601F064FE0121404606F040F89B
:103710000021404606F03CF8ADF808404FF48270B6
:10372000ADF80A00ADF810402802ADF812003020C4
:10373000ADF81400ADF80C40ADF80E40ADF81640F1
:103740000720084CADF8180002A9204608F077F8C9
:103750000121204608F05EF808B0BDE8F0810000C5
:1037600000040240003800402DE9FC5F924602460A
:103770000098DFF8D4B020F0004062F39E6061F35F
:10378000194000908DF801A01F46002601AA0321D0
:10379000DBF8040004F032FE00224FF480512B4885
:1037A00001F016FE3C2008F0BDFC29490125032448
:1037B0000870E846894618F8040008F0B3FC09F8D8
:1037C00005006D1CEDB218F804103046FFF70AFE34
:1037D000641E064614F0FF04EDD10DE0385D08F0DC
:1037E000A1FC09F805006D1CEDB2395D3046FFF70C
:1037F000F9FD641C0646E4B25445EFD305200BF0F6
:10380000DEFAF0B208F08EFC044605200BF0D7FA81
:10381000300A08F087FC60F31F243221491C11F0A4
:10382000FF01FBD101221103084801F0D1FDDBF8B3
:10383000040004F03FFEB44202D10020BDE8FC9F2A
:103840004FF0FF30FAE7000028010020000402409A
:10385000B663002070B500254FF4803405E0802069
:1038600006F0FCFC08B144B101E0641EF7D240F25E
:10387000FF5006F0CBFC284670BD032070BD000051
:1038800010B504461348016811F0450FFBD0042021
:1038900006F0E4FC20B1042006F0B8FC032010BDC3
:1038A000012006F0DBFC20B1012006F0AFFC012076
:1038B00010BD084824380068A04201D0102010BD77
:1038C00040F2FF5006F0A2FC02482038006800F0E9
:1038D000080010BD342C014010B500244FF4803195
:1038E0000E4809E0026812F0450F05D009B15007F3
:1038F00005D5032404200CE0491EF3D2F7E701208C
:1039000006F0ACFC18B10124204606F07FFC40F222
:10391000FF5006F07BFC204610BD0000342C014017
:1039200010B50A49086810F0450FFBD0042006F0D6
:1039300095FC20B1042006F069FC032010BD40F284
:10394000FF5006F063FC002010BD0000342C014045
:1039500070B506461C480D460024026812F0450F5B
:10396000FBD0042006F07AFC20B1042006F04EFCC7
:10397000032070BD012006F071FC20B1012006F08B
:1039800045FC012070BD104824380068B04212D1B7
:1039900040F2FF5006F03AFC0B482038026812F45F
:1039A000604F03D0900404D5132070BD100C288004
:1039B00007E0500401D5102070BD100401D50F2080
:1039C00070BD204670BD0000342C014010B50024AD
:1039D0004FF480320B4809E0016811F0450F05D023
:1039E0000AB1480705D50324042006E0521EF3D28D
:1039F000F7E7480603D50024402006F007FC2046E0
:103A000010BD0000342C014010B5044605F046F806
:103A1000A04201D3001B10BDE143084410BD0000CB
:103A20002DE9F84F00F00706C50831B10024CF1D7D
:103A30002046DFF894E0009736E000201870BDE8DB
:103A4000F88F224F05EB000CC6F1080BD7F818A031
:103A50000AEB0219D9F8087017F80CC05EF82B7041
:103A60002CFA06FC0CEA070C401CB9F90270C0B233
:103A700005EB0008FF1DB8EBE70F02DB0025284629
:103A8000521C0AEB021705EB0008BF6817F8087014
:103A90001EF8268007EA080707FA0BF747EA0C0723
:103AA0001F55641C009FE4B2B4EBD70FC9D348077D
:103AB000C5D0181901F0070310F8012D1EF82310C6
:103AC0000A400270BBE700005C8501080401002089
:103AD0002DE9FF4F9946C40800F00703002108466E
:103AE000DFF8B8B0DFF8B8E052E009EB010519F8EB
:103AF00001606D7806EB0525DBF81860ADB206EBCA
:103B00000216D6F808802618C24618F806701EF865
:103B1000238007EA08070AF80670DBF8188008EB2C
:103B20000218D8F808A005FA03F847EA08070AF8C7
:103B30000670DBF81860401C06EB021CC0B2BCF932
:103B400002C027180CF1070CB7EBEC0F02DB0024C6
:103B50002046521CD3B106EB0216D6F808C0261830
:103B6000E0461CF806701EF823C027EA0C0708F888
:103B70000670DBF818C0C3F108080CEB021C25FA2C
:103B800008F5DCF808C02F430CF80670491CC9B2D0
:103B9000019DB1EBD50FA8D3BDE8FF8F0401002034
:103BA0005C850108F0B539B14FF6FF7404EA410CA9
:103BB00000242146114F1EE000201870F0BD1D1991
:103BC0001E5D6D7800EB010E05EB06257E69491C34
:103BD00006EB021689B2B66826F81E507E694518B3
:103BE00006EB0216B6F90260B54202DB0020014680
:103BF000521CA41CA4B26445E1D3F0BD0401002012
:103C0000F0B531B14FF6FF7404EA410700242146B4
:103C100029E000201870F0BD144E756905EB0215FF
:103C2000D5F808C04518491C3CF815C089B24FEAC0
:103C30001C2C03F804C0D6F814C0641C0CEB021C46
:103C4000A4B2DCF808C01CF815501D557669641C38
:103C500006EB02164518B6F90260A4B2B54202DBC3
:103C600000200146521CBC42D6D3F0BD0401002006
:103C700070B5134D134E00242946304600F024F948
:103C8000002818D02946304600F022F80E490A23B1
:103C9000A1F1120231F8140070B132F8145000EBA7
:103CA000C000284480B2B0FBF3F021F81400641C7B
:103CB000E4B2082CEED370BD32F81400F5E7000032
:103CC00020000010106402409E79002000F020B80F
:103CD000074A904201D2074801E005481038064AD9
:103CE0008B0001EA020101D5C16070478160704715
:103CF00010640240006002407D0F7D0F00290168C2
:103D000002D041F0010101E021F0010101607047A2
:103D100010B5012190B0880505F00AFD154C20462C
:103D200000F02EF8204600F0C7F80028FAD112491A
:103D3000CDE900011149CDE902100921CDE90410B6
:103D40004FF480610691490007918900089149115B
:103D500009910902CDE90A100121CDE90C100E905C
:103D60006946204600F0CAF801212046FFF7C6FF49
:103D700010B010BD10640240082301408C7900206F
:103D80002DE9F043016821F001010160002101608B
:103D900041608160C1600161212141613C493C4A2F
:103DA0003D251039904202D18D60BDE8F083384A3C
:103DB0004FF474661832904201D18E60F5E7344AB0
:103DC0004FF474173032904201D18F60EDE7304AE2
:103DD0004FF0746C4832904202D1C1F808C0E4E759
:103DE0002B4B2C4A6033984201D1CA60DDE7284C46
:103DF000294B7834A04201D1CB60D6E7DFF8908020
:103E0000264C08F19008404501D1CC60CDE7DFF8A1
:103E100080804FF03D5908F1A808404502D1C1F813
:103E20000C90C2E71E49DFF878800839404501D17F
:103E30000D60BAE71A4D1835A84201D10E60B4E7FB
:103E4000174D3035A84201D10F60AEE7144D48350B
:103E5000A84202D1C1F800C0A7E7114D1049603552
:103E6000091FA84201D10A609FE70D4A78329042AB
:103E700001D10B6099E70A4A9032904201D10C605F
:103E800093E7074AA83290428FD1C1F800908CE79F
:103E9000106002403D000020400F002000003D2047
:103EA000106402400029016802D041F0200101E0C5
:103EB00021F0200101607047014600200968C90710
:103EC00000D00120704700000246094B00209A42B2
:103ED00001D2084A01E0064A103A8B0001D5526827
:103EE00000E01268044B1A400A4200D001207047DB
:103EF00010640240006002407D0F7D0F30B5036802
:103F0000124ACC6813400A682243D1E905452C4384
:103F10002243CC6922430C6A22434C6A22438C6AB6
:103F200022434C6B22438C6B22431A43026042694A
:103F300022F00703D1E90B2422431A4342610A69A4
:103F400042604A6882608968C16030BD3F801CF071
:103F5000704700000149486170470000009002402E
:103F6000044A0029D16901D0014300E08143D161B5
:103F7000704700000090024005490028886902D07F
:103F800040F0020001E020F002008861704700006C
:103F900000900240F0B5124F00234FF0004C44F265
:103FA000F45E561E786013E000EB4314C4F800C0C2
:103FB000C3EBC31505EB450501EB8505C4E901E538
:103FC000B34203D204F12005E56000E0E0605B1C31
:103FD0009342E9D30349C8600348B860F0BD0000CC
:103FE000C802002000900240241401200549002846
:103FF000886902D040F4005001E020F4005088614C
:104000007047000000900240F0B50F4C00234FF4C1
:104010008017561E206011E000EB43142760C3EBAD
:10402000C31505EB450501EB8505A560B34203D239
:1040300004F12005E56000E0E0605B1C9342EBD3F7
:1040400002490861F0BD0000C80200200090024053
:1040500002680A430260704710B501214C062046F1
:1040600005F072FB2046BDE81040002105F06CBB56
:1040700001B581B001980090002801D0401EFAE7F8
:104080000CBD00000248816941F4801181617047D4
:10409000009002400148006880687047C802002014
:1040A00002680021002A08DB0268120405D40268B5
:1040B000D20502D50068C0F30D41084670470000E4
:1040C000034900200968C90700D00120704700009B
:1040D0000090024010B5094C01E00FF029FD206866
:1040E000FFF7DEFF0028F8D14020FFF733FFBDE8DF
:1040F00010404FF48030FFF72DBF0000CC020020AD
:104100002DE9F04186B000277F4E044600970197C5
:104110003069884620F01C0502A805F05DFB7B494C
:1041200003987B4A0144914202D245F0080516E00B
:104130007849794A0144914202D245F00C050EE0DB
:104140007649774A0144914209D376490844764931
:10415000884202D245F0040501E045F010053561C2
:104160004FF400420021404600F06CFA00282DD0A8
:104170006E48FFF77DFF2068B0B301980121401C15
:104180000190404600F086F9400702D40198642867
:10419000F3D3674D0198A84217D04FF48052002105
:1041A0004046019700F04EFA00280FD001980121F7
:1041B000401C0190404600F06DF9800602D4019841
:1041C0006428F3D30198A84203D1002006B0BDE8CB
:1041D000F0811F214046019700F05CF9C10604D52B
:1041E0004FF40061216201E008E02762400701D539
:1041F000676113E04FF4804060610FE0206A6169FD
:10420000C00840EA510082B20021404600F01AFA8C
:104210000028DBD06FF07F40FFF72AFF3168454868
:104220000140D4E901021043E26854F8103F1A43F8
:10423000104362681043A2681043E2681043226989
:10424000104362691043A2691043E2691043226A75
:104250001043626A104308433060F4E90A010843DE
:10426000D4E90212114308432169084361690843F4
:10427000A1690843E16908437060206AB060606A20
:10428000F060B0694FF641710840D4E90B12114358
:10429000238D626B42EA03421143A26B1143E26B2E
:1042A00011430143B161D4E910010843F061224890
:1042B000826922490A40D4E912131943D4E914351A
:1042C0002B431943A36D1943E36D1943236E19431F
:1042D000636E1943A36E194311438161D4E91B1224
:1042E0001143626F54F8783F1A431143626841EA00
:1042F0008201A268114341F400010160016841F0AC
:1043000080010160012061E70080024000D3CEFE01
:10431000C0E1E40040F1E9FD40787D0100796CFCEA
:10432000005A6202001F0AFA80F0FA02FFFF0F0033
:10433000FFFF04000F8120FF00900240233FDEF8C2
:10434000054B8A88184402640A78D1F8011042EAC1
:1043500001214164704700000080024010B5B0B0F8
:1043600001214FF0606005F0E3F9FFF775FE00F002
:10437000E9F8FFF7A5FE0128FBD0684600F0FBF83E
:104380000120009000204FF40071CDE90A100904CB
:1043900007901190CDE920010E90149013900A110E
:1043A00015902590269023920420CDE928018003C2
:1043B0002A9080012B9040122C9040002E900021DA
:1043C0006846FFF79DFEC4B2012C03D101210348CA
:1043D000FFF7C6FD30B0204610BD000040000100D0
:1043E00005490028086802D040F0040001E020F0F0
:1043F0000400086070470000008002400549002862
:10440000086802D040F0080001E020F008000860D1
:10441000704700000080024010B5094C0020216860
:104420000FF0FEFD002061680FF0FAFD0020A1688A
:104430000FF0F6FDE168BDE8104000200FF0F0BD80
:104440001402002070B5A02100200FF0F5FD104CE3
:10445000A021206000200FF0EFFD41F6C455606000
:10446000294600200FF0E8FDA060294600200FF04B
:10447000E3FDE060216831B1616821B1A16811B14B
:1044800008B1002070BDFFF7C7FF012070BD00001C
:104490001402002018B500220092124A13694FF648
:1044A000FF7403F01C0304EAC02018434FF4F863C0
:1044B00003EA8111014321F0020040F00100106184
:1044C00009490098401C00901069C00702D000986C
:1044D0008842F6D30098884201D1002018BD506967
:1044E00080B218BD00800240FFFF040070B5134C7D
:1044F00000231A4621680D68002D0BDA1049164674
:104500004B691B0602D580234B618E6002604260BE
:10451000826070BD0D682D040AD40D68ED0507D5C5
:104520000D68AD0504D50A68C2F30D438A681B1FE8
:10453000CD6825600360C0E9012170BDCC02002078
:10454000009002400248016841F00101016070479B
:104550000090024000B50120FFF750FFFFF792FDE9
:104560000120FFF73DFF0120FFF740FD01205DF82E
:1045700004EBFFF701BD0121016000214160816072
:104580004FF48042C160C0E90412D2108161C0E9D9
:10459000071241628162C16201634163402281630B
:1045A000C0E90F122022C0E91121C16401654165F3
:1045B00081658022C165C0E918128166C166016704
:1045C0004167D2048167C0E91F125210C0E921215E
:1045D0001311C0E92331C0F89410C0F89810C0F846
:1045E0009C10C0E928125212C0F8A8209201C0F80D
:1045F000AC205212C0E92C21C0F8B810704700005E
:104600000E4A11680B68002B01DA00207047C0F3D6
:104610000C004860086840F040500860086840F0AE
:1046200000400860064843695B0703D504234361E3
:1046300000234360C868106001207047C802002052
:104640000090024038B500230093114B1C694FF6CF
:10465000FF7504F01C0405EAC02020434FF4F86401
:1046600004EA8111014341F003005A6118610949CC
:104670000098401C00901869C00702D0009888423A
:10468000F6D30098884201D1002038BD012038BD02
:1046900000800240FFFF040010B5102000F01EF85B
:1046A000002804D0BDE81040102000F011B810BD63
:1046B00010B54FF48074204600F010F8002806D0A2
:1046C00004F026FE2046BDE8104000F001B810BD01
:1046D0000149086070470000143C0140034A01464C
:1046E000002012680A4200D001207047143C0140AB
:1046F00030B51A4A8379016853B313688B4313604A
:10470000111D0B680468A3430B60017911440B6809
:10471000046823430B60114B083319680468A143F4
:1047200019601C1D21680568A94321604179102981
:1047300005D011440A68006802430A6030BD196858
:10474000026811431960216800680143216030BD8F
:104750000079104402688A43026030BD003C014089
:104760002DE9F0410546022803DD6FF00200BDE8A7
:10477000F081164C00274FF00208A4F11406A0782F
:1047800002280CD0032802D00320A07016E007F006
:1047900039F9012810D1378084F802800CE0B6F98D
:1047A0000000002804DA0AA10B48FCF7D3FA38B15C
:1047B000B6F90000801C06D0002DE0D10020D6E71D
:1047C0000120A070D3E74FF0FF30D0E75001002068
:1047D0004F4B0D0A0000000054640020002200F03E
:1047E00001B8000030B50E4B05460120DC7C032CDF
:1047F00015D2D87C00241C54D87C03EB8000456083
:10480000DD7C03F110002A54D87C421CDA7430306D
:1048100008703A2048702F208870CC70002030BD7E
:10482000C02B012005490028086802D040F48060B0
:1048300001E020F48060086070470000003C024006
:1048400070B50646002529B1012927D0022928D0B4
:104850004FF4407500F0DAF809281ED1124C206898
:1048600020F440702060206828432060206820F0F9
:10487000F8002060206846F00201084320602068AC
:1048800040F48030206000F0C1F8216821F002017E
:104890002160216821F0F801216070BD4FF480751E
:1048A000D8E74FF40075D5E7103C02401C49884218
:1048B00001D2002070471B49884201D2082070476E
:1048C0001949884201D2102070471849884201D204
:1048D000182070471649884201D220207047154998
:1048E000884201D2282070471349884201D23020E3
:1048F00070471249884201D23820704710498842D7
:1049000001D2402070470F49884201D248207047A9
:104910000D49884201D2502070475820704700004E
:10492000004000080080000800C0000800000108E6
:104930000000020800000408000006080000080843
:1049400000000A0800000C0800000E080D490920AC
:104950000A68D20301D5012070470A68D20601D542
:10496000062070470A68D20501D5022070470A6800
:1049700012F0E00F01D00720704709688907FBD5C6
:10498000082070470C3C02400248016841F0004199
:1049900001607047103C024070B50D46064600F0BD
:1049A00035F8092813D10A4C206820F440702060A3
:1049B000206840F400702060206840F00100206012
:1049C000356000F023F8216821F00101216070BDFD
:1049D000103C024010B5002303E010C841F823400A
:1049E0005B1C9342F9D310BD05480068002805DA26
:1049F000034804490C380160034901607047000016
:104A0000103C024023016745AB89EFCD08B5092072
:104A10008DF80000FFF79AFF8DF800009DF8000068
:104A20000128F7D09DF8000008BD00002DE9F041F5
:104A3000092690460F460446B0F1006F01D3A00747
:104A400003D04FF0FF30BDE8F081FFF7CDFF00202D
:104A5000FFF7E8FE1548254604EB880884420ED38C
:104A60001AE02868401C09D02846FFF71FFF0221E2
:104A7000FFF7E6FE0646092801D00FE02D1D45454B
:104A8000EFD3092E08D009E020463968FFF784FFEC
:104A9000092803D1241D3F1D4445F5D30120FFF70C
:104AA000C1FEFFF771FF0020CDE700000000FF1FEF
:104AB0008000A0F1C0400029016802D041F001014E
:104AC00001E0024A1140016070470000FEFF0F0044
:104AD00070B501688900A1F1C0410B68334A1340E9
:104AE000D0E901242243D0E903452C432243446901
:104AF000224384692243C4692243046A2243446AEC
:104B00002243846A2243C46A2243046B22431A4329
:104B10000A608168082907D101688900A1F1C041B4
:104B20000A6842F040020A6001688A00A2F1C042AD
:104B3000516801F04043416BD1E9004544EA051456
:104B40008D688E892D0245EA06452C430D8A44EA7C
:104B500005540D7D896944EA05640C431C43546087
:104B6000C16AB1F5804F08D000686FF070418000D5
:104B7000A0F1C040C0F8041170BD01688900A1F126
:104B8000C041D1F80421806B094B1A40D0E90034B0
:104B900043EA041384688589240244EA0544806951
:104BA000234303431343C1F8043170BD8000F7FF72
:104BB0000000F0CF2DE9F04798B001217A2004F0F1
:104BC000B7FD0121084604F0CBFD02258DF8045005
:104BD00000244FF633708DF806400326DFF854A208
:104BE00000908DF8056001278DF8077069465046E2
:104BF00000F090FB8DF804504FF683708DF806405E
:104C0000DFF8349200908DF805608DF807706946E2
:104C1000484600F07FFB8DF804504FF23F008DF8BE
:104C20000640DFF8188200908DF805608DF8077057
:104C30006946404600F06EFB8DF8045040F23F405C
:104C40008DF806407E4D00908DF805608DF8077058
:104C50006946284600F05EFB0C220021504600F019
:104C600095FB0C220121504600F090FB0C22042100
:104C7000504600F08BFB0C220521504600F086FBCD
:104C80000C220821504600F081FB0C2209215046DD
:104C900000F07CFB0C220A21504600F077FB0C222E
:104CA0000B21504600F072FB0C221146504600F0DA
:104CB0006DFB0C220D21504600F068FB0C220E21EA
:104CC000504600F063FB0C220F21504600F05EFBC3
:104CD0000C220021484600F059FB0C2201214846D5
:104CE00000F054FB0C220721484600F04FFB0C2239
:104CF0000821484600F04AFB0C220921484600F0F2
:104D000045FB0C220A21484600F040FB0C220B21F7
:104D1000484600F03BFB0C221146484600F036FBAB
:104D20000C220D21484600F031FB0C220E21484692
:104D300000F02CFB0C220F21484600F027FB0C2230
:104D40000021404600F022FB0C220121404600F0E9
:104D50001DFB0C220221404600F018FB0C2203210F
:104D6000404600F013FB0C220421404600F00EFBED
:104D70000C220521404600F009FB0C22114640465A
:104D800000F004FB0C220D21404600F0FFFA0C223B
:104D90000E21404600F0FAFA0C220F21404600F0A6
:104DA000F5FA0C220021284600F0F0FA0C2201212D
:104DB000284600F0EBFA0C220221284600F0E6FA21
:104DC0000C220321284600F0E1FA0C220421284697
:104DD00000F0DCFA0C220521284600F0D7FA0C225C
:104DE0000A21284600F0D2FA0820CDE91240119499
:104DF000169404201794CDE9020414941020CDE9F0
:104E00000440159406940002CDE90A4011A80994C3
:104E1000CDE90E400894079410900C940D9402A8CC
:104E2000FFF756FE01210420FFF742FE18B0BDE84F
:104E3000F0870000000C0240001002400014024005
:104E4000001802402DE9FC5F00244C4F00944FF401
:104E5000806801944025C7F81080C7E902540E46C7
:104E60004FF0080B1021C7E900B1A146384605F004
:104E70003BFA1020FEF704FD002853D14048AA4613
:104E80004D460089000438603720C7E9010AC7E9A8
:104E90000398384605F028FA3720FEF7F1FC002881
:104EA00040D1411E07F11400C0E9001B3021816090
:104EB0000221C0E903150121416105F0B7F9332052
:104EC000C7F808A0C7E90050C7E90358384605F0FD
:104ED0000BFA3320FEF7D4FC050023D1DFF8A490B1
:104EE000DFF8A0804FF4001B6F46A9F14C0940F297
:104EF0002A6AD9F8000010EA0A0F0BD1584605F0CB
:104F0000ADF90028F5D0D8F8000047F82400641C5B
:104F1000022CEED3082005F0A1F928B1082005F0F5
:104F200075F90420BDE8FC9F022005F097F920B137
:104F3000022005F06BF90220F4E7202005F08EF93D
:104F400020B1202005F062F90620EBE74FF4007451
:104F5000204605F083F920B1204605F057F90720D7
:104F6000E0E740F2FF5005F051F9009800BA706098
:104F7000019800BA30602846D4E70000F02B0120E9
:104F800094030020802C0140002070474FF0FF3038
:104F9000704700207047000010B508684B688968AA
:104FA0009A0700D00122084C02EB9302A04203D3DF
:104FB000064C0344A34202D94FF0FF3010BDFFF767
:104FC00009FD002010BD00000040000800C00008DE
:104FD00030B408684B6889689A0700D00122084CF1
:104FE00002EB9302A04203D3064C0344A34203D92D
:104FF00030BC4FF0FF30704730BCFFF717BD0000EA
:105000000040000800C0000810B5FDF779FBFDF76F
:10501000C9FDFDF7DBFCFDF7A5FEFDF7C7FBFDF7BE
:1050200049FCBDE81040FDF77FBD0020704700003F
:105030002DE9F041084F002407EB0415A96811B1D0
:10504000686888470646F1B2284601F0ABF9641C4F
:105050000A2CF1D3BDE8F081600100202DE9FC5F4E
:105060000121084604F064FB0121022004F060FBEA
:105070000121042004F05CFB0121082004F058FB0E
:105080000121102004F054FB0121202004F050FBEA
:105090000121402004F04CFB0121802004F048FB5A
:1050A000DFF8C4B14FF4007500222946584600F0DD
:1050B0008FF9AF0000223946584600F089F94FF4C5
:1050C000805800224146694800F082F94FF40049B7
:1050D00000224946664800F07BF94FF4807A0022AE
:1050E0005146644800F074F900220821624800F03B
:1050F0006FF97C200024CDE9000469465F4800F088
:1051000009F903268DF8046028018DF80640009007
:105110008DF807408DF805406946594800F0FAF8C7
:105120004FF4E070CDE900046946584600F0F2F80B
:10513000009501258DF804508DF806408DF8074044
:105140008DF805406946584600F0E4F88DF8046093
:10515000A8028DF8064000908DF807408DF80540B4
:105160006946584600F0D6F88DF804508DF8064090
:105170008DF8074000978DF805406946584600F0C5
:10518000C9F88DF804408DF8064004278DF80750C3
:1051900000978DF805406946394800F0BBF88DF856
:1051A00004608DF806408DF8074000978DF80540A3
:1051B00069462E4800F0AEF88DF804508DF8064090
:1051C0008DF80740CDF800808DF8054069462748E6
:1051D00000F0A0F88DF804604FF49E508DF8064062
:1051E00000908DF807408DF805406946204800F092
:1051F00091F88DF804508DF806408DF80740CDF8F1
:1052000000A08DF8054069461A4800F083F88DF833
:10521000045008208DF8064000908DF807408DF866
:1052200005406946144800F075F88DF80460C02008
:105230008DF8064000908DF807408DF805406946CE
:105240000D4800F067F88DF804508DF806408DF891
:105250000740CDF800908DF805406946044800F0FD
:1052600059F8BDE8FC9F0000001402400004024011
:105270000018024000000240000C024000100240F2
:10528000000802404FF0FF307047002070470000D8
:10529000001F4FF0FF33082815D2DFE800F00406A6
:1052A000080A0C0E101200220EE001220CE002226D
:1052B0000AE0032208E0042206E0052204E00622B8
:1052C00002E0072200E01A46002A01DA1846704779
:1052D000044800EB0210007800F00F000870012075
:1052E000704700006001002010B50978012905D041
:1052F0000022142804D04FF0FF3010BD0122F8E73F
:105300004FF48071024800F063F8002010BD0000E7
:1053100000000240F0B5002201274FF0030C0B689B
:1053200007FA02F52B40AB422CD1066853000CFA69
:1053300003F4A64306600E79D0F800E09E4046EAEA
:105340000E0606600E79012E01D0022E12D186685B
:10535000A64386604E79D0F808E09E4046EA0E06E5
:1053600086604668AE43466045688E799640B6B220
:1053700035434560C568A543C560CC799C40C3688A
:105380001C43C460521C102AC9D3F0BD4B07DB0E6E
:105390009A40C90810B500EB8100016A0F249C40B7
:1053A000A1430162016A1143016210BD024600205F
:1053B00012690A4200D0012070470246002052695B
:1053C0000A4200D001207047418370470183704733
:1053D0000AB1018370474183704700002DE9FE4FF9
:1053E000994C0026994FA07901254FF007094FF0FD
:1053F000050B4FF0030A4FF002084FF4FA610A2838
:105400003ED2DFE800F05AC0E1F0EF85D377930594
:1054100000238FA21846FDF769FE002805D0132847
:1054200004D00728FAD0022842D00BE1DFF83882F6
:105430000A228AA108F10700FBF74DFB58B30822A6
:105440008AA108F10700FBF746FB08B309228AA1ED
:1054500008F10700FBF73FFBE8B147460A2289A1A4
:10546000F81DFBF738FBD8B1092289A1F81DFBF71D
:1054700032FBC0B1092289A1F81DFBF72CFBA8B1B2
:10548000DCE084F8069001E084F806B0A570CBE07B
:1054900084F806A0C8E097F8BC050128F4D1F0E72D
:1054A0000420A071C0E00120BDE8FE8F0220FBE7D0
:1054B000206820F4C0602060F8E797F8BC05012858
:1054C0000AD1002378A241F288311846FDF70EFE7A
:1054D00010B184F80690A7E0002376A248F6B80140
:1054E0001846FDF703FE00289FD01128CFD184F87D
:1054F00006B099E072A373A20220FDF7F7FD002821
:1055000093D00821062801D002288ED1A1718BE00A
:105510006FA370A20220FDF7E9FD002813D0062832
:1055200002D007284FD07FE0A5717DE000236BA259
:105530000120FDF7DBFD002805D0052804D0062852
:1055400014D0022870D07DE02068312140F48070B2
:1055500020604548FBF746FA0028206802D040F05A
:10556000010001E020F0010020606BE0A5702078D0
:10557000C00706D097F8BC05012861D084F80680E2
:1055800060E0A5715EE04EA354A20220FDF7AEFDDF
:1055900050B3062852D1206840F00100206097F8EF
:1055A000BC0501284CD084F806803DE007F28C67EA
:1055B0004DA305CFCDE900024EA20220FDF796FDD6
:1055C00090B10628EFD039E04D480746FBF764FA62
:1055D00002280AD200234BA241F288311846FDF777
:1055E00085FD10E022E013E02CE045480097803074
:1055F000A0F14001CDE9011044A342A241F288315B
:105600000220FDF773FDE8B106283FF441AF15E035
:10561000002342A24AF6C8711846FDF767FD88B11B
:1056200006283FF43DAF09E0A5700BE000233DA242
:105630001846FDF75BFD28B1032801D0A671F3E7FA
:10564000A67130E700202FE75001002054590020B8
:105650002B4349505354415455530000495020495D
:105660004E495449414C0000546400204950205395
:105670005441525400000000495020434F4E4649C7
:105680004700000049502047505253414354000006
:105690004950205354415455530000005044502069
:1056A00044454143540000002B4E4554434C4F5356
:1056B000450000002B43495053485554000000005A
:1056C000310000002B43534F434B534554504E0081
:1056D000300000002B4349504D5558002B43495092
:1056E0004D4F444500000000222573222C222573D3
:1056F000220000002B43444E534346470000000065
:10570000125F00202B4353545400000022257322C3
:105710002C222573222C2225732200002B43494979
:10572000435200002B434946535200002DE9F843F1
:10573000884C894F0426607997F8BC2501254FF0E5
:1057400005084FF4FA610B2827D2DFE800F006B510
:10575000D5260637216A8645280000237FA24FF40C
:105760007A611846FDF7C2FC002803D0062802D053
:10577000022805D0EBE0206840F00800206019E026
:10578000206820F0080020600320A070062060E060
:105790000020FEF7E5FF0028ECD06671CBE070A397
:1057A00071A20220FDF7A2FC0028E3D00228F5D068
:1057B0000628DFD1A57084F80580C8E000236CA21C
:1057C0001846FDF793FC0028D4D00228E6D006281E
:1057D000D0D1A57009203CE00726012A1FD0002364
:1057E00065A20120FDF782FC0028C3D0052804D063
:1057F0000228D3D006280ED0A9E061A16148FBF7AA
:10580000E9F85FA10020FBF7E5F8FBF7B7F821689E
:1058100060F341018DE0A5702078800700D56671A6
:1058200095E05948012A59A300900AD05AA20220B3
:10583000FDF75CFC002803D002287CD0062802D0AB
:1058400085E058A2F3E7A57097F8BC05012802D1BE
:10585000082060717BE0657179E0002354A201208B
:10586000FDF744FC002872D0052804D0022810D08F
:10587000062818D06BE042A14248FBF7ABF840A1E4
:105880000020FBF7A7F8FBF779F8216860F3071110
:105890004FE0A570206810F0F00F00D1667120F085
:1058A000F000206053E02078C0F30310012801D0FD
:1058B00005284CD165713EE000233FA20120FDF791
:1058C00015FC38B30528D6D0022834D006283ED19E
:1058D0002078204AC0F303100021143A012803D095
:1058E000052801D0918032E097F8BC05012828D026
:1058F0000220607191801EE0002331A20120FDF79B
:10590000F5FB38B1052806D0022814D0062814D09B
:1059100007281AD01BE01B482BA1FBF75BF818A146
:105920000020FBF757F890B1FBF728F8216860F3E7
:10593000082121600BE0A57009E0A5702088C00552
:1059400005D566710120BDE8F883A57083E70020C6
:10595000F9E70000500100205459002045300000B4
:1059600031313532303000002B495052455800005B
:105970002B435351000000002B43534D494E53001D
:105980002C00000054640020125F0020312C2249BA
:1059900050222C22257322002B434744434F4E5460
:1059A000000000002B4347534F434B434F4E5400DE
:1059B0002B435245470000002B4347524547000008
:1059C0002B434741545400003A0000002DE9F04FAA
:1059D000DF48DE4CDF4F90F8BCC52046E379016814
:1059E0001438032601253A78B0F9000089B04FF049
:1059F00000094FF0060E4FF0040BC1F3031A0B2BF6
:105A00006FD2DFE803F00628B0F96E6E7DF8CB8523
:105A10009F00012A07D0080716D5480714D5BAF108
:105A2000010F11D10EE0A570BCF1010F05D038793E
:105A30003038092803D8E67182E1092000E0082007
:105A4000E0717DE1C80503D4022009B0BDE8F08F04
:105A50004FF0FF30F9E7032A0CD0C1F34122012AAD
:105A600008D10A0706D54A0704D5BAF1010F01D1BA
:105A7000CA0503D421F4C060206051E1B64E411C38
:105A800004D0811C2BD0C01C29D036E00622B3A143
:105A9000B148FBF720F838B10B22B2A1AE48FBF7B2
:105AA0001AF858B1002414E03878012801D187F899
:105AB00000B0206820F4C0602060C2E0206820F4BC
:105AC0008070206068E0315DA94803F018FE641C16
:105AD000A4B2A148FAF7E0FFA042F4D830E10024D4
